{
  "_format": "hh-sol-artifact-1",
  "contractName": "SimpleInsurance",
  "sourceName": "contracts/SimpleInsurance.sol",
  "abi": [
    {
      "anonymous": false,
      "inputs": [
        {
          "indexed": true,
          "internalType": "uint256",
          "name": "policyId",
          "type": "uint256"
        },
        {
          "indexed": true,
          "internalType": "address",
          "name": "holder",
          "type": "address"
        },
        {
          "indexed": false,
          "internalType": "uint256",
          "name": "premium",
          "type": "uint256"
        },
        {
          "indexed": false,
          "internalType": "uint256",
          "name": "coverage",
          "type": "uint256"
        }
      ],
      "name": "PolicyCreated",
      "type": "event"
    },
    {
      "inputs": [
        {
          "internalType": "uint256",
          "name": "",
          "type": "uint256"
        }
      ],
      "name": "_policies",
      "outputs": [
        {
          "internalType": "uint256",
          "name": "id",
          "type": "uint256"
        },
        {
          "internalType": "address",
          "name": "holder",
          "type": "address"
        },
        {
          "internalType": "uint256",
          "name": "premium",
          "type": "uint256"
        },
        {
          "internalType": "uint256",
          "name": "coverage",
          "type": "uint256"
        },
        {
          "internalType": "uint256",
          "name": "expiry",
          "type": "uint256"
        },
        {
          "internalType": "bool",
          "name": "active",
          "type": "bool"
        },
        {
          "internalType": "string",
          "name": "protocol",
          "type": "string"
        }
      ],
      "stateMutability": "view",
      "type": "function"
    },
    {
      "inputs": [
        {
          "internalType": "address",
          "name": "holder",
          "type": "address"
        },
        {
          "internalType": "uint256",
          "name": "premium",
          "type": "uint256"
        },
        {
          "internalType": "uint256",
          "name": "coverage",
          "type": "uint256"
        },
        {
          "internalType": "uint256",
          "name": "duration",
          "type": "uint256"
        },
        {
          "internalType": "string",
          "name": "protocol",
          "type": "string"
        }
      ],
      "name": "createPolicy",
      "outputs": [
        {
          "internalType": "uint256",
          "name": "",
          "type": "uint256"
        }
      ],
      "stateMutability": "payable",
      "type": "function"
    },
    {
      "inputs": [
        {
          "internalType": "address",
          "name": "holder",
          "type": "address"
        }
      ],
      "name": "getHolderPolicies",
      "outputs": [
        {
          "internalType": "uint256[]",
          "name": "",
          "type": "uint256[]"
        }
      ],
      "stateMutability": "view",
      "type": "function"
    },
    {
      "inputs": [
        {
          "internalType": "uint256",
          "name": "policyId",
          "type": "uint256"
        }
      ],
      "name": "getPolicy",
      "outputs": [
        {
          "internalType": "uint256",
          "name": "id",
          "type": "uint256"
        },
        {
          "internalType": "address",
          "name": "holder",
          "type": "address"
        },
        {
          "internalType": "uint256",
          "name": "premium",
          "type": "uint256"
        },
        {
          "internalType": "uint256",
          "name": "coverage",
          "type": "uint256"
        },
        {
          "internalType": "uint256",
          "name": "expiry",
          "type": "uint256"
        },
        {
          "internalType": "bool",
          "name": "active",
          "type": "bool"
        },
        {
          "internalType": "string",
          "name": "protocol",
          "type": "string"
        }
      ],
      "stateMutability": "view",
      "type": "function"
    },
    {
      "inputs": [],
      "name": "getPolicyCount",
      "outputs": [
        {
          "internalType": "uint256",
          "name": "",
          "type": "uint256"
        }
      ],
      "stateMutability": "view",
      "type": "function"
    },
    {
      "inputs": [
        {
          "internalType": "address",
          "name": "",
          "type": "address"
        },
        {
          "internalType": "uint256",
          "name": "",
          "type": "uint256"
        }
      ],
      "name": "holderPolicies",
      "outputs": [
        {
          "internalType": "uint256",
          "name": "",
          "type": "uint256"
        }
      ],
      "stateMutability": "view",
      "type": "function"
    }
  ],
  "bytecode": "0x608060405234801561001057600080fd5b506110e6806100206000396000f3fe6080604052600436106100555760003560e01c80632b07fce31461005a578063798218ef1461009d578063857d0fda146100cd57806395a4dfd21461010a578063d2c6be6f14610147578063e59771d21461018a575b600080fd5b34801561006657600080fd5b50610081600480360381019061007c9190610794565b6101b5565b60405161009497969594939291906108bc565b60405180910390f35b6100b760048036038101906100b29190610a93565b61034a565b6040516100c49190610b2a565b60405180910390f35b3480156100d957600080fd5b506100f460048036038101906100ef9190610b45565b610582565b6040516101019190610c30565b60405180910390f35b34801561011657600080fd5b50610131600480360381019061012c9190610c52565b610619565b60405161013e9190610b2a565b60405180910390f35b34801561015357600080fd5b5061016e60048036038101906101699190610794565b61064a565b60405161018197969594939291906108bc565b60405180910390f35b34801561019657600080fd5b5061019f610741565b6040516101ac9190610b2a565b60405180910390f35b60008060008060008060606000600160008a81526020019081526020016000206040518060e0016040529081600082015481526020016001820160009054906101000a900473ffffffffffffffffffffffffffffffffffffffff1673ffffffffffffffffffffffffffffffffffffffff1673ffffffffffffffffffffffffffffffffffffffff1681526020016002820154815260200160038201548152602001600482015481526020016005820160009054906101000a900460ff1615151515815260200160068201805461028990610cc1565b80601f01602080910402602001604051908101604052809291908181526020018280546102b590610cc1565b80156103025780601f106102d757610100808354040283529160200191610302565b820191906000526020600020905b8154815290600101906020018083116102e557829003601f168201915b5050505050815250509050806000015181602001518260400151836060015184608001518560a001518660c00151975097509750975097509750975050919395979092949650565b60008434101561038f576040517f08c379a000000000000000000000000000000000000000000000000000000000815260040161038690610d3e565b60405180910390fd5b6000808154809291906103a190610d8d565b91905055506000805490506040518060e001604052808281526020018873ffffffffffffffffffffffffffffffffffffffff16815260200187815260200186815260200185426103f19190610dd5565b815260200160011515815260200184815250600160008381526020019081526020016000206000820151816000015560208201518160010160006101000a81548173ffffffffffffffffffffffffffffffffffffffff021916908373ffffffffffffffffffffffffffffffffffffffff16021790555060408201518160020155606082015181600301556080820151816004015560a08201518160050160006101000a81548160ff02191690831515021790555060c08201518160060190816104ba9190610fb5565b50905050600260008873ffffffffffffffffffffffffffffffffffffffff1673ffffffffffffffffffffffffffffffffffffffff1681526020019081526020016000208190806001815401808255809150506001900390600052602060002001600090919091909150558673ffffffffffffffffffffffffffffffffffffffff16817ff407f724dd5d2b7754fcbc405960f07c8da0a85e7f71948913fb2997e77bfc86888860405161056d929190611087565b60405180910390a38091505095945050505050565b6060600260008373ffffffffffffffffffffffffffffffffffffffff1673ffffffffffffffffffffffffffffffffffffffff16815260200190815260200160002080548060200260200160405190810160405280929190818152602001828054801561060d57602002820191906000526020600020905b8154815260200190600101908083116105f9575b50505050509050919050565b6002602052816000526040600020818154811061063557600080fd5b90600052602060002001600091509150505481565b60016020528060005260406000206000915090508060000154908060010160009054906101000a900473ffffffffffffffffffffffffffffffffffffffff16908060020154908060030154908060040154908060050160009054906101000a900460ff16908060060180546106be90610cc1565b80601f01602080910402602001604051908101604052809291908181526020018280546106ea90610cc1565b80156107375780601f1061070c57610100808354040283529160200191610737565b820191906000526020600020905b81548152906001019060200180831161071a57829003601f168201915b5050505050905087565b60008054905090565b6000604051905090565b600080fd5b600080fd5b6000819050919050565b6107718161075e565b811461077c57600080fd5b50565b60008135905061078e81610768565b92915050565b6000602082840312156107aa576107a9610754565b5b60006107b88482850161077f565b91505092915050565b6107ca8161075e565b82525050565b600073ffffffffffffffffffffffffffffffffffffffff82169050919050565b60006107fb826107d0565b9050919050565b61080b816107f0565b82525050565b60008115159050919050565b61082681610811565b82525050565b600081519050919050565b600082825260208201905092915050565b60005b8381101561086657808201518184015260208101905061084b565b60008484015250505050565b6000601f19601f8301169050919050565b600061088e8261082c565b6108988185610837565b93506108a8818560208601610848565b6108b181610872565b840191505092915050565b600060e0820190506108d1600083018a6107c1565b6108de6020830189610802565b6108eb60408301886107c1565b6108f860608301876107c1565b61090560808301866107c1565b61091260a083018561081d565b81810360c08301526109248184610883565b905098975050505050505050565b61093b816107f0565b811461094657600080fd5b50565b60008135905061095881610932565b92915050565b600080fd5b600080fd5b7f4e487b7100000000000000000000000000000000000000000000000000000000600052604160045260246000fd5b6109a082610872565b810181811067ffffffffffffffff821117156109bf576109be610968565b5b80604052505050565b60006109d261074a565b90506109de8282610997565b919050565b600067ffffffffffffffff8211156109fe576109fd610968565b5b610a0782610872565b9050602081019050919050565b82818337600083830152505050565b6000610a36610a31846109e3565b6109c8565b905082815260208101848484011115610a5257610a51610963565b5b610a5d848285610a14565b509392505050565b600082601f830112610a7a57610a7961095e565b5b8135610a8a848260208601610a23565b91505092915050565b600080600080600060a08688031215610aaf57610aae610754565b5b6000610abd88828901610949565b9550506020610ace8882890161077f565b9450506040610adf8882890161077f565b9350506060610af08882890161077f565b925050608086013567ffffffffffffffff811115610b1157610b10610759565b5b610b1d88828901610a65565b9150509295509295909350565b6000602082019050610b3f60008301846107c1565b92915050565b600060208284031215610b5b57610b5a610754565b5b6000610b6984828501610949565b91505092915050565b600081519050919050565b600082825260208201905092915050565b6000819050602082019050919050565b610ba78161075e565b82525050565b6000610bb98383610b9e565b60208301905092915050565b6000602082019050919050565b6000610bdd82610b72565b610be78185610b7d565b9350610bf283610b8e565b8060005b83811015610c23578151610c0a8882610bad565b9750610c1583610bc5565b925050600181019050610bf6565b5085935050505092915050565b60006020820190508181036000830152610c4a8184610bd2565b905092915050565b60008060408385031215610c6957610c68610754565b5b6000610c7785828601610949565b9250506020610c888582860161077f565b9150509250929050565b7f4e487b7100000000000000000000000000000000000000000000000000000000600052602260045260246000fd5b60006002820490506001821680610cd957607f821691505b602082108103610cec57610ceb610c92565b5b50919050565b7f496e73756666696369656e74207072656d69756d207061796d656e7400000000600082015250565b6000610d28601c83610837565b9150610d3382610cf2565b602082019050919050565b60006020820190508181036000830152610d5781610d1b565b9050919050565b7f4e487b7100000000000000000000000000000000000000000000000000000000600052601160045260246000fd5b6000610d988261075e565b91507fffffffffffffffffffffffffffffffffffffffffffffffffffffffffffffffff8203610dca57610dc9610d5e565b5b600182019050919050565b6000610de08261075e565b9150610deb8361075e565b9250828201905080821115610e0357610e02610d5e565b5b92915050565b60008190508160005260206000209050919050565b60006020601f8301049050919050565b600082821b905092915050565b600060088302610e6b7fffffffffffffffffffffffffffffffffffffffffffffffffffffffffffffffff82610e2e565b610e758683610e2e565b95508019841693508086168417925050509392505050565b6000819050919050565b6000610eb2610ead610ea88461075e565b610e8d565b61075e565b9050919050565b6000819050919050565b610ecc83610e97565b610ee0610ed882610eb9565b848454610e3b565b825550505050565b600090565b610ef5610ee8565b610f00818484610ec3565b505050565b5b81811015610f2457610f19600082610eed565b600181019050610f06565b5050565b601f821115610f6957610f3a81610e09565b610f4384610e1e565b81016020851015610f52578190505b610f66610f5e85610e1e565b830182610f05565b50505b505050565b600082821c905092915050565b6000610f8c60001984600802610f6e565b1980831691505092915050565b6000610fa58383610f7b565b9150826002028217905092915050565b610fbe8261082c565b67ffffffffffffffff811115610fd757610fd6610968565b5b610fe18254610cc1565b610fec828285610f28565b600060209050601f83116001811461101f576000841561100d578287015190505b6110178582610f99565b86555061107f565b601f19841661102d86610e09565b60005b8281101561105557848901518255600182019150602085019450602081019050611030565b86831015611072578489015161106e601f891682610f7b565b8355505b6001600288020188555050505b505050505050565b600060408201905061109c60008301856107c1565b6110a960208301846107c1565b939250505056fea26469706673582212209fbe0bc0bdcd322b5a4277dacc26a481e12a1945d33401f18dcd179e3375e24664736f6c63430008140033",
  "linkReferences": {},
  "deployedLinkReferences": {}
}