{
  "_format": "hh-sol-artifact-1",
  "contractName": "SimpleInsurance",
  "sourceName": "contracts/SimpleInsurance.sol",
  "abi": [
    {
      "anonymous": false,
      "inputs": [
        {
          "indexed": true,
          "internalType": "uint256",
          "name": "policyId",
          "type": "uint256"
        },
        {
          "indexed": true,
          "internalType": "address",
          "name": "holder",
          "type": "address"
        },
        {
          "indexed": false,
          "internalType": "uint256",
          "name": "premium",
          "type": "uint256"
        },
        {
          "indexed": false,
          "internalType": "uint256",
          "name": "coverage",
          "type": "uint256"
        }
      ],
      "name": "PolicyCreated",
      "type": "event"
    },
    {
      "inputs": [
        {
          "internalType": "uint256",
          "name": "",
          "type": "uint256"
        }
      ],
      "name": "_policies",
      "outputs": [
        {
          "internalType": "uint256",
          "name": "id",
          "type": "uint256"
        },
        {
          "internalType": "address",
          "name": "holder",
          "type": "address"
        },
        {
          "internalType": "uint256",
          "name": "premium",
          "type": "uint256"
        },
        {
          "internalType": "uint256",
          "name": "coverage",
          "type": "uint256"
        },
        {
          "internalType": "uint256",
          "name": "expiry",
          "type": "uint256"
        },
        {
          "internalType": "bool",
          "name": "active",
          "type": "bool"
        },
        {
          "internalType": "string",
          "name": "protocol",
          "type": "string"
        }
      ],
      "stateMutability": "view",
      "type": "function"
    },
    {
      "inputs": [
        {
          "internalType": "address",
          "name": "holder",
          "type": "address"
        },
        {
          "internalType": "uint256",
          "name": "premium",
          "type": "uint256"
        },
        {
          "internalType": "uint256",
          "name": "coverage",
          "type": "uint256"
        },
        {
          "internalType": "uint256",
          "name": "duration",
          "type": "uint256"
        },
        {
          "internalType": "string",
          "name": "protocol",
          "type": "string"
        }
      ],
      "name": "createPolicy",
      "outputs": [
        {
          "internalType": "uint256",
          "name": "",
          "type": "uint256"
        }
      ],
      "stateMutability": "payable",
      "type": "function"
    },
    {
      "inputs": [
        {
          "internalType": "address",
          "name": "holder",
          "type": "address"
        }
      ],
      "name": "getHolderPolicies",
      "outputs": [
        {
          "internalType": "uint256[]",
          "name": "",
          "type": "uint256[]"
        }
      ],
      "stateMutability": "view",
      "type": "function"
    },
    {
      "inputs": [
        {
          "internalType": "uint256",
          "name": "policyId",
          "type": "uint256"
        }
      ],
      "name": "getPolicy",
      "outputs": [
        {
          "internalType": "uint256",
          "name": "id",
          "type": "uint256"
        },
        {
          "internalType": "address",
          "name": "holder",
          "type": "address"
        },
        {
          "internalType": "uint256",
          "name": "premium",
          "type": "uint256"
        },
        {
          "internalType": "uint256",
          "name": "coverage",
          "type": "uint256"
        },
        {
          "internalType": "uint256",
          "name": "expiry",
          "type": "uint256"
        },
        {
          "internalType": "bool",
          "name": "active",
          "type": "bool"
        },
        {
          "internalType": "string",
          "name": "protocol",
          "type": "string"
        }
      ],
      "stateMutability": "view",
      "type": "function"
    },
    {
      "inputs": [],
      "name": "getPolicyCount",
      "outputs": [
        {
          "internalType": "uint256",
          "name": "",
          "type": "uint256"
        }
      ],
      "stateMutability": "view",
      "type": "function"
    },
    {
      "inputs": [
        {
          "internalType": "address",
          "name": "",
          "type": "address"
        },
        {
          "internalType": "uint256",
          "name": "",
          "type": "uint256"
        }
      ],
      "name": "holderPolicies",
      "outputs": [
        {
          "internalType": "uint256",
          "name": "",
          "type": "uint256"
        }
      ],
      "stateMutability": "view",
      "type": "function"
    }
  ],
  "bytecode": "0x608060405234801561001057600080fd5b506109a6806100206000396000f3fe6080604052600436106100555760003560e01c80632b07fce31461005a578063798218ef14610096578063857d0fda146100b757806395a4dfd2146100e4578063d2c6be6f14610104578063e59771d214610124575b600080fd5b34801561006657600080fd5b5061007a61007536600461059e565b610139565b60405161008d97969594939291906105b7565b60405180910390f35b6100a96100a4366004610670565b610281565b60405190815260200161008d565b3480156100c357600080fd5b506100d76100d236600461074f565b61042b565b60405161008d9190610771565b3480156100f057600080fd5b506100a96100ff3660046107b5565b610497565b34801561011057600080fd5b5061007a61011f36600461059e565b6104c8565b34801561013057600080fd5b506000546100a9565b6000818152600160208181526040808420815160e08101835281548152938101546001600160a01b031692840192909252600282015490830152600381015460608381019190915260048201546080840152600582015460ff16151560a084015260068201805485948594859485948594919385939092909160c08401916101c0906107df565b80601f01602080910402602001604051908101604052809291908181526020018280546101ec906107df565b80156102395780601f1061020e57610100808354040283529160200191610239565b820191906000526020600020905b81548152906001019060200180831161021c57829003601f168201915b5050505050815250509050806000015181602001518260400151836060015184608001518560a001518660c00151975097509750975097509750975050919395979092949650565b6000843410156102d75760405162461bcd60e51b815260206004820152601c60248201527f496e73756666696369656e74207072656d69756d207061796d656e7400000000604482015260640160405180910390fd5b6000805490806102e68361082f565b90915550506000546040805160e0810182528281526001600160a01b038916602082015290810187905260608101869052608081016103258642610848565b81526001602080830182905260409283018790526000858152828252839020845181559084015191810180546001600160a01b0319166001600160a01b0390931692909217909155908201516002820155606082015160038201556080820151600482015560a082015160058201805460ff191691151591909117905560c082015160068201906103b690826108b0565b5050506001600160a01b0387166000818152600260209081526040808320805460018101825590845292829020909201849055815189815290810188905283917ff407f724dd5d2b7754fcbc405960f07c8da0a85e7f71948913fb2997e77bfc86910160405180910390a39695505050505050565b6001600160a01b03811660009081526002602090815260409182902080548351818402810184019094528084526060939283018282801561048b57602002820191906000526020600020905b815481526020019060010190808311610477575b50505050509050919050565b600260205281600052604060002081815481106104b357600080fd5b90600052602060002001600091509150505481565b600160208190526000918252604090912080549181015460028201546003830154600484015460058501546006860180546001600160a01b039096169694959394929360ff909216929161051b906107df565b80601f0160208091040260200160405190810160405280929190818152602001828054610547906107df565b80156105945780601f1061056957610100808354040283529160200191610594565b820191906000526020600020905b81548152906001019060200180831161057757829003601f168201915b5050505050905087565b6000602082840312156105b057600080fd5b5035919050565b8781526000602060018060a01b0389168184015287604084015286606084015285608084015284151560a084015260e060c084015283518060e085015260005b8181101561061457858101830151858201610100015282016105f7565b506101009150600082828601015281601f19601f8301168501019250505098975050505050505050565b80356001600160a01b038116811461065557600080fd5b919050565b634e487b7160e01b600052604160045260246000fd5b600080600080600060a0868803121561068857600080fd5b6106918661063e565b9450602086013593506040860135925060608601359150608086013567ffffffffffffffff808211156106c357600080fd5b818801915088601f8301126106d757600080fd5b8135818111156106e9576106e961065a565b604051601f8201601f19908116603f011681019083821181831017156107115761071161065a565b816040528281528b602084870101111561072a57600080fd5b8260208601602083013760006020848301015280955050505050509295509295909350565b60006020828403121561076157600080fd5b61076a8261063e565b9392505050565b6020808252825182820181905260009190848201906040850190845b818110156107a95783518352928401929184019160010161078d565b50909695505050505050565b600080604083850312156107c857600080fd5b6107d18361063e565b946020939093013593505050565b600181811c908216806107f357607f821691505b60208210810361081357634e487b7160e01b600052602260045260246000fd5b50919050565b634e487b7160e01b600052601160045260246000fd5b60006001820161084157610841610819565b5060010190565b8082018082111561085b5761085b610819565b92915050565b601f8211156108ab57600081815260208120601f850160051c810160208610156108885750805b601f850160051c820191505b818110156108a757828155600101610894565b5050505b505050565b815167ffffffffffffffff8111156108ca576108ca61065a565b6108de816108d884546107df565b84610861565b602080601f83116001811461091357600084156108fb5750858301515b600019600386901b1c1916600185901b1785556108a7565b600085815260208120601f198616915b8281101561094257888601518255948401946001909101908401610923565b50858210156109605787850151600019600388901b60f8161c191681555b5050505050600190811b0190555056fea26469706673582212209dad27a326b1b1aec1f0ee4699accc351cb142d1a1b695af84ba6d36aacc915164736f6c63430008140033",
  "linkReferences": {},
  "deployedLinkReferences": {}
}