{
  "_format": "hh-sol-artifact-1",
  "contractName": "LiquidityPool",
  "sourceName": "contracts/LiquidityPool.sol",
  "abi": [
    {
      "inputs": [],
      "stateMutability": "nonpayable",
      "type": "constructor"
    },
    {
      "inputs": [
        {
          "internalType": "address",
          "name": "spender",
          "type": "address"
        },
        {
          "internalType": "uint256",
          "name": "allowance",
          "type": "uint256"
        },
        {
          "internalType": "uint256",
          "name": "needed",
          "type": "uint256"
        }
      ],
      "name": "ERC20InsufficientAllowance",
      "type": "error"
    },
    {
      "inputs": [
        {
          "internalType": "address",
          "name": "sender",
          "type": "address"
        },
        {
          "internalType": "uint256",
          "name": "balance",
          "type": "uint256"
        },
        {
          "internalType": "uint256",
          "name": "needed",
          "type": "uint256"
        }
      ],
      "name": "ERC20InsufficientBalance",
      "type": "error"
    },
    {
      "inputs": [
        {
          "internalType": "address",
          "name": "approver",
          "type": "address"
        }
      ],
      "name": "ERC20InvalidApprover",
      "type": "error"
    },
    {
      "inputs": [
        {
          "internalType": "address",
          "name": "receiver",
          "type": "address"
        }
      ],
      "name": "ERC20InvalidReceiver",
      "type": "error"
    },
    {
      "inputs": [
        {
          "internalType": "address",
          "name": "sender",
          "type": "address"
        }
      ],
      "name": "ERC20InvalidSender",
      "type": "error"
    },
    {
      "inputs": [
        {
          "internalType": "address",
          "name": "spender",
          "type": "address"
        }
      ],
      "name": "ERC20InvalidSpender",
      "type": "error"
    },
    {
      "inputs": [
        {
          "internalType": "address",
          "name": "owner",
          "type": "address"
        }
      ],
      "name": "OwnableInvalidOwner",
      "type": "error"
    },
    {
      "inputs": [
        {
          "internalType": "address",
          "name": "account",
          "type": "address"
        }
      ],
      "name": "OwnableUnauthorizedAccount",
      "type": "error"
    },
    {
      "anonymous": false,
      "inputs": [
        {
          "indexed": true,
          "internalType": "address",
          "name": "owner",
          "type": "address"
        },
        {
          "indexed": true,
          "internalType": "address",
          "name": "spender",
          "type": "address"
        },
        {
          "indexed": false,
          "internalType": "uint256",
          "name": "value",
          "type": "uint256"
        }
      ],
      "name": "Approval",
      "type": "event"
    },
    {
      "anonymous": false,
      "inputs": [
        {
          "indexed": true,
          "internalType": "address",
          "name": "user",
          "type": "address"
        },
        {
          "indexed": false,
          "internalType": "uint256",
          "name": "amount",
          "type": "uint256"
        }
      ],
      "name": "Deposited",
      "type": "event"
    },
    {
      "anonymous": false,
      "inputs": [
        {
          "indexed": true,
          "internalType": "address",
          "name": "previousOwner",
          "type": "address"
        },
        {
          "indexed": true,
          "internalType": "address",
          "name": "newOwner",
          "type": "address"
        }
      ],
      "name": "OwnershipTransferred",
      "type": "event"
    },
    {
      "anonymous": false,
      "inputs": [
        {
          "indexed": false,
          "internalType": "uint256",
          "name": "amount",
          "type": "uint256"
        }
      ],
      "name": "RewardsDistributed",
      "type": "event"
    },
    {
      "anonymous": false,
      "inputs": [
        {
          "indexed": true,
          "internalType": "address",
          "name": "from",
          "type": "address"
        },
        {
          "indexed": true,
          "internalType": "address",
          "name": "to",
          "type": "address"
        },
        {
          "indexed": false,
          "internalType": "uint256",
          "name": "value",
          "type": "uint256"
        }
      ],
      "name": "Transfer",
      "type": "event"
    },
    {
      "anonymous": false,
      "inputs": [
        {
          "indexed": true,
          "internalType": "address",
          "name": "user",
          "type": "address"
        },
        {
          "indexed": false,
          "internalType": "uint256",
          "name": "amount",
          "type": "uint256"
        }
      ],
      "name": "Withdrawn",
      "type": "event"
    },
    {
      "inputs": [
        {
          "internalType": "address",
          "name": "owner",
          "type": "address"
        },
        {
          "internalType": "address",
          "name": "spender",
          "type": "address"
        }
      ],
      "name": "allowance",
      "outputs": [
        {
          "internalType": "uint256",
          "name": "",
          "type": "uint256"
        }
      ],
      "stateMutability": "view",
      "type": "function"
    },
    {
      "inputs": [
        {
          "internalType": "address",
          "name": "spender",
          "type": "address"
        },
        {
          "internalType": "uint256",
          "name": "value",
          "type": "uint256"
        }
      ],
      "name": "approve",
      "outputs": [
        {
          "internalType": "bool",
          "name": "",
          "type": "bool"
        }
      ],
      "stateMutability": "nonpayable",
      "type": "function"
    },
    {
      "inputs": [
        {
          "internalType": "address",
          "name": "account",
          "type": "address"
        }
      ],
      "name": "balanceOf",
      "outputs": [
        {
          "internalType": "uint256",
          "name": "",
          "type": "uint256"
        }
      ],
      "stateMutability": "view",
      "type": "function"
    },
    {
      "inputs": [],
      "name": "decimals",
      "outputs": [
        {
          "internalType": "uint8",
          "name": "",
          "type": "uint8"
        }
      ],
      "stateMutability": "view",
      "type": "function"
    },
    {
      "inputs": [],
      "name": "deposit",
      "outputs": [],
      "stateMutability": "payable",
      "type": "function"
    },
    {
      "inputs": [
        {
          "internalType": "address",
          "name": "",
          "type": "address"
        }
      ],
      "name": "deposits",
      "outputs": [
        {
          "internalType": "uint256",
          "name": "",
          "type": "uint256"
        }
      ],
      "stateMutability": "view",
      "type": "function"
    },
    {
      "inputs": [],
      "name": "distributeRewards",
      "outputs": [],
      "stateMutability": "payable",
      "type": "function"
    },
    {
      "inputs": [],
      "name": "getPoolBalance",
      "outputs": [
        {
          "internalType": "uint256",
          "name": "",
          "type": "uint256"
        }
      ],
      "stateMutability": "view",
      "type": "function"
    },
    {
      "inputs": [
        {
          "internalType": "address",
          "name": "user",
          "type": "address"
        }
      ],
      "name": "getUserBalance",
      "outputs": [
        {
          "internalType": "uint256",
          "name": "",
          "type": "uint256"
        }
      ],
      "stateMutability": "view",
      "type": "function"
    },
    {
      "inputs": [
        {
          "internalType": "address",
          "name": "user",
          "type": "address"
        }
      ],
      "name": "getUserShares",
      "outputs": [
        {
          "internalType": "uint256",
          "name": "",
          "type": "uint256"
        }
      ],
      "stateMutability": "view",
      "type": "function"
    },
    {
      "inputs": [
        {
          "internalType": "address",
          "name": "",
          "type": "address"
        }
      ],
      "name": "lastDepositTime",
      "outputs": [
        {
          "internalType": "uint256",
          "name": "",
          "type": "uint256"
        }
      ],
      "stateMutability": "view",
      "type": "function"
    },
    {
      "inputs": [],
      "name": "name",
      "outputs": [
        {
          "internalType": "string",
          "name": "",
          "type": "string"
        }
      ],
      "stateMutability": "view",
      "type": "function"
    },
    {
      "inputs": [],
      "name": "owner",
      "outputs": [
        {
          "internalType": "address",
          "name": "",
          "type": "address"
        }
      ],
      "stateMutability": "view",
      "type": "function"
    },
    {
      "inputs": [],
      "name": "renounceOwnership",
      "outputs": [],
      "stateMutability": "nonpayable",
      "type": "function"
    },
    {
      "inputs": [],
      "name": "symbol",
      "outputs": [
        {
          "internalType": "string",
          "name": "",
          "type": "string"
        }
      ],
      "stateMutability": "view",
      "type": "function"
    },
    {
      "inputs": [],
      "name": "totalDeposits",
      "outputs": [
        {
          "internalType": "uint256",
          "name": "",
          "type": "uint256"
        }
      ],
      "stateMutability": "view",
      "type": "function"
    },
    {
      "inputs": [],
      "name": "totalRewards",
      "outputs": [
        {
          "internalType": "uint256",
          "name": "",
          "type": "uint256"
        }
      ],
      "stateMutability": "view",
      "type": "function"
    },
    {
      "inputs": [],
      "name": "totalShares",
      "outputs": [
        {
          "internalType": "uint256",
          "name": "",
          "type": "uint256"
        }
      ],
      "stateMutability": "view",
      "type": "function"
    },
    {
      "inputs": [],
      "name": "totalSupply",
      "outputs": [
        {
          "internalType": "uint256",
          "name": "",
          "type": "uint256"
        }
      ],
      "stateMutability": "view",
      "type": "function"
    },
    {
      "inputs": [
        {
          "internalType": "address",
          "name": "to",
          "type": "address"
        },
        {
          "internalType": "uint256",
          "name": "value",
          "type": "uint256"
        }
      ],
      "name": "transfer",
      "outputs": [
        {
          "internalType": "bool",
          "name": "",
          "type": "bool"
        }
      ],
      "stateMutability": "nonpayable",
      "type": "function"
    },
    {
      "inputs": [
        {
          "internalType": "address",
          "name": "from",
          "type": "address"
        },
        {
          "internalType": "address",
          "name": "to",
          "type": "address"
        },
        {
          "internalType": "uint256",
          "name": "value",
          "type": "uint256"
        }
      ],
      "name": "transferFrom",
      "outputs": [
        {
          "internalType": "bool",
          "name": "",
          "type": "bool"
        }
      ],
      "stateMutability": "nonpayable",
      "type": "function"
    },
    {
      "inputs": [
        {
          "internalType": "address",
          "name": "newOwner",
          "type": "address"
        }
      ],
      "name": "transferOwnership",
      "outputs": [],
      "stateMutability": "nonpayable",
      "type": "function"
    },
    {
      "inputs": [
        {
          "internalType": "uint256",
          "name": "shares",
          "type": "uint256"
        }
      ],
      "name": "withdraw",
      "outputs": [],
      "stateMutability": "nonpayable",
      "type": "function"
    }
  ],
  "bytecode": "0x60806040523480156200001157600080fd5b50336040518060400160405280601381526020017f5072616573696469756d204c5020546f6b656e00000000000000000000000000815250604051806040016040528060038152602001620704c560ec1b8152508160039081620000769190620001c0565b506004620000858282620001c0565b5050506001600160a01b038116620000b757604051631e4fbdf760e01b81526000600482015260240160405180910390fd5b620000c281620000c9565b506200028c565b600580546001600160a01b038381166001600160a01b0319831681179093556040519116919082907f8be0079c531659141344cd1fd0a4f28419497f9722a3daafe3b4186f6b6457e090600090a35050565b634e487b7160e01b600052604160045260246000fd5b600181811c908216806200014657607f821691505b6020821081036200016757634e487b7160e01b600052602260045260246000fd5b50919050565b601f821115620001bb57600081815260208120601f850160051c81016020861015620001965750805b601f850160051c820191505b81811015620001b757828155600101620001a2565b5050505b505050565b81516001600160401b03811115620001dc57620001dc6200011b565b620001f481620001ed845462000131565b846200016d565b602080601f8311600181146200022c5760008415620002135750858301515b600019600386901b1c1916600185901b178555620001b7565b600085815260208120601f198616915b828110156200025d578886015182559484019460019091019084016200023c565b50858210156200027c5787850151600019600388901b60f8161c191681555b5050505050600190811b01905550565b610ee0806200029c6000396000f3fe6080604052600436106101405760003560e01c806370a08231116100b6578063abd70aa21161006f578063abd70aa21461035b578063ba0cb22b1461036e578063d0e30db01461038e578063dd62ed3e14610396578063f2fde38b146103dc578063fc7e286d146103fc57600080fd5b806370a082311461029d578063715018a6146102d35780637d882097146102e85780638da5cb5b146102fe57806395d89b4114610326578063a9059cbb1461033b57600080fd5b806323b872dd1161010857806323b872dd146102025780632e1a7d4d14610222578063313ce567146102445780633a98ef391461026057806347734892146102755780636f4a2cd01461029557600080fd5b8063025277531461014557806306fdde0314610185578063095ea7b3146101a75780630e15561a146101d757806318160ddd146101ed575b600080fd5b34801561015157600080fd5b50610172610160366004610cd9565b60096020526000908152604090205481565b6040519081526020015b60405180910390f35b34801561019157600080fd5b5061019a610429565b60405161017c9190610cfb565b3480156101b357600080fd5b506101c76101c2366004610d49565b6104bb565b604051901515815260200161017c565b3480156101e357600080fd5b5061017260075481565b3480156101f957600080fd5b50600254610172565b34801561020e57600080fd5b506101c761021d366004610d73565b6104d5565b34801561022e57600080fd5b5061024261023d366004610daf565b6104f9565b005b34801561025057600080fd5b506040516012815260200161017c565b34801561026c57600080fd5b50610172610629565b34801561028157600080fd5b50610172610290366004610cd9565b610639565b610242610686565b3480156102a957600080fd5b506101726102b8366004610cd9565b6001600160a01b031660009081526020819052604090205490565b3480156102df57600080fd5b50610242610743565b3480156102f457600080fd5b5061017260065481565b34801561030a57600080fd5b506005546040516001600160a01b03909116815260200161017c565b34801561033257600080fd5b5061019a610757565b34801561034757600080fd5b506101c7610356366004610d49565b610766565b34801561036757600080fd5b5047610172565b34801561037a57600080fd5b50610172610389366004610cd9565b610774565b610242610792565b3480156103a257600080fd5b506101726103b1366004610dc8565b6001600160a01b03918216600090815260016020908152604080832093909416825291909152205490565b3480156103e857600080fd5b506102426103f7366004610cd9565b6108a1565b34801561040857600080fd5b50610172610417366004610cd9565b60086020526000908152604090205481565b60606003805461043890610dfb565b80601f016020809104026020016040519081016040528092919081815260200182805461046490610dfb565b80156104b15780601f10610486576101008083540402835291602001916104b1565b820191906000526020600020905b81548152906001019060200180831161049457829003601f168201915b5050505050905090565b6000336104c98185856108df565b60019150505b92915050565b6000336104e38582856108f1565b6104ee858585610970565b506001949350505050565b336000908152602081905260409020548111156105535760405162461bcd60e51b8152602060048201526013602482015272496e73756666696369656e742073686172657360681b60448201526064015b60405180910390fd5b600061055e60025490565b60065461056b9084610e4b565b6105759190610e62565b33600090815260086020526040812080549293508392909190610599908490610e84565b9250508190555080600660008282546105b29190610e84565b909155506105c2905033836109cf565b604051339082156108fc029083906000818181858888f193505050501580156105ef573d6000803e3d6000fd5b5060405181815233907f7084f5476618d8e60b11ef0d7d3f06914655adb8793e28ff7f018d4c76d505d59060200160405180910390a25050565b600061063460025490565b905090565b600061064460025490565b60000361065357506000919050565b6002546006546001600160a01b03841660009081526020819052604090205461067c9190610e4b565b6104cf9190610e62565b61068e610a09565b600034116106de5760405162461bcd60e51b815260206004820152601860248201527f4e6f207265776172647320746f20646973747269627574650000000000000000604482015260640161054a565b34600760008282546106f09190610e97565b9250508190555034600660008282546107099190610e97565b90915550506040513481527f6d1c76d614228b523baa4dcd9539e2c713b54ff4ab3ff2d1627e7f6cd32be4429060200160405180910390a1565b61074b610a09565b6107556000610a36565b565b60606004805461043890610dfb565b6000336104c9818585610970565b6001600160a01b0381166000908152602081905260408120546104cf565b600034116107db5760405162461bcd60e51b81526020600482015260166024820152754d757374206465706f73697420736f6d657468696e6760501b604482015260640161054a565b60006107e660025490565b1561080a576006546002546107fb9034610e4b565b6108059190610e62565b61080c565b345b33600090815260086020526040812080549293503492909190610830908490610e97565b909155505033600090815260096020526040812042905560068054349290610859908490610e97565b9091555061086990503382610a88565b60405134815233907f2da466a7b24304f47e87fa2e1e5a81b9831ce54fec19055ce277ca2f39ba42c49060200160405180910390a250565b6108a9610a09565b6001600160a01b0381166108d357604051631e4fbdf760e01b81526000600482015260240161054a565b6108dc81610a36565b50565b6108ec8383836001610abe565b505050565b6001600160a01b0383811660009081526001602090815260408083209386168352929052205460001981101561096a578181101561095b57604051637dc7a0d960e11b81526001600160a01b0384166004820152602481018290526044810183905260640161054a565b61096a84848484036000610abe565b50505050565b6001600160a01b03831661099a57604051634b637e8f60e11b81526000600482015260240161054a565b6001600160a01b0382166109c45760405163ec442f0560e01b81526000600482015260240161054a565b6108ec838383610b93565b6001600160a01b0382166109f957604051634b637e8f60e11b81526000600482015260240161054a565b610a0582600083610b93565b5050565b6005546001600160a01b031633146107555760405163118cdaa760e01b815233600482015260240161054a565b600580546001600160a01b038381166001600160a01b0319831681179093556040519116919082907f8be0079c531659141344cd1fd0a4f28419497f9722a3daafe3b4186f6b6457e090600090a35050565b6001600160a01b038216610ab25760405163ec442f0560e01b81526000600482015260240161054a565b610a0560008383610b93565b6001600160a01b038416610ae85760405163e602df0560e01b81526000600482015260240161054a565b6001600160a01b038316610b1257604051634a1406b160e11b81526000600482015260240161054a565b6001600160a01b038085166000908152600160209081526040808320938716835292905220829055801561096a57826001600160a01b0316846001600160a01b03167f8c5be1e5ebec7d5bd14f71427d1e84f3dd0314c0f7b2291e5b200ac8c7c3b92584604051610b8591815260200190565b60405180910390a350505050565b6001600160a01b038316610bbe578060026000828254610bb39190610e97565b90915550610c309050565b6001600160a01b03831660009081526020819052604090205481811015610c115760405163391434e360e21b81526001600160a01b0385166004820152602481018290526044810183905260640161054a565b6001600160a01b03841660009081526020819052604090209082900390555b6001600160a01b038216610c4c57600280548290039055610c6b565b6001600160a01b03821660009081526020819052604090208054820190555b816001600160a01b0316836001600160a01b03167fddf252ad1be2c89b69c2b068fc378daa952ba7f163c4a11628f55a4df523b3ef83604051610cb091815260200190565b60405180910390a3505050565b80356001600160a01b0381168114610cd457600080fd5b919050565b600060208284031215610ceb57600080fd5b610cf482610cbd565b9392505050565b600060208083528351808285015260005b81811015610d2857858101830151858201604001528201610d0c565b506000604082860101526040601f19601f8301168501019250505092915050565b60008060408385031215610d5c57600080fd5b610d6583610cbd565b946020939093013593505050565b600080600060608486031215610d8857600080fd5b610d9184610cbd565b9250610d9f60208501610cbd565b9150604084013590509250925092565b600060208284031215610dc157600080fd5b5035919050565b60008060408385031215610ddb57600080fd5b610de483610cbd565b9150610df260208401610cbd565b90509250929050565b600181811c90821680610e0f57607f821691505b602082108103610e2f57634e487b7160e01b600052602260045260246000fd5b50919050565b634e487b7160e01b600052601160045260246000fd5b80820281158282048414176104cf576104cf610e35565b600082610e7f57634e487b7160e01b600052601260045260246000fd5b500490565b818103818111156104cf576104cf610e35565b808201808211156104cf576104cf610e3556fea2646970667358221220a78f52fc966fded43c4c20ba1035b4a5cb0fa00f3962d62678a933ed0110ca4364736f6c63430008140033",
  "linkReferences": {},
  "deployedLinkReferences": {}
}