{
  "_format": "hh-sol-artifact-1",
  "contractName": "LiquidityPool",
  "sourceName": "contracts/LiquidityPool.sol",
  "abi": [
    {
      "inputs": [],
      "stateMutability": "nonpayable",
      "type": "constructor"
    },
    {
      "inputs": [
        {
          "internalType": "address",
          "name": "spender",
          "type": "address"
        },
        {
          "internalType": "uint256",
          "name": "allowance",
          "type": "uint256"
        },
        {
          "internalType": "uint256",
          "name": "needed",
          "type": "uint256"
        }
      ],
      "name": "ERC20InsufficientAllowance",
      "type": "error"
    },
    {
      "inputs": [
        {
          "internalType": "address",
          "name": "sender",
          "type": "address"
        },
        {
          "internalType": "uint256",
          "name": "balance",
          "type": "uint256"
        },
        {
          "internalType": "uint256",
          "name": "needed",
          "type": "uint256"
        }
      ],
      "name": "ERC20InsufficientBalance",
      "type": "error"
    },
    {
      "inputs": [
        {
          "internalType": "address",
          "name": "approver",
          "type": "address"
        }
      ],
      "name": "ERC20InvalidApprover",
      "type": "error"
    },
    {
      "inputs": [
        {
          "internalType": "address",
          "name": "receiver",
          "type": "address"
        }
      ],
      "name": "ERC20InvalidReceiver",
      "type": "error"
    },
    {
      "inputs": [
        {
          "internalType": "address",
          "name": "sender",
          "type": "address"
        }
      ],
      "name": "ERC20InvalidSender",
      "type": "error"
    },
    {
      "inputs": [
        {
          "internalType": "address",
          "name": "spender",
          "type": "address"
        }
      ],
      "name": "ERC20InvalidSpender",
      "type": "error"
    },
    {
      "inputs": [
        {
          "internalType": "address",
          "name": "owner",
          "type": "address"
        }
      ],
      "name": "OwnableInvalidOwner",
      "type": "error"
    },
    {
      "inputs": [
        {
          "internalType": "address",
          "name": "account",
          "type": "address"
        }
      ],
      "name": "OwnableUnauthorizedAccount",
      "type": "error"
    },
    {
      "anonymous": false,
      "inputs": [
        {
          "indexed": true,
          "internalType": "address",
          "name": "owner",
          "type": "address"
        },
        {
          "indexed": true,
          "internalType": "address",
          "name": "spender",
          "type": "address"
        },
        {
          "indexed": false,
          "internalType": "uint256",
          "name": "value",
          "type": "uint256"
        }
      ],
      "name": "Approval",
      "type": "event"
    },
    {
      "anonymous": false,
      "inputs": [
        {
          "indexed": true,
          "internalType": "address",
          "name": "user",
          "type": "address"
        },
        {
          "indexed": false,
          "internalType": "uint256",
          "name": "amount",
          "type": "uint256"
        }
      ],
      "name": "Deposited",
      "type": "event"
    },
    {
      "anonymous": false,
      "inputs": [
        {
          "indexed": true,
          "internalType": "address",
          "name": "previousOwner",
          "type": "address"
        },
        {
          "indexed": true,
          "internalType": "address",
          "name": "newOwner",
          "type": "address"
        }
      ],
      "name": "OwnershipTransferred",
      "type": "event"
    },
    {
      "anonymous": false,
      "inputs": [
        {
          "indexed": false,
          "internalType": "uint256",
          "name": "amount",
          "type": "uint256"
        }
      ],
      "name": "RewardsDistributed",
      "type": "event"
    },
    {
      "anonymous": false,
      "inputs": [
        {
          "indexed": true,
          "internalType": "address",
          "name": "from",
          "type": "address"
        },
        {
          "indexed": true,
          "internalType": "address",
          "name": "to",
          "type": "address"
        },
        {
          "indexed": false,
          "internalType": "uint256",
          "name": "value",
          "type": "uint256"
        }
      ],
      "name": "Transfer",
      "type": "event"
    },
    {
      "anonymous": false,
      "inputs": [
        {
          "indexed": true,
          "internalType": "address",
          "name": "user",
          "type": "address"
        },
        {
          "indexed": false,
          "internalType": "uint256",
          "name": "amount",
          "type": "uint256"
        }
      ],
      "name": "Withdrawn",
      "type": "event"
    },
    {
      "inputs": [
        {
          "internalType": "address",
          "name": "owner",
          "type": "address"
        },
        {
          "internalType": "address",
          "name": "spender",
          "type": "address"
        }
      ],
      "name": "allowance",
      "outputs": [
        {
          "internalType": "uint256",
          "name": "",
          "type": "uint256"
        }
      ],
      "stateMutability": "view",
      "type": "function"
    },
    {
      "inputs": [
        {
          "internalType": "address",
          "name": "spender",
          "type": "address"
        },
        {
          "internalType": "uint256",
          "name": "value",
          "type": "uint256"
        }
      ],
      "name": "approve",
      "outputs": [
        {
          "internalType": "bool",
          "name": "",
          "type": "bool"
        }
      ],
      "stateMutability": "nonpayable",
      "type": "function"
    },
    {
      "inputs": [
        {
          "internalType": "address",
          "name": "account",
          "type": "address"
        }
      ],
      "name": "balanceOf",
      "outputs": [
        {
          "internalType": "uint256",
          "name": "",
          "type": "uint256"
        }
      ],
      "stateMutability": "view",
      "type": "function"
    },
    {
      "inputs": [],
      "name": "decimals",
      "outputs": [
        {
          "internalType": "uint8",
          "name": "",
          "type": "uint8"
        }
      ],
      "stateMutability": "view",
      "type": "function"
    },
    {
      "inputs": [],
      "name": "deposit",
      "outputs": [],
      "stateMutability": "payable",
      "type": "function"
    },
    {
      "inputs": [
        {
          "internalType": "address",
          "name": "",
          "type": "address"
        }
      ],
      "name": "deposits",
      "outputs": [
        {
          "internalType": "uint256",
          "name": "",
          "type": "uint256"
        }
      ],
      "stateMutability": "view",
      "type": "function"
    },
    {
      "inputs": [],
      "name": "distributeRewards",
      "outputs": [],
      "stateMutability": "payable",
      "type": "function"
    },
    {
      "inputs": [],
      "name": "getPoolBalance",
      "outputs": [
        {
          "internalType": "uint256",
          "name": "",
          "type": "uint256"
        }
      ],
      "stateMutability": "view",
      "type": "function"
    },
    {
      "inputs": [
        {
          "internalType": "address",
          "name": "user",
          "type": "address"
        }
      ],
      "name": "getUserShares",
      "outputs": [
        {
          "internalType": "uint256",
          "name": "",
          "type": "uint256"
        }
      ],
      "stateMutability": "view",
      "type": "function"
    },
    {
      "inputs": [
        {
          "internalType": "address",
          "name": "",
          "type": "address"
        }
      ],
      "name": "lastDepositTime",
      "outputs": [
        {
          "internalType": "uint256",
          "name": "",
          "type": "uint256"
        }
      ],
      "stateMutability": "view",
      "type": "function"
    },
    {
      "inputs": [],
      "name": "name",
      "outputs": [
        {
          "internalType": "string",
          "name": "",
          "type": "string"
        }
      ],
      "stateMutability": "view",
      "type": "function"
    },
    {
      "inputs": [],
      "name": "owner",
      "outputs": [
        {
          "internalType": "address",
          "name": "",
          "type": "address"
        }
      ],
      "stateMutability": "view",
      "type": "function"
    },
    {
      "inputs": [],
      "name": "renounceOwnership",
      "outputs": [],
      "stateMutability": "nonpayable",
      "type": "function"
    },
    {
      "inputs": [],
      "name": "symbol",
      "outputs": [
        {
          "internalType": "string",
          "name": "",
          "type": "string"
        }
      ],
      "stateMutability": "view",
      "type": "function"
    },
    {
      "inputs": [],
      "name": "totalDeposits",
      "outputs": [
        {
          "internalType": "uint256",
          "name": "",
          "type": "uint256"
        }
      ],
      "stateMutability": "view",
      "type": "function"
    },
    {
      "inputs": [],
      "name": "totalRewards",
      "outputs": [
        {
          "internalType": "uint256",
          "name": "",
          "type": "uint256"
        }
      ],
      "stateMutability": "view",
      "type": "function"
    },
    {
      "inputs": [],
      "name": "totalSupply",
      "outputs": [
        {
          "internalType": "uint256",
          "name": "",
          "type": "uint256"
        }
      ],
      "stateMutability": "view",
      "type": "function"
    },
    {
      "inputs": [
        {
          "internalType": "address",
          "name": "to",
          "type": "address"
        },
        {
          "internalType": "uint256",
          "name": "value",
          "type": "uint256"
        }
      ],
      "name": "transfer",
      "outputs": [
        {
          "internalType": "bool",
          "name": "",
          "type": "bool"
        }
      ],
      "stateMutability": "nonpayable",
      "type": "function"
    },
    {
      "inputs": [
        {
          "internalType": "address",
          "name": "from",
          "type": "address"
        },
        {
          "internalType": "address",
          "name": "to",
          "type": "address"
        },
        {
          "internalType": "uint256",
          "name": "value",
          "type": "uint256"
        }
      ],
      "name": "transferFrom",
      "outputs": [
        {
          "internalType": "bool",
          "name": "",
          "type": "bool"
        }
      ],
      "stateMutability": "nonpayable",
      "type": "function"
    },
    {
      "inputs": [
        {
          "internalType": "address",
          "name": "newOwner",
          "type": "address"
        }
      ],
      "name": "transferOwnership",
      "outputs": [],
      "stateMutability": "nonpayable",
      "type": "function"
    },
    {
      "inputs": [
        {
          "internalType": "uint256",
          "name": "shares",
          "type": "uint256"
        }
      ],
      "name": "withdraw",
      "outputs": [],
      "stateMutability": "nonpayable",
      "type": "function"
    }
  ],
  "bytecode": "0x60806040523480156200001157600080fd5b50336040518060400160405280601381526020017f5072616573696469756d204c5020546f6b656e000000000000000000000000008152506040518060400160405280600381526020017f704c500000000000000000000000000000000000000000000000000000000000815250816003908162000090919062000472565b508060049081620000a2919062000472565b505050600073ffffffffffffffffffffffffffffffffffffffff168173ffffffffffffffffffffffffffffffffffffffff16036200011a5760006040517f1e4fbdf70000000000000000000000000000000000000000000000000000000081526004016200011191906200059e565b60405180910390fd5b6200012b816200013260201b60201c565b50620005bb565b6000600560009054906101000a900473ffffffffffffffffffffffffffffffffffffffff16905081600560006101000a81548173ffffffffffffffffffffffffffffffffffffffff021916908373ffffffffffffffffffffffffffffffffffffffff1602179055508173ffffffffffffffffffffffffffffffffffffffff168173ffffffffffffffffffffffffffffffffffffffff167f8be0079c531659141344cd1fd0a4f28419497f9722a3daafe3b4186f6b6457e060405160405180910390a35050565b600081519050919050565b7f4e487b7100000000000000000000000000000000000000000000000000000000600052604160045260246000fd5b7f4e487b7100000000000000000000000000000000000000000000000000000000600052602260045260246000fd5b600060028204905060018216806200027a57607f821691505b60208210810362000290576200028f62000232565b5b50919050565b60008190508160005260206000209050919050565b60006020601f8301049050919050565b600082821b905092915050565b600060088302620002fa7fffffffffffffffffffffffffffffffffffffffffffffffffffffffffffffffff82620002bb565b620003068683620002bb565b95508019841693508086168417925050509392505050565b6000819050919050565b6000819050919050565b6000620003536200034d62000347846200031e565b62000328565b6200031e565b9050919050565b6000819050919050565b6200036f8362000332565b620003876200037e826200035a565b848454620002c8565b825550505050565b600090565b6200039e6200038f565b620003ab81848462000364565b505050565b5b81811015620003d357620003c760008262000394565b600181019050620003b1565b5050565b601f8211156200042257620003ec8162000296565b620003f784620002ab565b8101602085101562000407578190505b6200041f6200041685620002ab565b830182620003b0565b50505b505050565b600082821c905092915050565b6000620004476000198460080262000427565b1980831691505092915050565b600062000462838362000434565b9150826002028217905092915050565b6200047d82620001f8565b67ffffffffffffffff81111562000499576200049862000203565b5b620004a5825462000261565b620004b2828285620003d7565b600060209050601f831160018114620004ea5760008415620004d5578287015190505b620004e1858262000454565b86555062000551565b601f198416620004fa8662000296565b60005b828110156200052457848901518255600182019150602085019450602081019050620004fd565b8683101562000544578489015162000540601f89168262000434565b8355505b6001600288020188555050505b505050505050565b600073ffffffffffffffffffffffffffffffffffffffff82169050919050565b6000620005868262000559565b9050919050565b620005988162000579565b82525050565b6000602082019050620005b560008301846200058d565b92915050565b611ab580620005cb6000396000f3fe60806040526004361061012a5760003560e01c8063715018a6116100ab578063abd70aa21161006f578063abd70aa2146103d7578063ba0cb22b14610402578063d0e30db01461043f578063dd62ed3e14610449578063f2fde38b14610486578063fc7e286d146104af5761012a565b8063715018a6146103025780637d882097146103195780638da5cb5b1461034457806395d89b411461036f578063a9059cbb1461039a5761012a565b806323b872dd116100f257806323b872dd1461022a5780632e1a7d4d14610267578063313ce567146102905780636f4a2cd0146102bb57806370a08231146102c55761012a565b8063025277531461012f57806306fdde031461016c578063095ea7b3146101975780630e15561a146101d457806318160ddd146101ff575b600080fd5b34801561013b57600080fd5b5061015660048036038101906101519190611495565b6104ec565b60405161016391906114db565b60405180910390f35b34801561017857600080fd5b50610181610504565b60405161018e9190611586565b60405180910390f35b3480156101a357600080fd5b506101be60048036038101906101b991906115d4565b610596565b6040516101cb919061162f565b60405180910390f35b3480156101e057600080fd5b506101e96105b9565b6040516101f691906114db565b60405180910390f35b34801561020b57600080fd5b506102146105bf565b60405161022191906114db565b60405180910390f35b34801561023657600080fd5b50610251600480360381019061024c919061164a565b6105c9565b60405161025e919061162f565b60405180910390f35b34801561027357600080fd5b5061028e6004803603810190610289919061169d565b6105f8565b005b34801561029c57600080fd5b506102a5610779565b6040516102b291906116e6565b60405180910390f35b6102c3610782565b005b3480156102d157600080fd5b506102ec60048036038101906102e79190611495565b610838565b6040516102f991906114db565b60405180910390f35b34801561030e57600080fd5b50610317610880565b005b34801561032557600080fd5b5061032e610894565b60405161033b91906114db565b60405180910390f35b34801561035057600080fd5b5061035961089a565b6040516103669190611710565b60405180910390f35b34801561037b57600080fd5b506103846108c4565b6040516103919190611586565b60405180910390f35b3480156103a657600080fd5b506103c160048036038101906103bc91906115d4565b610956565b6040516103ce919061162f565b60405180910390f35b3480156103e357600080fd5b506103ec610979565b6040516103f991906114db565b60405180910390f35b34801561040e57600080fd5b5061042960048036038101906104249190611495565b610981565b60405161043691906114db565b60405180910390f35b610447610993565b005b34801561045557600080fd5b50610470600480360381019061046b919061172b565b610b1d565b60405161047d91906114db565b60405180910390f35b34801561049257600080fd5b506104ad60048036038101906104a89190611495565b610ba4565b005b3480156104bb57600080fd5b506104d660048036038101906104d19190611495565b610c2a565b6040516104e391906114db565b60405180910390f35b60096020528060005260406000206000915090505481565b6060600380546105139061179a565b80601f016020809104026020016040519081016040528092919081815260200182805461053f9061179a565b801561058c5780601f106105615761010080835404028352916020019161058c565b820191906000526020600020905b81548152906001019060200180831161056f57829003601f168201915b5050505050905090565b6000806105a1610c42565b90506105ae818585610c4a565b600191505092915050565b60075481565b6000600254905090565b6000806105d4610c42565b90506105e1858285610c5c565b6105ec858585610cf1565b60019150509392505050565b8061060233610838565b1015610643576040517f08c379a000000000000000000000000000000000000000000000000000000000815260040161063a90611817565b60405180910390fd5b600061064d6105bf565b6006548361065b9190611866565b61066591906118d7565b905080600860003373ffffffffffffffffffffffffffffffffffffffff1673ffffffffffffffffffffffffffffffffffffffff16815260200190815260200160002060008282546106b69190611908565b9250508190555080600660008282546106cf9190611908565b925050819055506106e03383610de5565b3373ffffffffffffffffffffffffffffffffffffffff166108fc829081150290604051600060405180830381858888f19350505050158015610726573d6000803e3d6000fd5b503373ffffffffffffffffffffffffffffffffffffffff167f7084f5476618d8e60b11ef0d7d3f06914655adb8793e28ff7f018d4c76d505d58260405161076d91906114db565b60405180910390a25050565b60006012905090565b61078a610e67565b600034116107cd576040517f08c379a00000000000000000000000000000000000000000000000000000000081526004016107c490611988565b60405180910390fd5b34600760008282546107df91906119a8565b9250508190555034600660008282546107f891906119a8565b925050819055507f6d1c76d614228b523baa4dcd9539e2c713b54ff4ab3ff2d1627e7f6cd32be4423460405161082e91906114db565b60405180910390a1565b60008060008373ffffffffffffffffffffffffffffffffffffffff1673ffffffffffffffffffffffffffffffffffffffff168152602001908152602001600020549050919050565b610888610e67565b6108926000610eee565b565b60065481565b6000600560009054906101000a900473ffffffffffffffffffffffffffffffffffffffff16905090565b6060600480546108d39061179a565b80601f01602080910402602001604051908101604052809291908181526020018280546108ff9061179a565b801561094c5780601f106109215761010080835404028352916020019161094c565b820191906000526020600020905b81548152906001019060200180831161092f57829003601f168201915b5050505050905090565b600080610961610c42565b905061096e818585610cf1565b600191505092915050565b600047905090565b600061098c82610838565b9050919050565b600034116109d6576040517f08c379a00000000000000000000000000000000000000000000000000000000081526004016109cd90611a28565b60405180910390fd5b6000806109e16105bf565b14610a0b576006546109f16105bf565b346109fc9190611866565b610a0691906118d7565b610a0d565b345b905034600860003373ffffffffffffffffffffffffffffffffffffffff1673ffffffffffffffffffffffffffffffffffffffff1681526020019081526020016000206000828254610a5e91906119a8565b9250508190555042600960003373ffffffffffffffffffffffffffffffffffffffff1673ffffffffffffffffffffffffffffffffffffffff168152602001908152602001600020819055503460066000828254610abb91906119a8565b92505081905550610acc3382610fb4565b3373ffffffffffffffffffffffffffffffffffffffff167f2da466a7b24304f47e87fa2e1e5a81b9831ce54fec19055ce277ca2f39ba42c434604051610b1291906114db565b60405180910390a250565b6000600160008473ffffffffffffffffffffffffffffffffffffffff1673ffffffffffffffffffffffffffffffffffffffff16815260200190815260200160002060008373ffffffffffffffffffffffffffffffffffffffff1673ffffffffffffffffffffffffffffffffffffffff16815260200190815260200160002054905092915050565b610bac610e67565b600073ffffffffffffffffffffffffffffffffffffffff168173ffffffffffffffffffffffffffffffffffffffff1603610c1e5760006040517f1e4fbdf7000000000000000000000000000000000000000000000000000000008152600401610c159190611710565b60405180910390fd5b610c2781610eee565b50565b60086020528060005260406000206000915090505481565b600033905090565b610c578383836001611036565b505050565b6000610c688484610b1d565b90507fffffffffffffffffffffffffffffffffffffffffffffffffffffffffffffffff811015610ceb5781811015610cdb578281836040517ffb8f41b2000000000000000000000000000000000000000000000000000000008152600401610cd293929190611a48565b60405180910390fd5b610cea84848484036000611036565b5b50505050565b600073ffffffffffffffffffffffffffffffffffffffff168373ffffffffffffffffffffffffffffffffffffffff1603610d635760006040517f96c6fd1e000000000000000000000000000000000000000000000000000000008152600401610d5a9190611710565b60405180910390fd5b600073ffffffffffffffffffffffffffffffffffffffff168273ffffffffffffffffffffffffffffffffffffffff1603610dd55760006040517fec442f05000000000000000000000000000000000000000000000000000000008152600401610dcc9190611710565b60405180910390fd5b610de083838361120d565b505050565b600073ffffffffffffffffffffffffffffffffffffffff168273ffffffffffffffffffffffffffffffffffffffff1603610e575760006040517f96c6fd1e000000000000000000000000000000000000000000000000000000008152600401610e4e9190611710565b60405180910390fd5b610e638260008361120d565b5050565b610e6f610c42565b73ffffffffffffffffffffffffffffffffffffffff16610e8d61089a565b73ffffffffffffffffffffffffffffffffffffffff1614610eec57610eb0610c42565b6040517f118cdaa7000000000000000000000000000000000000000000000000000000008152600401610ee39190611710565b60405180910390fd5b565b6000600560009054906101000a900473ffffffffffffffffffffffffffffffffffffffff16905081600560006101000a81548173ffffffffffffffffffffffffffffffffffffffff021916908373ffffffffffffffffffffffffffffffffffffffff1602179055508173ffffffffffffffffffffffffffffffffffffffff168173ffffffffffffffffffffffffffffffffffffffff167f8be0079c531659141344cd1fd0a4f28419497f9722a3daafe3b4186f6b6457e060405160405180910390a35050565b600073ffffffffffffffffffffffffffffffffffffffff168273ffffffffffffffffffffffffffffffffffffffff16036110265760006040517fec442f0500000000000000000000000000000000000000000000000000000000815260040161101d9190611710565b60405180910390fd5b6110326000838361120d565b5050565b600073ffffffffffffffffffffffffffffffffffffffff168473ffffffffffffffffffffffffffffffffffffffff16036110a85760006040517fe602df0500000000000000000000000000000000000000000000000000000000815260040161109f9190611710565b60405180910390fd5b600073ffffffffffffffffffffffffffffffffffffffff168373ffffffffffffffffffffffffffffffffffffffff160361111a5760006040517f94280d620000000000000000000000000000000000000000000000000000000081526004016111119190611710565b60405180910390fd5b81600160008673ffffffffffffffffffffffffffffffffffffffff1673ffffffffffffffffffffffffffffffffffffffff16815260200190815260200160002060008573ffffffffffffffffffffffffffffffffffffffff1673ffffffffffffffffffffffffffffffffffffffff168152602001908152602001600020819055508015611207578273ffffffffffffffffffffffffffffffffffffffff168473ffffffffffffffffffffffffffffffffffffffff167f8c5be1e5ebec7d5bd14f71427d1e84f3dd0314c0f7b2291e5b200ac8c7c3b925846040516111fe91906114db565b60405180910390a35b50505050565b600073ffffffffffffffffffffffffffffffffffffffff168373ffffffffffffffffffffffffffffffffffffffff160361125f57806002600082825461125391906119a8565b92505081905550611332565b60008060008573ffffffffffffffffffffffffffffffffffffffff1673ffffffffffffffffffffffffffffffffffffffff168152602001908152602001600020549050818110156112eb578381836040517fe450d38c0000000000000000000000000000000000000000000000000000000081526004016112e293929190611a48565b60405180910390fd5b8181036000808673ffffffffffffffffffffffffffffffffffffffff1673ffffffffffffffffffffffffffffffffffffffff16815260200190815260200160002081905550505b600073ffffffffffffffffffffffffffffffffffffffff168273ffffffffffffffffffffffffffffffffffffffff160361137b57806002600082825403925050819055506113c8565b806000808473ffffffffffffffffffffffffffffffffffffffff1673ffffffffffffffffffffffffffffffffffffffff168152602001908152602001600020600082825401925050819055505b8173ffffffffffffffffffffffffffffffffffffffff168373ffffffffffffffffffffffffffffffffffffffff167fddf252ad1be2c89b69c2b068fc378daa952ba7f163c4a11628f55a4df523b3ef8360405161142591906114db565b60405180910390a3505050565b600080fd5b600073ffffffffffffffffffffffffffffffffffffffff82169050919050565b600061146282611437565b9050919050565b61147281611457565b811461147d57600080fd5b50565b60008135905061148f81611469565b92915050565b6000602082840312156114ab576114aa611432565b5b60006114b984828501611480565b91505092915050565b6000819050919050565b6114d5816114c2565b82525050565b60006020820190506114f060008301846114cc565b92915050565b600081519050919050565b600082825260208201905092915050565b60005b83811015611530578082015181840152602081019050611515565b60008484015250505050565b6000601f19601f8301169050919050565b6000611558826114f6565b6115628185611501565b9350611572818560208601611512565b61157b8161153c565b840191505092915050565b600060208201905081810360008301526115a0818461154d565b905092915050565b6115b1816114c2565b81146115bc57600080fd5b50565b6000813590506115ce816115a8565b92915050565b600080604083850312156115eb576115ea611432565b5b60006115f985828601611480565b925050602061160a858286016115bf565b9150509250929050565b60008115159050919050565b61162981611614565b82525050565b60006020820190506116446000830184611620565b92915050565b60008060006060848603121561166357611662611432565b5b600061167186828701611480565b935050602061168286828701611480565b9250506040611693868287016115bf565b9150509250925092565b6000602082840312156116b3576116b2611432565b5b60006116c1848285016115bf565b91505092915050565b600060ff82169050919050565b6116e0816116ca565b82525050565b60006020820190506116fb60008301846116d7565b92915050565b61170a81611457565b82525050565b60006020820190506117256000830184611701565b92915050565b6000806040838503121561174257611741611432565b5b600061175085828601611480565b925050602061176185828601611480565b9150509250929050565b7f4e487b7100000000000000000000000000000000000000000000000000000000600052602260045260246000fd5b600060028204905060018216806117b257607f821691505b6020821081036117c5576117c461176b565b5b50919050565b7f496e73756666696369656e742073686172657300000000000000000000000000600082015250565b6000611801601383611501565b915061180c826117cb565b602082019050919050565b60006020820190508181036000830152611830816117f4565b9050919050565b7f4e487b7100000000000000000000000000000000000000000000000000000000600052601160045260246000fd5b6000611871826114c2565b915061187c836114c2565b925082820261188a816114c2565b915082820484148315176118a1576118a0611837565b5b5092915050565b7f4e487b7100000000000000000000000000000000000000000000000000000000600052601260045260246000fd5b60006118e2826114c2565b91506118ed836114c2565b9250826118fd576118fc6118a8565b5b828204905092915050565b6000611913826114c2565b915061191e836114c2565b925082820390508181111561193657611935611837565b5b92915050565b7f4e6f207265776172647320746f20646973747269627574650000000000000000600082015250565b6000611972601883611501565b915061197d8261193c565b602082019050919050565b600060208201905081810360008301526119a181611965565b9050919050565b60006119b3826114c2565b91506119be836114c2565b92508282019050808211156119d6576119d5611837565b5b92915050565b7f4d757374206465706f73697420736f6d657468696e6700000000000000000000600082015250565b6000611a12601683611501565b9150611a1d826119dc565b602082019050919050565b60006020820190508181036000830152611a4181611a05565b9050919050565b6000606082019050611a5d6000830186611701565b611a6a60208301856114cc565b611a7760408301846114cc565b94935050505056fea264697066735822122043a6e40aeb7cfe08f4874fe625e244c037c430adda3b13489106047826b7db9264736f6c63430008140033",
  "linkReferences": {},
  "deployedLinkReferences": {}
}