{"contracts/RiskOracle.sol":{"RiskOracle":{"abi":[{"inputs":[],"stateMutability":"nonpayable","type":"constructor"},{"anonymous":false,"inputs":[{"indexed":false,"internalType":"string","name":"protocol","type":"string"},{"indexed":false,"internalType":"uint256","name":"rate","type":"uint256"}],"name":"PremiumRateUpdated","type":"event"},{"anonymous":false,"inputs":[{"indexed":false,"internalType":"string","name":"protocol","type":"string"},{"indexed":false,"internalType":"uint256","name":"score","type":"uint256"}],"name":"RiskScoreUpdated","type":"event"},{"inputs":[{"internalType":"uint256","name":"coverage","type":"uint256"},{"internalType":"string","name":"protocol","type":"string"}],"name":"calculatePremium","outputs":[{"internalType":"uint256","name":"","type":"uint256"}],"stateMutability":"view","type":"function"},{"inputs":[{"internalType":"string","name":"protocol","type":"string"}],"name":"getPremiumRate","outputs":[{"internalType":"uint256","name":"","type":"uint256"}],"stateMutability":"view","type":"function"},{"inputs":[{"internalType":"string","name":"protocol","type":"string"}],"name":"getRiskScore","outputs":[{"internalType":"uint256","name":"","type":"uint256"}],"stateMutability":"view","type":"function"},{"inputs":[],"name":"owner","outputs":[{"internalType":"address","name":"","type":"address"}],"stateMutability":"view","type":"function"},{"inputs":[{"internalType":"string","name":"","type":"string"}],"name":"premiumRates","outputs":[{"internalType":"uint256","name":"","type":"uint256"}],"stateMutability":"view","type":"function"},{"inputs":[{"internalType":"string","name":"","type":"string"}],"name":"riskScores","outputs":[{"internalType":"uint256","name":"","type":"uint256"}],"stateMutability":"view","type":"function"},{"inputs":[{"internalType":"string","name":"protocol","type":"string"},{"internalType":"uint256","name":"score","type":"uint256"}],"name":"updateRiskScore","outputs":[],"stateMutability":"nonpayable","type":"function"}],"evm":{"bytecode":{"linkReferences":{},"object":"608060405234801561001057600080fd5b50600280546001600160a01b0319163317905560405160589060009061004090634161766560e01b815260040190565b908152604051908190036020018120919091556710dbdb5c1bdd5b9960c21b8152605590600090600801908152604051908190036020018120919091556c43757276652046696e616e636560981b8152604890600090600d0190815260405190819003602001812091909155660556e69737761760cc1b8152605c90600090600701908152604051908190036020018120919091556805375736869537761760bc1b8152604190600090600901908152604051908190036020018120919091556a2130b630b731b2b9102b1960a91b8152604e90600090600b0190815260405190819003602001812091909155634161766560e01b8152607890600190600401908152604051908190036020018120919091556710dbdb5c1bdd5b9960c21b8152609690600190600801908152604051908190036020018120919091556c43757276652046696e616e636560981b815261011890600190600d0190815260405190819003602001812091909155660556e69737761760cc1b8152606e90600190600701908152604051908190036020018120919091556805375736869537761760bc1b815261015e90600190600901908152604051908190036020018120919091556a2130b630b731b2b9102b1960a91b815260dc90600190600b01908152604051908190036020019020556105d68061023b6000396000f3fe608060405234801561001057600080fd5b506004361061007d5760003560e01c806363758a651161005b57806363758a65146100e65780638da5cb5b146100fb578063ad4fe4be14610126578063dc8f53b21461015157600080fd5b80631237e90214610082578063190bd05b146100a85780633872afc8146100d3575b600080fd5b61009561009036600461041d565b610164565b6040519081526020015b60405180910390f35b6100956100b6366004610464565b805160208183018101805160018252928201919093012091525481565b6100956100e1366004610464565b6101aa565b6100f96100f4366004610499565b6101d2565b005b60025461010e906001600160a01b031681565b6040516001600160a01b03909116815260200161009f565b610095610134366004610464565b805160208183018101805160008252928201919093012091525481565b61009561015f366004610464565b610369565b6000806001836040516101779190610502565b908152604051908190036020019020549050612710610196828661051e565b6101a09190610543565b9150505b92915050565b60006001826040516101bc9190610502565b9081526020016040518091039020549050919050565b6002546001600160a01b0316331461021e5760405162461bcd60e51b815260206004820152600a60248201526927b7363c9037bbb732b960b11b60448201526064015b60405180910390fd5b60648111156102665760405162461bcd60e51b8152602060048201526014602482015273053636f7265206d757374206265203c3d203130360641b6044820152606401610215565b806000836040516102779190610502565b908152604051908190036020019020556000605a8210610299575060646102cf565b605082106102a9575060966102cf565b604682106102b9575060fa6102cf565b603c82106102ca575061015e6102cf565b506101f45b806001846040516102e09190610502565b9081526020016040518091039020819055507f68120bdc25f4ac322b4b24587b7ee5a2fc5ef77144816e321ecd4d999de4cdda8383604051610323929190610565565b60405180910390a17f4967f02c854396aee17a1c94b29ae49f1fa429b46a2a102c463cc082bf2bce68838260405161035c929190610565565b60405180910390a1505050565b600080826040516101bc9190610502565b634e487b7160e01b600052604160045260246000fd5b600082601f8301126103a157600080fd5b813567ffffffffffffffff808211156103bc576103bc61037a565b604051601f8301601f19908116603f011681019082821181831017156103e4576103e461037a565b816040528381528660208588010111156103fd57600080fd5b836020870160208301376000602085830101528094505050505092915050565b6000806040838503121561043057600080fd5b82359150602083013567ffffffffffffffff81111561044e57600080fd5b61045a85828601610390565b9150509250929050565b60006020828403121561047657600080fd5b813567ffffffffffffffff81111561048d57600080fd5b6101a084828501610390565b600080604083850312156104ac57600080fd5b823567ffffffffffffffff8111156104c357600080fd5b6104cf85828601610390565b95602094909401359450505050565b60005b838110156104f95781810151838201526020016104e1565b50506000910152565b600082516105148184602087016104de565b9190910192915050565b80820281158282048414176101a457634e487b7160e01b600052601160045260246000fd5b60008261056057634e487b7160e01b600052601260045260246000fd5b500490565b60408152600083518060408401526105848160608501602088016104de565b602083019390935250601f91909101601f19160160600191905056fea26469706673582212204097cde3d0a7cd0076257237faafc5d7e242460ec9e1ff7f9ef483d18127c18b64736f6c63430008140033","opcodes":"PUSH1 0x80 PUSH1 0x40 MSTORE CALLVALUE DUP1 ISZERO PUSH2 0x10 JUMPI PUSH1 0x0 DUP1 REVERT JUMPDEST POP PUSH1 0x2 DUP1 SLOAD PUSH1 0x1 PUSH1 0x1 PUSH1 0xA0 SHL SUB NOT AND CALLER OR SWAP1 SSTORE PUSH1 0x40 MLOAD PUSH1 0x58 SWAP1 PUSH1 0x0 SWAP1 PUSH2 0x40 SWAP1 PUSH4 0x41617665 PUSH1 0xE0 SHL DUP2 MSTORE PUSH1 0x4 ADD SWAP1 JUMP JUMPDEST SWAP1 DUP2 MSTORE PUSH1 0x40 MLOAD SWAP1 DUP2 SWAP1 SUB PUSH1 0x20 ADD DUP2 KECCAK256 SWAP2 SWAP1 SWAP2 SSTORE PUSH8 0x10DBDB5C1BDD5B99 PUSH1 0xC2 SHL DUP2 MSTORE PUSH1 0x55 SWAP1 PUSH1 0x0 SWAP1 PUSH1 0x8 ADD SWAP1 DUP2 MSTORE PUSH1 0x40 MLOAD SWAP1 DUP2 SWAP1 SUB PUSH1 0x20 ADD DUP2 KECCAK256 SWAP2 SWAP1 SWAP2 SSTORE PUSH13 0x43757276652046696E616E6365 PUSH1 0x98 SHL DUP2 MSTORE PUSH1 0x48 SWAP1 PUSH1 0x0 SWAP1 PUSH1 0xD ADD SWAP1 DUP2 MSTORE PUSH1 0x40 MLOAD SWAP1 DUP2 SWAP1 SUB PUSH1 0x20 ADD DUP2 KECCAK256 SWAP2 SWAP1 SWAP2 SSTORE PUSH7 0x556E697377617 PUSH1 0xCC SHL DUP2 MSTORE PUSH1 0x5C SWAP1 PUSH1 0x0 SWAP1 PUSH1 0x7 ADD SWAP1 DUP2 MSTORE PUSH1 0x40 MLOAD SWAP1 DUP2 SWAP1 SUB PUSH1 0x20 ADD DUP2 KECCAK256 SWAP2 SWAP1 SWAP2 SSTORE PUSH9 0x53757368695377617 PUSH1 0xBC SHL DUP2 MSTORE PUSH1 0x41 SWAP1 PUSH1 0x0 SWAP1 PUSH1 0x9 ADD SWAP1 DUP2 MSTORE PUSH1 0x40 MLOAD SWAP1 DUP2 SWAP1 SUB PUSH1 0x20 ADD DUP2 KECCAK256 SWAP2 SWAP1 SWAP2 SSTORE PUSH11 0x2130B630B731B2B9102B19 PUSH1 0xA9 SHL DUP2 MSTORE PUSH1 0x4E SWAP1 PUSH1 0x0 SWAP1 PUSH1 0xB ADD SWAP1 DUP2 MSTORE PUSH1 0x40 MLOAD SWAP1 DUP2 SWAP1 SUB PUSH1 0x20 ADD DUP2 KECCAK256 SWAP2 SWAP1 SWAP2 SSTORE PUSH4 0x41617665 PUSH1 0xE0 SHL DUP2 MSTORE PUSH1 0x78 SWAP1 PUSH1 0x1 SWAP1 PUSH1 0x4 ADD SWAP1 DUP2 MSTORE PUSH1 0x40 MLOAD SWAP1 DUP2 SWAP1 SUB PUSH1 0x20 ADD DUP2 KECCAK256 SWAP2 SWAP1 SWAP2 SSTORE PUSH8 0x10DBDB5C1BDD5B99 PUSH1 0xC2 SHL DUP2 MSTORE PUSH1 0x96 SWAP1 PUSH1 0x1 SWAP1 PUSH1 0x8 ADD SWAP1 DUP2 MSTORE PUSH1 0x40 MLOAD SWAP1 DUP2 SWAP1 SUB PUSH1 0x20 ADD DUP2 KECCAK256 SWAP2 SWAP1 SWAP2 SSTORE PUSH13 0x43757276652046696E616E6365 PUSH1 0x98 SHL DUP2 MSTORE PUSH2 0x118 SWAP1 PUSH1 0x1 SWAP1 PUSH1 0xD ADD SWAP1 DUP2 MSTORE PUSH1 0x40 MLOAD SWAP1 DUP2 SWAP1 SUB PUSH1 0x20 ADD DUP2 KECCAK256 SWAP2 SWAP1 SWAP2 SSTORE PUSH7 0x556E697377617 PUSH1 0xCC SHL DUP2 MSTORE PUSH1 0x6E SWAP1 PUSH1 0x1 SWAP1 PUSH1 0x7 ADD SWAP1 DUP2 MSTORE PUSH1 0x40 MLOAD SWAP1 DUP2 SWAP1 SUB PUSH1 0x20 ADD DUP2 KECCAK256 SWAP2 SWAP1 SWAP2 SSTORE PUSH9 0x53757368695377617 PUSH1 0xBC SHL DUP2 MSTORE PUSH2 0x15E SWAP1 PUSH1 0x1 SWAP1 PUSH1 0x9 ADD SWAP1 DUP2 MSTORE PUSH1 0x40 MLOAD SWAP1 DUP2 SWAP1 SUB PUSH1 0x20 ADD DUP2 KECCAK256 SWAP2 SWAP1 SWAP2 SSTORE PUSH11 0x2130B630B731B2B9102B19 PUSH1 0xA9 SHL DUP2 MSTORE PUSH1 0xDC SWAP1 PUSH1 0x1 SWAP1 PUSH1 0xB ADD SWAP1 DUP2 MSTORE PUSH1 0x40 MLOAD SWAP1 DUP2 SWAP1 SUB PUSH1 0x20 ADD SWAP1 KECCAK256 SSTORE PUSH2 0x5D6 DUP1 PUSH2 0x23B PUSH1 0x0 CODECOPY PUSH1 0x0 RETURN INVALID PUSH1 0x80 PUSH1 0x40 MSTORE CALLVALUE DUP1 ISZERO PUSH2 0x10 JUMPI PUSH1 0x0 DUP1 REVERT JUMPDEST POP PUSH1 0x4 CALLDATASIZE LT PUSH2 0x7D JUMPI PUSH1 0x0 CALLDATALOAD PUSH1 0xE0 SHR DUP1 PUSH4 0x63758A65 GT PUSH2 0x5B JUMPI DUP1 PUSH4 0x63758A65 EQ PUSH2 0xE6 JUMPI DUP1 PUSH4 0x8DA5CB5B EQ PUSH2 0xFB JUMPI DUP1 PUSH4 0xAD4FE4BE EQ PUSH2 0x126 JUMPI DUP1 PUSH4 0xDC8F53B2 EQ PUSH2 0x151 JUMPI PUSH1 0x0 DUP1 REVERT JUMPDEST DUP1 PUSH4 0x1237E902 EQ PUSH2 0x82 JUMPI DUP1 PUSH4 0x190BD05B EQ PUSH2 0xA8 JUMPI DUP1 PUSH4 0x3872AFC8 EQ PUSH2 0xD3 JUMPI JUMPDEST PUSH1 0x0 DUP1 REVERT JUMPDEST PUSH2 0x95 PUSH2 0x90 CALLDATASIZE PUSH1 0x4 PUSH2 0x41D JUMP JUMPDEST PUSH2 0x164 JUMP JUMPDEST PUSH1 0x40 MLOAD SWAP1 DUP2 MSTORE PUSH1 0x20 ADD JUMPDEST PUSH1 0x40 MLOAD DUP1 SWAP2 SUB SWAP1 RETURN JUMPDEST PUSH2 0x95 PUSH2 0xB6 CALLDATASIZE PUSH1 0x4 PUSH2 0x464 JUMP JUMPDEST DUP1 MLOAD PUSH1 0x20 DUP2 DUP4 ADD DUP2 ADD DUP1 MLOAD PUSH1 0x1 DUP3 MSTORE SWAP3 DUP3 ADD SWAP2 SWAP1 SWAP4 ADD KECCAK256 SWAP2 MSTORE SLOAD DUP2 JUMP JUMPDEST PUSH2 0x95 PUSH2 0xE1 CALLDATASIZE PUSH1 0x4 PUSH2 0x464 JUMP JUMPDEST PUSH2 0x1AA JUMP JUMPDEST PUSH2 0xF9 PUSH2 0xF4 CALLDATASIZE PUSH1 0x4 PUSH2 0x499 JUMP JUMPDEST PUSH2 0x1D2 JUMP JUMPDEST STOP JUMPDEST PUSH1 0x2 SLOAD PUSH2 0x10E SWAP1 PUSH1 0x1 PUSH1 0x1 PUSH1 0xA0 SHL SUB AND DUP2 JUMP JUMPDEST PUSH1 0x40 MLOAD PUSH1 0x1 PUSH1 0x1 PUSH1 0xA0 SHL SUB SWAP1 SWAP2 AND DUP2 MSTORE PUSH1 0x20 ADD PUSH2 0x9F JUMP JUMPDEST PUSH2 0x95 PUSH2 0x134 CALLDATASIZE PUSH1 0x4 PUSH2 0x464 JUMP JUMPDEST DUP1 MLOAD PUSH1 0x20 DUP2 DUP4 ADD DUP2 ADD DUP1 MLOAD PUSH1 0x0 DUP3 MSTORE SWAP3 DUP3 ADD SWAP2 SWAP1 SWAP4 ADD KECCAK256 SWAP2 MSTORE SLOAD DUP2 JUMP JUMPDEST PUSH2 0x95 PUSH2 0x15F CALLDATASIZE PUSH1 0x4 PUSH2 0x464 JUMP JUMPDEST PUSH2 0x369 JUMP JUMPDEST PUSH1 0x0 DUP1 PUSH1 0x1 DUP4 PUSH1 0x40 MLOAD PUSH2 0x177 SWAP2 SWAP1 PUSH2 0x502 JUMP JUMPDEST SWAP1 DUP2 MSTORE PUSH1 0x40 MLOAD SWAP1 DUP2 SWAP1 SUB PUSH1 0x20 ADD SWAP1 KECCAK256 SLOAD SWAP1 POP PUSH2 0x2710 PUSH2 0x196 DUP3 DUP7 PUSH2 0x51E JUMP JUMPDEST PUSH2 0x1A0 SWAP2 SWAP1 PUSH2 0x543 JUMP JUMPDEST SWAP2 POP POP JUMPDEST SWAP3 SWAP2 POP POP JUMP JUMPDEST PUSH1 0x0 PUSH1 0x1 DUP3 PUSH1 0x40 MLOAD PUSH2 0x1BC SWAP2 SWAP1 PUSH2 0x502 JUMP JUMPDEST SWAP1 DUP2 MSTORE PUSH1 0x20 ADD PUSH1 0x40 MLOAD DUP1 SWAP2 SUB SWAP1 KECCAK256 SLOAD SWAP1 POP SWAP2 SWAP1 POP JUMP JUMPDEST PUSH1 0x2 SLOAD PUSH1 0x1 PUSH1 0x1 PUSH1 0xA0 SHL SUB AND CALLER EQ PUSH2 0x21E JUMPI PUSH1 0x40 MLOAD PUSH3 0x461BCD PUSH1 0xE5 SHL DUP2 MSTORE PUSH1 0x20 PUSH1 0x4 DUP3 ADD MSTORE PUSH1 0xA PUSH1 0x24 DUP3 ADD MSTORE PUSH10 0x27B7363C9037BBB732B9 PUSH1 0xB1 SHL PUSH1 0x44 DUP3 ADD MSTORE PUSH1 0x64 ADD JUMPDEST PUSH1 0x40 MLOAD DUP1 SWAP2 SUB SWAP1 REVERT JUMPDEST PUSH1 0x64 DUP2 GT ISZERO PUSH2 0x266 JUMPI PUSH1 0x40 MLOAD PUSH3 0x461BCD PUSH1 0xE5 SHL DUP2 MSTORE PUSH1 0x20 PUSH1 0x4 DUP3 ADD MSTORE PUSH1 0x14 PUSH1 0x24 DUP3 ADD MSTORE PUSH20 0x53636F7265206D757374206265203C3D2031303 PUSH1 0x64 SHL PUSH1 0x44 DUP3 ADD MSTORE PUSH1 0x64 ADD PUSH2 0x215 JUMP JUMPDEST DUP1 PUSH1 0x0 DUP4 PUSH1 0x40 MLOAD PUSH2 0x277 SWAP2 SWAP1 PUSH2 0x502 JUMP JUMPDEST SWAP1 DUP2 MSTORE PUSH1 0x40 MLOAD SWAP1 DUP2 SWAP1 SUB PUSH1 0x20 ADD SWAP1 KECCAK256 SSTORE PUSH1 0x0 PUSH1 0x5A DUP3 LT PUSH2 0x299 JUMPI POP PUSH1 0x64 PUSH2 0x2CF JUMP JUMPDEST PUSH1 0x50 DUP3 LT PUSH2 0x2A9 JUMPI POP PUSH1 0x96 PUSH2 0x2CF JUMP JUMPDEST PUSH1 0x46 DUP3 LT PUSH2 0x2B9 JUMPI POP PUSH1 0xFA PUSH2 0x2CF JUMP JUMPDEST PUSH1 0x3C DUP3 LT PUSH2 0x2CA JUMPI POP PUSH2 0x15E PUSH2 0x2CF JUMP JUMPDEST POP PUSH2 0x1F4 JUMPDEST DUP1 PUSH1 0x1 DUP5 PUSH1 0x40 MLOAD PUSH2 0x2E0 SWAP2 SWAP1 PUSH2 0x502 JUMP JUMPDEST SWAP1 DUP2 MSTORE PUSH1 0x20 ADD PUSH1 0x40 MLOAD DUP1 SWAP2 SUB SWAP1 KECCAK256 DUP2 SWAP1 SSTORE POP PUSH32 0x68120BDC25F4AC322B4B24587B7EE5A2FC5EF77144816E321ECD4D999DE4CDDA DUP4 DUP4 PUSH1 0x40 MLOAD PUSH2 0x323 SWAP3 SWAP2 SWAP1 PUSH2 0x565 JUMP JUMPDEST PUSH1 0x40 MLOAD DUP1 SWAP2 SUB SWAP1 LOG1 PUSH32 0x4967F02C854396AEE17A1C94B29AE49F1FA429B46A2A102C463CC082BF2BCE68 DUP4 DUP3 PUSH1 0x40 MLOAD PUSH2 0x35C SWAP3 SWAP2 SWAP1 PUSH2 0x565 JUMP JUMPDEST PUSH1 0x40 MLOAD DUP1 SWAP2 SUB SWAP1 LOG1 POP POP POP JUMP JUMPDEST PUSH1 0x0 DUP1 DUP3 PUSH1 0x40 MLOAD PUSH2 0x1BC SWAP2 SWAP1 PUSH2 0x502 JUMP JUMPDEST PUSH4 0x4E487B71 PUSH1 0xE0 SHL PUSH1 0x0 MSTORE PUSH1 0x41 PUSH1 0x4 MSTORE PUSH1 0x24 PUSH1 0x0 REVERT JUMPDEST PUSH1 0x0 DUP3 PUSH1 0x1F DUP4 ADD SLT PUSH2 0x3A1 JUMPI PUSH1 0x0 DUP1 REVERT JUMPDEST DUP2 CALLDATALOAD PUSH8 0xFFFFFFFFFFFFFFFF DUP1 DUP3 GT ISZERO PUSH2 0x3BC JUMPI PUSH2 0x3BC PUSH2 0x37A JUMP JUMPDEST PUSH1 0x40 MLOAD PUSH1 0x1F DUP4 ADD PUSH1 0x1F NOT SWAP1 DUP2 AND PUSH1 0x3F ADD AND DUP2 ADD SWAP1 DUP3 DUP3 GT DUP2 DUP4 LT OR ISZERO PUSH2 0x3E4 JUMPI PUSH2 0x3E4 PUSH2 0x37A JUMP JUMPDEST DUP2 PUSH1 0x40 MSTORE DUP4 DUP2 MSTORE DUP7 PUSH1 0x20 DUP6 DUP9 ADD ADD GT ISZERO PUSH2 0x3FD JUMPI PUSH1 0x0 DUP1 REVERT JUMPDEST DUP4 PUSH1 0x20 DUP8 ADD PUSH1 0x20 DUP4 ADD CALLDATACOPY PUSH1 0x0 PUSH1 0x20 DUP6 DUP4 ADD ADD MSTORE DUP1 SWAP5 POP POP POP POP POP SWAP3 SWAP2 POP POP JUMP JUMPDEST PUSH1 0x0 DUP1 PUSH1 0x40 DUP4 DUP6 SUB SLT ISZERO PUSH2 0x430 JUMPI PUSH1 0x0 DUP1 REVERT JUMPDEST DUP3 CALLDATALOAD SWAP2 POP PUSH1 0x20 DUP4 ADD CALLDATALOAD PUSH8 0xFFFFFFFFFFFFFFFF DUP2 GT ISZERO PUSH2 0x44E JUMPI PUSH1 0x0 DUP1 REVERT JUMPDEST PUSH2 0x45A DUP6 DUP3 DUP7 ADD PUSH2 0x390 JUMP JUMPDEST SWAP2 POP POP SWAP3 POP SWAP3 SWAP1 POP JUMP JUMPDEST PUSH1 0x0 PUSH1 0x20 DUP3 DUP5 SUB SLT ISZERO PUSH2 0x476 JUMPI PUSH1 0x0 DUP1 REVERT JUMPDEST DUP2 CALLDATALOAD PUSH8 0xFFFFFFFFFFFFFFFF DUP2 GT ISZERO PUSH2 0x48D JUMPI PUSH1 0x0 DUP1 REVERT JUMPDEST PUSH2 0x1A0 DUP5 DUP3 DUP6 ADD PUSH2 0x390 JUMP JUMPDEST PUSH1 0x0 DUP1 PUSH1 0x40 DUP4 DUP6 SUB SLT ISZERO PUSH2 0x4AC JUMPI PUSH1 0x0 DUP1 REVERT JUMPDEST DUP3 CALLDATALOAD PUSH8 0xFFFFFFFFFFFFFFFF DUP2 GT ISZERO PUSH2 0x4C3 JUMPI PUSH1 0x0 DUP1 REVERT JUMPDEST PUSH2 0x4CF DUP6 DUP3 DUP7 ADD PUSH2 0x390 JUMP JUMPDEST SWAP6 PUSH1 0x20 SWAP5 SWAP1 SWAP5 ADD CALLDATALOAD SWAP5 POP POP POP POP JUMP JUMPDEST PUSH1 0x0 JUMPDEST DUP4 DUP2 LT ISZERO PUSH2 0x4F9 JUMPI DUP2 DUP2 ADD MLOAD DUP4 DUP3 ADD MSTORE PUSH1 0x20 ADD PUSH2 0x4E1 JUMP JUMPDEST POP POP PUSH1 0x0 SWAP2 ADD MSTORE JUMP JUMPDEST PUSH1 0x0 DUP3 MLOAD PUSH2 0x514 DUP2 DUP5 PUSH1 0x20 DUP8 ADD PUSH2 0x4DE JUMP JUMPDEST SWAP2 SWAP1 SWAP2 ADD SWAP3 SWAP2 POP POP JUMP JUMPDEST DUP1 DUP3 MUL DUP2 ISZERO DUP3 DUP3 DIV DUP5 EQ OR PUSH2 0x1A4 JUMPI PUSH4 0x4E487B71 PUSH1 0xE0 SHL PUSH1 0x0 MSTORE PUSH1 0x11 PUSH1 0x4 MSTORE PUSH1 0x24 PUSH1 0x0 REVERT JUMPDEST PUSH1 0x0 DUP3 PUSH2 0x560 JUMPI PUSH4 0x4E487B71 PUSH1 0xE0 SHL PUSH1 0x0 MSTORE PUSH1 0x12 PUSH1 0x4 MSTORE PUSH1 0x24 PUSH1 0x0 REVERT JUMPDEST POP DIV SWAP1 JUMP JUMPDEST PUSH1 0x40 DUP2 MSTORE PUSH1 0x0 DUP4 MLOAD DUP1 PUSH1 0x40 DUP5 ADD MSTORE PUSH2 0x584 DUP2 PUSH1 0x60 DUP6 ADD PUSH1 0x20 DUP9 ADD PUSH2 0x4DE JUMP JUMPDEST PUSH1 0x20 DUP4 ADD SWAP4 SWAP1 SWAP4 MSTORE POP PUSH1 0x1F SWAP2 SWAP1 SWAP2 ADD PUSH1 0x1F NOT AND ADD PUSH1 0x60 ADD SWAP2 SWAP1 POP JUMP INVALID LOG2 PUSH5 0x6970667358 0x22 SLT KECCAK256 BLOCKHASH SWAP8 0xCD 0xE3 0xD0 0xA7 0xCD STOP PUSH23 0x257237FAAFC5D7E242460EC9E1FF7F9EF483D18127C18B PUSH5 0x736F6C6343 STOP ADDMOD EQ STOP CALLER "},"methodIdentifiers":{"calculatePremium(uint256,string)":"1237e902","getPremiumRate(string)":"3872afc8","getRiskScore(string)":"dc8f53b2","owner()":"8da5cb5b","premiumRates(string)":"190bd05b","riskScores(string)":"ad4fe4be","updateRiskScore(string,uint256)":"63758a65"}}}}}