{"contracts/PraesidiumInsuranceV2.sol":{"PraesidiumInsuranceV2":{"abi":[{"inputs":[],"stateMutability":"nonpayable","type":"constructor"},{"inputs":[{"internalType":"address","name":"owner","type":"address"}],"name":"OwnableInvalidOwner","type":"error"},{"inputs":[{"internalType":"address","name":"account","type":"address"}],"name":"OwnableUnauthorizedAccount","type":"error"},{"inputs":[],"name":"ReentrancyGuardReentrantCall","type":"error"},{"anonymous":false,"inputs":[{"indexed":true,"internalType":"uint256","name":"claimId","type":"uint256"},{"indexed":false,"internalType":"uint256","name":"amount","type":"uint256"}],"name":"ClaimApproved","type":"event"},{"anonymous":false,"inputs":[{"indexed":true,"internalType":"uint256","name":"claimId","type":"uint256"},{"indexed":true,"internalType":"address","name":"recipient","type":"address"},{"indexed":false,"internalType":"uint256","name":"amount","type":"uint256"}],"name":"ClaimPaid","type":"event"},{"anonymous":false,"inputs":[{"indexed":true,"internalType":"uint256","name":"claimId","type":"uint256"},{"indexed":false,"internalType":"string","name":"reason","type":"string"}],"name":"ClaimRejected","type":"event"},{"anonymous":false,"inputs":[{"indexed":true,"internalType":"uint256","name":"claimId","type":"uint256"},{"indexed":true,"internalType":"uint256","name":"policyId","type":"uint256"},{"indexed":true,"internalType":"address","name":"claimant","type":"address"},{"indexed":false,"internalType":"uint256","name":"amount","type":"uint256"},{"indexed":false,"internalType":"enum PraesidiumInsuranceV2.TriggerType","name":"triggerType","type":"uint8"}],"name":"ClaimSubmitted","type":"event"},{"anonymous":false,"inputs":[{"indexed":true,"internalType":"address","name":"previousOwner","type":"address"},{"indexed":true,"internalType":"address","name":"newOwner","type":"address"}],"name":"OwnershipTransferred","type":"event"},{"anonymous":false,"inputs":[{"indexed":true,"internalType":"uint256","name":"policyId","type":"uint256"},{"indexed":true,"internalType":"address","name":"holder","type":"address"},{"indexed":false,"internalType":"uint256","name":"premium","type":"uint256"},{"indexed":false,"internalType":"uint256","name":"coverage","type":"uint256"},{"indexed":false,"internalType":"string","name":"protocol","type":"string"}],"name":"PolicyCreated","type":"event"},{"anonymous":false,"inputs":[{"indexed":false,"internalType":"string","name":"protocol","type":"string"},{"indexed":false,"internalType":"enum PraesidiumInsuranceV2.TriggerType","name":"triggerType","type":"uint8"},{"indexed":false,"internalType":"uint256","name":"severity","type":"uint256"}],"name":"TriggerActivated","type":"event"},{"anonymous":false,"inputs":[{"indexed":false,"internalType":"string","name":"protocol","type":"string"}],"name":"TriggerDeactivated","type":"event"},{"inputs":[{"internalType":"string","name":"protocol","type":"string"},{"internalType":"enum PraesidiumInsuranceV2.TriggerType","name":"triggerType","type":"uint8"},{"internalType":"uint256","name":"severity","type":"uint256"}],"name":"activateTrigger","outputs":[],"stateMutability":"nonpayable","type":"function"},{"inputs":[{"internalType":"string","name":"","type":"string"}],"name":"activeTriggers","outputs":[{"internalType":"bool","name":"isActive","type":"bool"},{"internalType":"enum PraesidiumInsuranceV2.TriggerType","name":"triggerType","type":"uint8"},{"internalType":"string","name":"protocol","type":"string"},{"internalType":"uint256","name":"timestamp","type":"uint256"},{"internalType":"uint256","name":"severity","type":"uint256"}],"stateMutability":"view","type":"function"},{"inputs":[{"internalType":"uint256","name":"claimId","type":"uint256"}],"name":"approveClaim","outputs":[],"stateMutability":"nonpayable","type":"function"},{"inputs":[],"name":"claimProcessingTime","outputs":[{"internalType":"uint256","name":"","type":"uint256"}],"stateMutability":"view","type":"function"},{"inputs":[{"internalType":"uint256","name":"","type":"uint256"}],"name":"claims","outputs":[{"internalType":"uint256","name":"id","type":"uint256"},{"internalType":"uint256","name":"policyId","type":"uint256"},{"internalType":"address","name":"claimant","type":"address"},{"internalType":"uint256","name":"amount","type":"uint256"},{"internalType":"enum PraesidiumInsuranceV2.TriggerType","name":"triggerType","type":"uint8"},{"internalType":"uint256","name":"timestamp","type":"uint256"},{"internalType":"enum PraesidiumInsuranceV2.ClaimStatus","name":"status","type":"uint8"},{"internalType":"string","name":"evidence","type":"string"}],"stateMutability":"view","type":"function"},{"inputs":[{"internalType":"address","name":"holder","type":"address"},{"internalType":"uint256","name":"premium","type":"uint256"},{"internalType":"uint256","name":"coverage","type":"uint256"},{"internalType":"uint256","name":"duration","type":"uint256"},{"internalType":"string","name":"protocol","type":"string"}],"name":"createPolicy","outputs":[{"internalType":"uint256","name":"","type":"uint256"}],"stateMutability":"payable","type":"function"},{"inputs":[{"internalType":"string","name":"protocol","type":"string"}],"name":"deactivateTrigger","outputs":[],"stateMutability":"nonpayable","type":"function"},{"inputs":[{"internalType":"uint256","name":"claimId","type":"uint256"}],"name":"getClaim","outputs":[{"internalType":"uint256","name":"id","type":"uint256"},{"internalType":"uint256","name":"policyId","type":"uint256"},{"internalType":"address","name":"claimant","type":"address"},{"internalType":"uint256","name":"amount","type":"uint256"},{"internalType":"enum PraesidiumInsuranceV2.TriggerType","name":"triggerType","type":"uint8"},{"internalType":"uint256","name":"timestamp","type":"uint256"},{"internalType":"enum PraesidiumInsuranceV2.ClaimStatus","name":"status","type":"uint8"}],"stateMutability":"view","type":"function"},{"inputs":[],"name":"getClaimCount","outputs":[{"internalType":"uint256","name":"","type":"uint256"}],"stateMutability":"view","type":"function"},{"inputs":[],"name":"getContractBalance","outputs":[{"internalType":"uint256","name":"","type":"uint256"}],"stateMutability":"view","type":"function"},{"inputs":[{"internalType":"address","name":"holder","type":"address"}],"name":"getHolderClaims","outputs":[{"internalType":"uint256[]","name":"","type":"uint256[]"}],"stateMutability":"view","type":"function"},{"inputs":[{"internalType":"address","name":"holder","type":"address"}],"name":"getHolderPolicies","outputs":[{"internalType":"uint256[]","name":"","type":"uint256[]"}],"stateMutability":"view","type":"function"},{"inputs":[{"internalType":"uint256","name":"policyId","type":"uint256"}],"name":"getPolicy","outputs":[{"internalType":"uint256","name":"id","type":"uint256"},{"internalType":"address","name":"holder","type":"address"},{"internalType":"uint256","name":"premium","type":"uint256"},{"internalType":"uint256","name":"coverage","type":"uint256"},{"internalType":"uint256","name":"expiry","type":"uint256"},{"internalType":"bool","name":"active","type":"bool"},{"internalType":"string","name":"protocol","type":"string"},{"internalType":"bool","name":"claimed","type":"bool"}],"stateMutability":"view","type":"function"},{"inputs":[],"name":"getPolicyCount","outputs":[{"internalType":"uint256","name":"","type":"uint256"}],"stateMutability":"view","type":"function"},{"inputs":[{"internalType":"address","name":"","type":"address"},{"internalType":"uint256","name":"","type":"uint256"}],"name":"holderClaims","outputs":[{"internalType":"uint256","name":"","type":"uint256"}],"stateMutability":"view","type":"function"},{"inputs":[{"internalType":"address","name":"","type":"address"},{"internalType":"uint256","name":"","type":"uint256"}],"name":"holderPolicies","outputs":[{"internalType":"uint256","name":"","type":"uint256"}],"stateMutability":"view","type":"function"},{"inputs":[{"internalType":"string","name":"protocol","type":"string"}],"name":"isTriggerActive","outputs":[{"internalType":"bool","name":"","type":"bool"},{"internalType":"enum PraesidiumInsuranceV2.TriggerType","name":"","type":"uint8"},{"internalType":"uint256","name":"","type":"uint256"}],"stateMutability":"view","type":"function"},{"inputs":[],"name":"owner","outputs":[{"internalType":"address","name":"","type":"address"}],"stateMutability":"view","type":"function"},{"inputs":[{"internalType":"uint256","name":"","type":"uint256"}],"name":"policies","outputs":[{"internalType":"uint256","name":"id","type":"uint256"},{"internalType":"address","name":"holder","type":"address"},{"internalType":"uint256","name":"premium","type":"uint256"},{"internalType":"uint256","name":"coverage","type":"uint256"},{"internalType":"uint256","name":"expiry","type":"uint256"},{"internalType":"bool","name":"active","type":"bool"},{"internalType":"string","name":"protocol","type":"string"},{"internalType":"bool","name":"claimed","type":"bool"}],"stateMutability":"view","type":"function"},{"inputs":[{"internalType":"uint256","name":"claimId","type":"uint256"}],"name":"processClaimAutomatically","outputs":[],"stateMutability":"nonpayable","type":"function"},{"inputs":[{"internalType":"uint256","name":"claimId","type":"uint256"},{"internalType":"string","name":"reason","type":"string"}],"name":"rejectClaim","outputs":[],"stateMutability":"nonpayable","type":"function"},{"inputs":[],"name":"renounceOwnership","outputs":[],"stateMutability":"nonpayable","type":"function"},{"inputs":[{"internalType":"uint256","name":"newTime","type":"uint256"}],"name":"setClaimProcessingTime","outputs":[],"stateMutability":"nonpayable","type":"function"},{"inputs":[{"internalType":"uint256","name":"policyId","type":"uint256"},{"internalType":"enum PraesidiumInsuranceV2.TriggerType","name":"triggerType","type":"uint8"},{"internalType":"string","name":"evidence","type":"string"}],"name":"submitClaim","outputs":[{"internalType":"uint256","name":"","type":"uint256"}],"stateMutability":"nonpayable","type":"function"},{"inputs":[],"name":"totalClaimsPaid","outputs":[{"internalType":"uint256","name":"","type":"uint256"}],"stateMutability":"view","type":"function"},{"inputs":[],"name":"totalCoverage","outputs":[{"internalType":"uint256","name":"","type":"uint256"}],"stateMutability":"view","type":"function"},{"inputs":[],"name":"totalPremiums","outputs":[{"internalType":"uint256","name":"","type":"uint256"}],"stateMutability":"view","type":"function"},{"inputs":[{"internalType":"address","name":"newOwner","type":"address"}],"name":"transferOwnership","outputs":[],"stateMutability":"nonpayable","type":"function"},{"inputs":[{"internalType":"uint256","name":"amount","type":"uint256"}],"name":"withdraw","outputs":[],"stateMutability":"nonpayable","type":"function"},{"stateMutability":"payable","type":"receive"}],"evm":{"bytecode":{"linkReferences":{},"object":"6080604052610e10600c553480156200001757600080fd5b5033600073ffffffffffffffffffffffffffffffffffffffff168173ffffffffffffffffffffffffffffffffffffffff16036200008e5760006040517f1e4fbdf7000000000000000000000000000000000000000000000000000000008152600401620000859190620001b6565b60405180910390fd5b6200009f81620000ad60201b60201c565b5060018081905550620001d3565b60008060009054906101000a900473ffffffffffffffffffffffffffffffffffffffff169050816000806101000a81548173ffffffffffffffffffffffffffffffffffffffff021916908373ffffffffffffffffffffffffffffffffffffffff1602179055508173ffffffffffffffffffffffffffffffffffffffff168173ffffffffffffffffffffffffffffffffffffffff167f8be0079c531659141344cd1fd0a4f28419497f9722a3daafe3b4186f6b6457e060405160405180910390a35050565b600073ffffffffffffffffffffffffffffffffffffffff82169050919050565b60006200019e8262000171565b9050919050565b620001b08162000191565b82525050565b6000602082019050620001cd6000830184620001a5565b92915050565b613a6480620001e36000396000f3fe6080604052600436106101c55760003560e01c8063715018a6116100f7578063ba4611d911610095578063d3e8948311610064578063d3e89483146106b5578063d51942e2146106f9578063e59771d214610724578063f2fde38b1461074f576101cc565b8063ba4611d9146105f9578063bebe395e14610624578063c6c5eb6f1461064d578063d2e366541461068a576101cc565b8063857d0fda116100d1578063857d0fda146105105780638da5cb5b1461054d57806395a4dfd214610578578063a888c2cd146105b5576101cc565b8063715018a6146104a057806372b4c634146104b7578063798218ef146104e0576101cc565b806346e30135116101645780635f0ba74d1161013e5780635f0ba74d146103cc578063624613631461040d5780636532ccf51461044a5780636f9fb98a14610475576101cc565b806346e30135146103355780635aef24471461035e5780635bda1584146103a1576101cc565b80632b07fce3116101a05780632b07fce3146102605780632e1a7d4d146102a45780633577a5ad146102cd57806340a732da146102f6576101cc565b8062965308146101d15780630f70bdc6146101fa57806314e3afac14610223576101cc565b366101cc57005b600080fd5b3480156101dd57600080fd5b506101f860048036038101906101f39190612521565b610778565b005b34801561020657600080fd5b50610221600480360381019061021c91906125c5565b610823565b005b34801561022f57600080fd5b5061024a60048036038101906102459190612692565b610993565b60405161025791906126e1565b60405180910390f35b34801561026c57600080fd5b50610287600480360381019061028291906126fc565b6109c4565b60405161029b9897969594939291906127d2565b60405180910390f35b3480156102b057600080fd5b506102cb60048036038101906102c691906126fc565b610af0565b005b3480156102d957600080fd5b506102f460048036038101906102ef9190612857565b610b8c565b005b34801561030257600080fd5b5061031d60048036038101906103189190612521565b610cc6565b60405161032c9392919061292a565b60405180910390f35b34801561034157600080fd5b5061035c600480360381019061035791906126fc565b610d23565b005b34801561036a57600080fd5b50610385600480360381019061038091906126fc565b610e40565b60405161039897969594939291906129a9565b60405180910390f35b3480156103ad57600080fd5b506103b6610ed8565b6040516103c391906126e1565b60405180910390f35b3480156103d857600080fd5b506103f360048036038101906103ee9190612521565b610ede565b604051610404959493929190612a18565b60405180910390f35b34801561041957600080fd5b50610434600480360381019061042f9190612a72565b610fcc565b6040516104419190612b5d565b60405180910390f35b34801561045657600080fd5b5061045f611063565b60405161046c91906126e1565b60405180910390f35b34801561048157600080fd5b5061048a611069565b60405161049791906126e1565b60405180910390f35b3480156104ac57600080fd5b506104b5611071565b005b3480156104c357600080fd5b506104de60048036038101906104d991906126fc565b611085565b005b6104fa60048036038101906104f59190612b7f565b611097565b60405161050791906126e1565b60405180910390f35b34801561051c57600080fd5b5061053760048036038101906105329190612a72565b6113c8565b6040516105449190612b5d565b60405180910390f35b34801561055957600080fd5b5061056261145f565b60405161056f9190612c16565b60405180910390f35b34801561058457600080fd5b5061059f600480360381019061059a9190612692565b611488565b6040516105ac91906126e1565b60405180910390f35b3480156105c157600080fd5b506105dc60048036038101906105d791906126fc565b6114b9565b6040516105f0989796959493929190612c31565b60405180910390f35b34801561060557600080fd5b5061060e6115c3565b60405161061b91906126e1565b60405180910390f35b34801561063057600080fd5b5061064b600480360381019061064691906126fc565b6115cd565b005b34801561065957600080fd5b50610674600480360381019061066f9190612cb6565b611851565b60405161068191906126e1565b60405180910390f35b34801561069657600080fd5b5061069f611d5c565b6040516106ac91906126e1565b60405180910390f35b3480156106c157600080fd5b506106dc60048036038101906106d791906126fc565b611d62565b6040516106f09897969594939291906127d2565b60405180910390f35b34801561070557600080fd5b5061070e611e6c565b60405161071b91906126e1565b60405180910390f35b34801561073057600080fd5b50610739611e72565b60405161074691906126e1565b60405180910390f35b34801561075b57600080fd5b5061077660048036038101906107719190612a72565b611e7c565b005b610780611f02565b6008816040516107909190612d61565b9081526020016040518091039020600080820160006101000a81549060ff02191690556000820160016101000a81549060ff02191690556001820160006107d7919061236a565b6002820160009055600382016000905550507f3c6bcbc391cf4a6c67608ef561c4a911560c57e504bc88f2df7a0c6f4a4003c4816040516108189190612d78565b60405180910390a150565b61082b611f02565b6001811015801561083d575060648111155b61087c576040517f08c379a000000000000000000000000000000000000000000000000000000000815260040161087390612de6565b60405180910390fd5b6040518060a001604052806001151581526020018360048111156108a3576108a26128b3565b5b8152602001848152602001428152602001828152506008846040516108c89190612d61565b908152602001604051809103902060008201518160000160006101000a81548160ff02191690831515021790555060208201518160000160016101000a81548160ff02191690836004811115610921576109206128b3565b5b0217905550604082015181600101908161093b9190613012565b5060608201518160020155608082015181600301559050507fd2316def492f0bb143bc67d6544f24358b84da0f9f0e0f37b412448356e2a1c7838383604051610986939291906130e4565b60405180910390a1505050565b600760205281600052604060002081815481106109af57600080fd5b90600052602060002001600091509150505481565b6000806000806000806060600080600460008b8152602001908152602001600020905080600001548160010160009054906101000a900473ffffffffffffffffffffffffffffffffffffffff168260020154836003015484600401548560050160009054906101000a900460ff16866006018760070160009054906101000a900460ff16818054610a5490612e35565b80601f0160208091040260200160405190810160405280929190818152602001828054610a8090612e35565b8015610acd5780601f10610aa257610100808354040283529160200191610acd565b820191906000526020600020905b815481529060010190602001808311610ab057829003601f168201915b505050505091509850985098509850985098509850985050919395975091939597565b610af8611f02565b47811115610b3b576040517f08c379a0000000000000000000000000000000000000000000000000000000008152600401610b329061316e565b60405180910390fd5b610b4361145f565b73ffffffffffffffffffffffffffffffffffffffff166108fc829081150290604051600060405180830381858888f19350505050158015610b88573d6000803e3d6000fd5b5050565b610b94611f02565b600060056000848152602001908152602001600020905060006003811115610bbf57610bbe6128b3565b5b8160060160009054906101000a900460ff166003811115610be357610be26128b3565b5b14610c23576040517f08c379a0000000000000000000000000000000000000000000000000000000008152600401610c1a906131da565b60405180910390fd5b60028160060160006101000a81548160ff02191690836003811115610c4b57610c4a6128b3565b5b021790555060006004600083600101548152602001908152602001600020905060008160070160006101000a81548160ff021916908315150217905550837f43cc3d080e025c67c26d62b18bd442511dc9c76c8aa3f48cc0e8f456173e61f184604051610cb89190612d78565b60405180910390a250505050565b600080600080600885604051610cdc9190612d61565b908152602001604051809103902090508060000160009054906101000a900460ff168160000160019054906101000a900460ff168260030154935093509350509193909250565b610d2b611f02565b610d33611f89565b600060056000838152602001908152602001600020905060006003811115610d5e57610d5d6128b3565b5b8160060160009054906101000a900460ff166003811115610d8257610d816128b3565b5b14610dc2576040517f08c379a0000000000000000000000000000000000000000000000000000000008152600401610db9906131da565b60405180910390fd5b60018160060160006101000a81548160ff02191690836003811115610dea57610de96128b3565b5b0217905550817f638d892b8630b775fea5d7a52b209e8bfa1d90c32b57cd37208ac84d4bcd6dcb8260030154604051610e2391906126e1565b60405180910390a2610e3482611fcf565b50610e3d612295565b50565b600080600080600080600080600560008a81526020019081526020016000209050806000015481600101548260020160009054906101000a900473ffffffffffffffffffffffffffffffffffffffff1683600301548460040160009054906101000a900460ff1685600501548660060160009054906101000a900460ff16975097509750975097509750975050919395979092949650565b60095481565b6008818051602081018201805184825260208301602085012081835280955050505050506000915090508060000160009054906101000a900460ff16908060000160019054906101000a900460ff1690806001018054610f3d90612e35565b80601f0160208091040260200160405190810160405280929190818152602001828054610f6990612e35565b8015610fb65780601f10610f8b57610100808354040283529160200191610fb6565b820191906000526020600020905b815481529060010190602001808311610f9957829003601f168201915b5050505050908060020154908060030154905085565b6060600760008373ffffffffffffffffffffffffffffffffffffffff1673ffffffffffffffffffffffffffffffffffffffff16815260200190815260200160002080548060200260200160405190810160405280929190818152602001828054801561105757602002820191906000526020600020905b815481526020019060010190808311611043575b50505050509050919050565b600b5481565b600047905090565b611079611f02565b611083600061229e565b565b61108d611f02565b80600c8190555050565b60006110a1611f89565b843410156110e4576040517f08c379a00000000000000000000000000000000000000000000000000000000081526004016110db90613246565b60405180910390fd5b6201518083101561112a576040517f08c379a0000000000000000000000000000000000000000000000000000000008152600401611121906132b2565b60405180910390fd5b6000841161116d576040517f08c379a00000000000000000000000000000000000000000000000000000000081526004016111649061331e565b60405180910390fd5b600260008154809291906111809061336d565b9190505550600060025490506040518061010001604052808281526020018873ffffffffffffffffffffffffffffffffffffffff16815260200187815260200186815260200185426111d291906133b5565b815260200160011515815260200184815260200160001515815250600460008381526020019081526020016000206000820151816000015560208201518160010160006101000a81548173ffffffffffffffffffffffffffffffffffffffff021916908373ffffffffffffffffffffffffffffffffffffffff16021790555060408201518160020155606082015181600301556080820151816004015560a08201518160050160006101000a81548160ff02191690831515021790555060c08201518160060190816112a49190613012565b5060e08201518160070160006101000a81548160ff021916908315150217905550905050600660008873ffffffffffffffffffffffffffffffffffffffff1673ffffffffffffffffffffffffffffffffffffffff168152602001908152602001600020819080600181540180825580915050600190039060005260206000200160009091909190915055856009600082825461134091906133b5565b9250508190555084600a600082825461135991906133b5565b925050819055508673ffffffffffffffffffffffffffffffffffffffff16817fb125fde4284254e7f0e5b0b580e3d0b4edeb74741bbc94196386f1a56d9c9ca48888876040516113ab939291906133e9565b60405180910390a3809150506113bf612295565b95945050505050565b6060600660008373ffffffffffffffffffffffffffffffffffffffff1673ffffffffffffffffffffffffffffffffffffffff16815260200190815260200160002080548060200260200160405190810160405280929190818152602001828054801561145357602002820191906000526020600020905b81548152602001906001019080831161143f575b50505050509050919050565b60008060009054906101000a900473ffffffffffffffffffffffffffffffffffffffff16905090565b600660205281600052604060002081815481106114a457600080fd5b90600052602060002001600091509150505481565b60056020528060005260406000206000915090508060000154908060010154908060020160009054906101000a900473ffffffffffffffffffffffffffffffffffffffff16908060030154908060040160009054906101000a900460ff16908060050154908060060160009054906101000a900460ff169080600701805461154090612e35565b80601f016020809104026020016040519081016040528092919081815260200182805461156c90612e35565b80156115b95780601f1061158e576101008083540402835291602001916115b9565b820191906000526020600020905b81548152906001019060200180831161159c57829003601f168201915b5050505050905088565b6000600354905090565b6115d5611f89565b600060056000838152602001908152602001600020905060006003811115611600576115ff6128b3565b5b8160060160009054906101000a900460ff166003811115611624576116236128b3565b5b14611664576040517f08c379a000000000000000000000000000000000000000000000000000000000815260040161165b906131da565b60405180910390fd5b600060046000836001015481526020019081526020016000209050600060088260060160405161169491906134aa565b908152602001604051809103902090508060000160009054906101000a900460ff166116f5576040517f08c379a00000000000000000000000000000000000000000000000000000000081526004016116ec9061350d565b60405180910390fd5b8260040160009054906101000a900460ff166004811115611719576117186128b3565b5b8160000160019054906101000a900460ff16600481111561173d5761173c6128b3565b5b1461177d576040517f08c379a000000000000000000000000000000000000000000000000000000000815260040161177490613579565b60405180910390fd5b600c54836005015461178f91906133b5565b4210156117d1576040517f08c379a00000000000000000000000000000000000000000000000000000000081526004016117c8906135e5565b60405180910390fd5b60018360060160006101000a81548160ff021916908360038111156117f9576117f86128b3565b5b0217905550837f638d892b8630b775fea5d7a52b209e8bfa1d90c32b57cd37208ac84d4bcd6dcb846003015460405161183291906126e1565b60405180910390a261184384611fcf565b50505061184e612295565b50565b600061185b611f89565b60006004600086815260200190815260200160002090503373ffffffffffffffffffffffffffffffffffffffff168160010160009054906101000a900473ffffffffffffffffffffffffffffffffffffffff1673ffffffffffffffffffffffffffffffffffffffff1614611904576040517f08c379a00000000000000000000000000000000000000000000000000000000081526004016118fb90613651565b60405180910390fd5b8060050160009054906101000a900460ff16611955576040517f08c379a000000000000000000000000000000000000000000000000000000000815260040161194c906136bd565b60405180910390fd5b8060070160009054906101000a900460ff16156119a7576040517f08c379a000000000000000000000000000000000000000000000000000000000815260040161199e90613729565b60405180910390fd5b80600401544211156119ee576040517f08c379a00000000000000000000000000000000000000000000000000000000081526004016119e590613795565b60405180910390fd5b6000600882600601604051611a0391906134aa565b908152602001604051809103902090508060000160009054906101000a900460ff16611a64576040517f08c379a0000000000000000000000000000000000000000000000000000000008152600401611a5b90613827565b60405180910390fd5b846004811115611a7757611a766128b3565b5b8160000160019054906101000a900460ff166004811115611a9b57611a9a6128b3565b5b14611adb576040517f08c379a0000000000000000000000000000000000000000000000000000000008152600401611ad290613579565b60405180910390fd5b60036000815480929190611aee9061336d565b9190505550600060035490506040518061010001604052808281526020018881526020013373ffffffffffffffffffffffffffffffffffffffff16815260200184600301548152602001876004811115611b4b57611b4a6128b3565b5b815260200142815260200160006003811115611b6a57611b696128b3565b5b81526020018681525060056000838152602001908152602001600020600082015181600001556020820151816001015560408201518160020160006101000a81548173ffffffffffffffffffffffffffffffffffffffff021916908373ffffffffffffffffffffffffffffffffffffffff1602179055506060820151816003015560808201518160040160006101000a81548160ff02191690836004811115611c1657611c156128b3565b5b021790555060a0820151816005015560c08201518160060160006101000a81548160ff02191690836003811115611c5057611c4f6128b3565b5b021790555060e0820151816007019081611c6a9190613012565b50905050600760003373ffffffffffffffffffffffffffffffffffffffff1673ffffffffffffffffffffffffffffffffffffffff16815260200190815260200160002081908060018154018082558091505060019003906000526020600020016000909190919091505560018360070160006101000a81548160ff0219169083151502179055503373ffffffffffffffffffffffffffffffffffffffff1687827f726cd0adf04db32895848d0286be81e9e529127524ce7950d34c4e3eb343b5d286600301548a604051611d3f929190613847565b60405180910390a4809350505050611d55612295565b9392505050565b600c5481565b60046020528060005260406000206000915090508060000154908060010160009054906101000a900473ffffffffffffffffffffffffffffffffffffffff16908060020154908060030154908060040154908060050160009054906101000a900460ff1690806006018054611dd690612e35565b80601f0160208091040260200160405190810160405280929190818152602001828054611e0290612e35565b8015611e4f5780601f10611e2457610100808354040283529160200191611e4f565b820191906000526020600020905b815481529060010190602001808311611e3257829003601f168201915b5050505050908060070160009054906101000a900460ff16905088565b600a5481565b6000600254905090565b611e84611f02565b600073ffffffffffffffffffffffffffffffffffffffff168173ffffffffffffffffffffffffffffffffffffffff1603611ef65760006040517f1e4fbdf7000000000000000000000000000000000000000000000000000000008152600401611eed9190612c16565b60405180910390fd5b611eff8161229e565b50565b611f0a612362565b73ffffffffffffffffffffffffffffffffffffffff16611f2861145f565b73ffffffffffffffffffffffffffffffffffffffff1614611f8757611f4b612362565b6040517f118cdaa7000000000000000000000000000000000000000000000000000000008152600401611f7e9190612c16565b60405180910390fd5b565b600260015403611fc5576040517f3ee5aeb500000000000000000000000000000000000000000000000000000000815260040160405180910390fd5b6002600181905550565b600060056000838152602001908152602001600020905060016003811115611ffa57611ff96128b3565b5b8160060160009054906101000a900460ff16600381111561201e5761201d6128b3565b5b1461205e576040517f08c379a0000000000000000000000000000000000000000000000000000000008152600401612055906138bc565b60405180910390fd5b80600301544710156120a5576040517f08c379a000000000000000000000000000000000000000000000000000000000815260040161209c90613928565b60405180910390fd5b60038160060160006101000a81548160ff021916908360038111156120cd576120cc6128b3565b5b021790555060006004600083600101548152602001908152602001600020905060008160050160006101000a81548160ff0219169083151502179055508060030154600a60008282546121209190613948565b925050819055508160030154600b600082825461213d91906133b5565b9250508190555060008260020160009054906101000a900473ffffffffffffffffffffffffffffffffffffffff1673ffffffffffffffffffffffffffffffffffffffff168360030154604051612192906139ad565b60006040518083038185875af1925050503d80600081146121cf576040519150601f19603f3d011682016040523d82523d6000602084013e6121d4565b606091505b5050905080612218576040517f08c379a000000000000000000000000000000000000000000000000000000000815260040161220f90613a0e565b60405180910390fd5b8260020160009054906101000a900473ffffffffffffffffffffffffffffffffffffffff1673ffffffffffffffffffffffffffffffffffffffff16847faf3c8fdd75d667f71d36d7840b8ef9086c516c9b047ad6a83a5a66151342123a856003015460405161228791906126e1565b60405180910390a350505050565b60018081905550565b60008060009054906101000a900473ffffffffffffffffffffffffffffffffffffffff169050816000806101000a81548173ffffffffffffffffffffffffffffffffffffffff021916908373ffffffffffffffffffffffffffffffffffffffff1602179055508173ffffffffffffffffffffffffffffffffffffffff168173ffffffffffffffffffffffffffffffffffffffff167f8be0079c531659141344cd1fd0a4f28419497f9722a3daafe3b4186f6b6457e060405160405180910390a35050565b600033905090565b50805461237690612e35565b6000825580601f1061238857506123a7565b601f0160209004906000526020600020908101906123a691906123aa565b5b50565b5b808211156123c35760008160009055506001016123ab565b5090565b6000604051905090565b600080fd5b600080fd5b600080fd5b600080fd5b6000601f19601f8301169050919050565b7f4e487b7100000000000000000000000000000000000000000000000000000000600052604160045260246000fd5b61242e826123e5565b810181811067ffffffffffffffff8211171561244d5761244c6123f6565b5b80604052505050565b60006124606123c7565b905061246c8282612425565b919050565b600067ffffffffffffffff82111561248c5761248b6123f6565b5b612495826123e5565b9050602081019050919050565b82818337600083830152505050565b60006124c46124bf84612471565b612456565b9050828152602081018484840111156124e0576124df6123e0565b5b6124eb8482856124a2565b509392505050565b600082601f830112612508576125076123db565b5b81356125188482602086016124b1565b91505092915050565b600060208284031215612537576125366123d1565b5b600082013567ffffffffffffffff811115612555576125546123d6565b5b612561848285016124f3565b91505092915050565b6005811061257757600080fd5b50565b6000813590506125898161256a565b92915050565b6000819050919050565b6125a28161258f565b81146125ad57600080fd5b50565b6000813590506125bf81612599565b92915050565b6000806000606084860312156125de576125dd6123d1565b5b600084013567ffffffffffffffff8111156125fc576125fb6123d6565b5b612608868287016124f3565b93505060206126198682870161257a565b925050604061262a868287016125b0565b9150509250925092565b600073ffffffffffffffffffffffffffffffffffffffff82169050919050565b600061265f82612634565b9050919050565b61266f81612654565b811461267a57600080fd5b50565b60008135905061268c81612666565b92915050565b600080604083850312156126a9576126a86123d1565b5b60006126b78582860161267d565b92505060206126c8858286016125b0565b9150509250929050565b6126db8161258f565b82525050565b60006020820190506126f660008301846126d2565b92915050565b600060208284031215612712576127116123d1565b5b6000612720848285016125b0565b91505092915050565b61273281612654565b82525050565b60008115159050919050565b61274d81612738565b82525050565b600081519050919050565b600082825260208201905092915050565b60005b8381101561278d578082015181840152602081019050612772565b60008484015250505050565b60006127a482612753565b6127ae818561275e565b93506127be81856020860161276f565b6127c7816123e5565b840191505092915050565b6000610100820190506127e8600083018b6126d2565b6127f5602083018a612729565b61280260408301896126d2565b61280f60608301886126d2565b61281c60808301876126d2565b61282960a0830186612744565b81810360c083015261283b8185612799565b905061284a60e0830184612744565b9998505050505050505050565b6000806040838503121561286e5761286d6123d1565b5b600061287c858286016125b0565b925050602083013567ffffffffffffffff81111561289d5761289c6123d6565b5b6128a9858286016124f3565b9150509250929050565b7f4e487b7100000000000000000000000000000000000000000000000000000000600052602160045260246000fd5b600581106128f3576128f26128b3565b5b50565b6000819050612904826128e2565b919050565b6000612914826128f6565b9050919050565b61292481612909565b82525050565b600060608201905061293f6000830186612744565b61294c602083018561291b565b61295960408301846126d2565b949350505050565b60048110612972576129716128b3565b5b50565b600081905061298382612961565b919050565b600061299382612975565b9050919050565b6129a381612988565b82525050565b600060e0820190506129be600083018a6126d2565b6129cb60208301896126d2565b6129d86040830188612729565b6129e560608301876126d2565b6129f2608083018661291b565b6129ff60a08301856126d2565b612a0c60c083018461299a565b98975050505050505050565b600060a082019050612a2d6000830188612744565b612a3a602083018761291b565b8181036040830152612a4c8186612799565b9050612a5b60608301856126d2565b612a6860808301846126d2565b9695505050505050565b600060208284031215612a8857612a876123d1565b5b6000612a968482850161267d565b91505092915050565b600081519050919050565b600082825260208201905092915050565b6000819050602082019050919050565b612ad48161258f565b82525050565b6000612ae68383612acb565b60208301905092915050565b6000602082019050919050565b6000612b0a82612a9f565b612b148185612aaa565b9350612b1f83612abb565b8060005b83811015612b50578151612b378882612ada565b9750612b4283612af2565b925050600181019050612b23565b5085935050505092915050565b60006020820190508181036000830152612b778184612aff565b905092915050565b600080600080600060a08688031215612b9b57612b9a6123d1565b5b6000612ba98882890161267d565b9550506020612bba888289016125b0565b9450506040612bcb888289016125b0565b9350506060612bdc888289016125b0565b925050608086013567ffffffffffffffff811115612bfd57612bfc6123d6565b5b612c09888289016124f3565b9150509295509295909350565b6000602082019050612c2b6000830184612729565b92915050565b600061010082019050612c47600083018b6126d2565b612c54602083018a6126d2565b612c616040830189612729565b612c6e60608301886126d2565b612c7b608083018761291b565b612c8860a08301866126d2565b612c9560c083018561299a565b81810360e0830152612ca78184612799565b90509998505050505050505050565b600080600060608486031215612ccf57612cce6123d1565b5b6000612cdd868287016125b0565b9350506020612cee8682870161257a565b925050604084013567ffffffffffffffff811115612d0f57612d0e6123d6565b5b612d1b868287016124f3565b9150509250925092565b600081905092915050565b6000612d3b82612753565b612d458185612d25565b9350612d5581856020860161276f565b80840191505092915050565b6000612d6d8284612d30565b915081905092915050565b60006020820190508181036000830152612d928184612799565b905092915050565b7f5365766572697479206d75737420626520312d31303000000000000000000000600082015250565b6000612dd060168361275e565b9150612ddb82612d9a565b602082019050919050565b60006020820190508181036000830152612dff81612dc3565b9050919050565b7f4e487b7100000000000000000000000000000000000000000000000000000000600052602260045260246000fd5b60006002820490506001821680612e4d57607f821691505b602082108103612e6057612e5f612e06565b5b50919050565b60008190508160005260206000209050919050565b60006020601f8301049050919050565b600082821b905092915050565b600060088302612ec87fffffffffffffffffffffffffffffffffffffffffffffffffffffffffffffffff82612e8b565b612ed28683612e8b565b95508019841693508086168417925050509392505050565b6000819050919050565b6000612f0f612f0a612f058461258f565b612eea565b61258f565b9050919050565b6000819050919050565b612f2983612ef4565b612f3d612f3582612f16565b848454612e98565b825550505050565b600090565b612f52612f45565b612f5d818484612f20565b505050565b5b81811015612f8157612f76600082612f4a565b600181019050612f63565b5050565b601f821115612fc657612f9781612e66565b612fa084612e7b565b81016020851015612faf578190505b612fc3612fbb85612e7b565b830182612f62565b50505b505050565b600082821c905092915050565b6000612fe960001984600802612fcb565b1980831691505092915050565b60006130028383612fd8565b9150826002028217905092915050565b61301b82612753565b67ffffffffffffffff811115613034576130336123f6565b5b61303e8254612e35565b613049828285612f85565b600060209050601f83116001811461307c576000841561306a578287015190505b6130748582612ff6565b8655506130dc565b601f19841661308a86612e66565b60005b828110156130b25784890151825560018201915060208501945060208101905061308d565b868310156130cf57848901516130cb601f891682612fd8565b8355505b6001600288020188555050505b505050505050565b600060608201905081810360008301526130fe8186612799565b905061310d602083018561291b565b61311a60408301846126d2565b949350505050565b7f496e73756666696369656e742062616c616e6365000000000000000000000000600082015250565b600061315860148361275e565b915061316382613122565b602082019050919050565b600060208201905081810360008301526131878161314b565b9050919050565b7f436c61696d206e6f742070656e64696e67000000000000000000000000000000600082015250565b60006131c460118361275e565b91506131cf8261318e565b602082019050919050565b600060208201905081810360008301526131f3816131b7565b9050919050565b7f496e73756666696369656e74207072656d69756d207061796d656e7400000000600082015250565b6000613230601c8361275e565b915061323b826131fa565b602082019050919050565b6000602082019050818103600083015261325f81613223565b9050919050565b7f4475726174696f6e20746f6f2073686f72740000000000000000000000000000600082015250565b600061329c60128361275e565b91506132a782613266565b602082019050919050565b600060208201905081810360008301526132cb8161328f565b9050919050565b7f436f766572616765206d75737420626520706f73697469766500000000000000600082015250565b600061330860198361275e565b9150613313826132d2565b602082019050919050565b60006020820190508181036000830152613337816132fb565b9050919050565b7f4e487b7100000000000000000000000000000000000000000000000000000000600052601160045260246000fd5b60006133788261258f565b91507fffffffffffffffffffffffffffffffffffffffffffffffffffffffffffffffff82036133aa576133a961333e565b5b600182019050919050565b60006133c08261258f565b91506133cb8361258f565b92508282019050808211156133e3576133e261333e565b5b92915050565b60006060820190506133fe60008301866126d2565b61340b60208301856126d2565b818103604083015261341d8184612799565b9050949350505050565b6000815461343481612e35565b61343e8186612d25565b94506001821660008114613459576001811461346e576134a1565b60ff19831686528115158202860193506134a1565b61347785612e66565b60005b838110156134995781548189015260018201915060208101905061347a565b838801955050505b50505092915050565b60006134b68284613427565b915081905092915050565b7f54726967676572206e6f206c6f6e676572206163746976650000000000000000600082015250565b60006134f760188361275e565b9150613502826134c1565b602082019050919050565b60006020820190508181036000830152613526816134ea565b9050919050565b7f547269676765722074797065206d69736d617463680000000000000000000000600082015250565b600061356360158361275e565b915061356e8261352d565b602082019050919050565b6000602082019050818103600083015261359281613556565b9050919050565b7f50726f63657373696e672074696d65206e6f7420656c61707365640000000000600082015250565b60006135cf601b8361275e565b91506135da82613599565b602082019050919050565b600060208201905081810360008301526135fe816135c2565b9050919050565b7f4e6f7420706f6c69637920686f6c646572000000000000000000000000000000600082015250565b600061363b60118361275e565b915061364682613605565b602082019050919050565b6000602082019050818103600083015261366a8161362e565b9050919050565b7f506f6c696379206e6f7420616374697665000000000000000000000000000000600082015250565b60006136a760118361275e565b91506136b282613671565b602082019050919050565b600060208201905081810360008301526136d68161369a565b9050919050565b7f416c726561647920636c61696d65640000000000000000000000000000000000600082015250565b6000613713600f8361275e565b915061371e826136dd565b602082019050919050565b6000602082019050818103600083015261374281613706565b9050919050565b7f506f6c6963792065787069726564000000000000000000000000000000000000600082015250565b600061377f600e8361275e565b915061378a82613749565b602082019050919050565b600060208201905081810360008301526137ae81613772565b9050919050565b7f4e6f20616374697665207472696767657220666f7220746869732070726f746f60008201527f636f6c0000000000000000000000000000000000000000000000000000000000602082015250565b600061381160238361275e565b915061381c826137b5565b604082019050919050565b6000602082019050818103600083015261384081613804565b9050919050565b600060408201905061385c60008301856126d2565b613869602083018461291b565b9392505050565b7f436c61696d206e6f7420617070726f7665640000000000000000000000000000600082015250565b60006138a660128361275e565b91506138b182613870565b602082019050919050565b600060208201905081810360008301526138d581613899565b9050919050565b7f496e73756666696369656e7420636f6e74726163742062616c616e6365000000600082015250565b6000613912601d8361275e565b915061391d826138dc565b602082019050919050565b6000602082019050818103600083015261394181613905565b9050919050565b60006139538261258f565b915061395e8361258f565b92508282039050818111156139765761397561333e565b5b92915050565b600081905092915050565b50565b600061399760008361397c565b91506139a282613987565b600082019050919050565b60006139b88261398a565b9150819050919050565b7f5472616e73666572206661696c65640000000000000000000000000000000000600082015250565b60006139f8600f8361275e565b9150613a03826139c2565b602082019050919050565b60006020820190508181036000830152613a27816139eb565b905091905056fea2646970667358221220aa7a31e907e6a523a5a8242e8054cdd872c27adafdf3cc6d5dad3cf138fdf5e764736f6c63430008140033","opcodes":"PUSH1 0x80 PUSH1 0x40 MSTORE PUSH2 0xE10 PUSH1 0xC SSTORE CALLVALUE DUP1 ISZERO PUSH3 0x17 JUMPI PUSH1 0x0 DUP1 REVERT JUMPDEST POP CALLER PUSH1 0x0 PUSH20 0xFFFFFFFFFFFFFFFFFFFFFFFFFFFFFFFFFFFFFFFF AND DUP2 PUSH20 0xFFFFFFFFFFFFFFFFFFFFFFFFFFFFFFFFFFFFFFFF AND SUB PUSH3 0x8E JUMPI PUSH1 0x0 PUSH1 0x40 MLOAD PUSH32 0x1E4FBDF700000000000000000000000000000000000000000000000000000000 DUP2 MSTORE PUSH1 0x4 ADD PUSH3 0x85 SWAP2 SWAP1 PUSH3 0x1B6 JUMP JUMPDEST PUSH1 0x40 MLOAD DUP1 SWAP2 SUB SWAP1 REVERT JUMPDEST PUSH3 0x9F DUP2 PUSH3 0xAD PUSH1 0x20 SHL PUSH1 0x20 SHR JUMP JUMPDEST POP PUSH1 0x1 DUP1 DUP2 SWAP1 SSTORE POP PUSH3 0x1D3 JUMP JUMPDEST PUSH1 0x0 DUP1 PUSH1 0x0 SWAP1 SLOAD SWAP1 PUSH2 0x100 EXP SWAP1 DIV PUSH20 0xFFFFFFFFFFFFFFFFFFFFFFFFFFFFFFFFFFFFFFFF AND SWAP1 POP DUP2 PUSH1 0x0 DUP1 PUSH2 0x100 EXP DUP2 SLOAD DUP2 PUSH20 0xFFFFFFFFFFFFFFFFFFFFFFFFFFFFFFFFFFFFFFFF MUL NOT AND SWAP1 DUP4 PUSH20 0xFFFFFFFFFFFFFFFFFFFFFFFFFFFFFFFFFFFFFFFF AND MUL OR SWAP1 SSTORE POP DUP2 PUSH20 0xFFFFFFFFFFFFFFFFFFFFFFFFFFFFFFFFFFFFFFFF AND DUP2 PUSH20 0xFFFFFFFFFFFFFFFFFFFFFFFFFFFFFFFFFFFFFFFF AND PUSH32 0x8BE0079C531659141344CD1FD0A4F28419497F9722A3DAAFE3B4186F6B6457E0 PUSH1 0x40 MLOAD PUSH1 0x40 MLOAD DUP1 SWAP2 SUB SWAP1 LOG3 POP POP JUMP JUMPDEST PUSH1 0x0 PUSH20 0xFFFFFFFFFFFFFFFFFFFFFFFFFFFFFFFFFFFFFFFF DUP3 AND SWAP1 POP SWAP2 SWAP1 POP JUMP JUMPDEST PUSH1 0x0 PUSH3 0x19E DUP3 PUSH3 0x171 JUMP JUMPDEST SWAP1 POP SWAP2 SWAP1 POP JUMP JUMPDEST PUSH3 0x1B0 DUP2 PUSH3 0x191 JUMP JUMPDEST DUP3 MSTORE POP POP JUMP JUMPDEST PUSH1 0x0 PUSH1 0x20 DUP3 ADD SWAP1 POP PUSH3 0x1CD PUSH1 0x0 DUP4 ADD DUP5 PUSH3 0x1A5 JUMP JUMPDEST SWAP3 SWAP2 POP POP JUMP JUMPDEST PUSH2 0x3A64 DUP1 PUSH3 0x1E3 PUSH1 0x0 CODECOPY PUSH1 0x0 RETURN INVALID PUSH1 0x80 PUSH1 0x40 MSTORE PUSH1 0x4 CALLDATASIZE LT PUSH2 0x1C5 JUMPI PUSH1 0x0 CALLDATALOAD PUSH1 0xE0 SHR DUP1 PUSH4 0x715018A6 GT PUSH2 0xF7 JUMPI DUP1 PUSH4 0xBA4611D9 GT PUSH2 0x95 JUMPI DUP1 PUSH4 0xD3E89483 GT PUSH2 0x64 JUMPI DUP1 PUSH4 0xD3E89483 EQ PUSH2 0x6B5 JUMPI DUP1 PUSH4 0xD51942E2 EQ PUSH2 0x6F9 JUMPI DUP1 PUSH4 0xE59771D2 EQ PUSH2 0x724 JUMPI DUP1 PUSH4 0xF2FDE38B EQ PUSH2 0x74F JUMPI PUSH2 0x1CC JUMP JUMPDEST DUP1 PUSH4 0xBA4611D9 EQ PUSH2 0x5F9 JUMPI DUP1 PUSH4 0xBEBE395E EQ PUSH2 0x624 JUMPI DUP1 PUSH4 0xC6C5EB6F EQ PUSH2 0x64D JUMPI DUP1 PUSH4 0xD2E36654 EQ PUSH2 0x68A JUMPI PUSH2 0x1CC JUMP JUMPDEST DUP1 PUSH4 0x857D0FDA GT PUSH2 0xD1 JUMPI DUP1 PUSH4 0x857D0FDA EQ PUSH2 0x510 JUMPI DUP1 PUSH4 0x8DA5CB5B EQ PUSH2 0x54D JUMPI DUP1 PUSH4 0x95A4DFD2 EQ PUSH2 0x578 JUMPI DUP1 PUSH4 0xA888C2CD EQ PUSH2 0x5B5 JUMPI PUSH2 0x1CC JUMP JUMPDEST DUP1 PUSH4 0x715018A6 EQ PUSH2 0x4A0 JUMPI DUP1 PUSH4 0x72B4C634 EQ PUSH2 0x4B7 JUMPI DUP1 PUSH4 0x798218EF EQ PUSH2 0x4E0 JUMPI PUSH2 0x1CC JUMP JUMPDEST DUP1 PUSH4 0x46E30135 GT PUSH2 0x164 JUMPI DUP1 PUSH4 0x5F0BA74D GT PUSH2 0x13E JUMPI DUP1 PUSH4 0x5F0BA74D EQ PUSH2 0x3CC JUMPI DUP1 PUSH4 0x62461363 EQ PUSH2 0x40D JUMPI DUP1 PUSH4 0x6532CCF5 EQ PUSH2 0x44A JUMPI DUP1 PUSH4 0x6F9FB98A EQ PUSH2 0x475 JUMPI PUSH2 0x1CC JUMP JUMPDEST DUP1 PUSH4 0x46E30135 EQ PUSH2 0x335 JUMPI DUP1 PUSH4 0x5AEF2447 EQ PUSH2 0x35E JUMPI DUP1 PUSH4 0x5BDA1584 EQ PUSH2 0x3A1 JUMPI PUSH2 0x1CC JUMP JUMPDEST DUP1 PUSH4 0x2B07FCE3 GT PUSH2 0x1A0 JUMPI DUP1 PUSH4 0x2B07FCE3 EQ PUSH2 0x260 JUMPI DUP1 PUSH4 0x2E1A7D4D EQ PUSH2 0x2A4 JUMPI DUP1 PUSH4 0x3577A5AD EQ PUSH2 0x2CD JUMPI DUP1 PUSH4 0x40A732DA EQ PUSH2 0x2F6 JUMPI PUSH2 0x1CC JUMP JUMPDEST DUP1 PUSH3 0x965308 EQ PUSH2 0x1D1 JUMPI DUP1 PUSH4 0xF70BDC6 EQ PUSH2 0x1FA JUMPI DUP1 PUSH4 0x14E3AFAC EQ PUSH2 0x223 JUMPI PUSH2 0x1CC JUMP JUMPDEST CALLDATASIZE PUSH2 0x1CC JUMPI STOP JUMPDEST PUSH1 0x0 DUP1 REVERT JUMPDEST CALLVALUE DUP1 ISZERO PUSH2 0x1DD JUMPI PUSH1 0x0 DUP1 REVERT JUMPDEST POP PUSH2 0x1F8 PUSH1 0x4 DUP1 CALLDATASIZE SUB DUP2 ADD SWAP1 PUSH2 0x1F3 SWAP2 SWAP1 PUSH2 0x2521 JUMP JUMPDEST PUSH2 0x778 JUMP JUMPDEST STOP JUMPDEST CALLVALUE DUP1 ISZERO PUSH2 0x206 JUMPI PUSH1 0x0 DUP1 REVERT JUMPDEST POP PUSH2 0x221 PUSH1 0x4 DUP1 CALLDATASIZE SUB DUP2 ADD SWAP1 PUSH2 0x21C SWAP2 SWAP1 PUSH2 0x25C5 JUMP JUMPDEST PUSH2 0x823 JUMP JUMPDEST STOP JUMPDEST CALLVALUE DUP1 ISZERO PUSH2 0x22F JUMPI PUSH1 0x0 DUP1 REVERT JUMPDEST POP PUSH2 0x24A PUSH1 0x4 DUP1 CALLDATASIZE SUB DUP2 ADD SWAP1 PUSH2 0x245 SWAP2 SWAP1 PUSH2 0x2692 JUMP JUMPDEST PUSH2 0x993 JUMP JUMPDEST PUSH1 0x40 MLOAD PUSH2 0x257 SWAP2 SWAP1 PUSH2 0x26E1 JUMP JUMPDEST PUSH1 0x40 MLOAD DUP1 SWAP2 SUB SWAP1 RETURN JUMPDEST CALLVALUE DUP1 ISZERO PUSH2 0x26C JUMPI PUSH1 0x0 DUP1 REVERT JUMPDEST POP PUSH2 0x287 PUSH1 0x4 DUP1 CALLDATASIZE SUB DUP2 ADD SWAP1 PUSH2 0x282 SWAP2 SWAP1 PUSH2 0x26FC JUMP JUMPDEST PUSH2 0x9C4 JUMP JUMPDEST PUSH1 0x40 MLOAD PUSH2 0x29B SWAP9 SWAP8 SWAP7 SWAP6 SWAP5 SWAP4 SWAP3 SWAP2 SWAP1 PUSH2 0x27D2 JUMP JUMPDEST PUSH1 0x40 MLOAD DUP1 SWAP2 SUB SWAP1 RETURN JUMPDEST CALLVALUE DUP1 ISZERO PUSH2 0x2B0 JUMPI PUSH1 0x0 DUP1 REVERT JUMPDEST POP PUSH2 0x2CB PUSH1 0x4 DUP1 CALLDATASIZE SUB DUP2 ADD SWAP1 PUSH2 0x2C6 SWAP2 SWAP1 PUSH2 0x26FC JUMP JUMPDEST PUSH2 0xAF0 JUMP JUMPDEST STOP JUMPDEST CALLVALUE DUP1 ISZERO PUSH2 0x2D9 JUMPI PUSH1 0x0 DUP1 REVERT JUMPDEST POP PUSH2 0x2F4 PUSH1 0x4 DUP1 CALLDATASIZE SUB DUP2 ADD SWAP1 PUSH2 0x2EF SWAP2 SWAP1 PUSH2 0x2857 JUMP JUMPDEST PUSH2 0xB8C JUMP JUMPDEST STOP JUMPDEST CALLVALUE DUP1 ISZERO PUSH2 0x302 JUMPI PUSH1 0x0 DUP1 REVERT JUMPDEST POP PUSH2 0x31D PUSH1 0x4 DUP1 CALLDATASIZE SUB DUP2 ADD SWAP1 PUSH2 0x318 SWAP2 SWAP1 PUSH2 0x2521 JUMP JUMPDEST PUSH2 0xCC6 JUMP JUMPDEST PUSH1 0x40 MLOAD PUSH2 0x32C SWAP4 SWAP3 SWAP2 SWAP1 PUSH2 0x292A JUMP JUMPDEST PUSH1 0x40 MLOAD DUP1 SWAP2 SUB SWAP1 RETURN JUMPDEST CALLVALUE DUP1 ISZERO PUSH2 0x341 JUMPI PUSH1 0x0 DUP1 REVERT JUMPDEST POP PUSH2 0x35C PUSH1 0x4 DUP1 CALLDATASIZE SUB DUP2 ADD SWAP1 PUSH2 0x357 SWAP2 SWAP1 PUSH2 0x26FC JUMP JUMPDEST PUSH2 0xD23 JUMP JUMPDEST STOP JUMPDEST CALLVALUE DUP1 ISZERO PUSH2 0x36A JUMPI PUSH1 0x0 DUP1 REVERT JUMPDEST POP PUSH2 0x385 PUSH1 0x4 DUP1 CALLDATASIZE SUB DUP2 ADD SWAP1 PUSH2 0x380 SWAP2 SWAP1 PUSH2 0x26FC JUMP JUMPDEST PUSH2 0xE40 JUMP JUMPDEST PUSH1 0x40 MLOAD PUSH2 0x398 SWAP8 SWAP7 SWAP6 SWAP5 SWAP4 SWAP3 SWAP2 SWAP1 PUSH2 0x29A9 JUMP JUMPDEST PUSH1 0x40 MLOAD DUP1 SWAP2 SUB SWAP1 RETURN JUMPDEST CALLVALUE DUP1 ISZERO PUSH2 0x3AD JUMPI PUSH1 0x0 DUP1 REVERT JUMPDEST POP PUSH2 0x3B6 PUSH2 0xED8 JUMP JUMPDEST PUSH1 0x40 MLOAD PUSH2 0x3C3 SWAP2 SWAP1 PUSH2 0x26E1 JUMP JUMPDEST PUSH1 0x40 MLOAD DUP1 SWAP2 SUB SWAP1 RETURN JUMPDEST CALLVALUE DUP1 ISZERO PUSH2 0x3D8 JUMPI PUSH1 0x0 DUP1 REVERT JUMPDEST POP PUSH2 0x3F3 PUSH1 0x4 DUP1 CALLDATASIZE SUB DUP2 ADD SWAP1 PUSH2 0x3EE SWAP2 SWAP1 PUSH2 0x2521 JUMP JUMPDEST PUSH2 0xEDE JUMP JUMPDEST PUSH1 0x40 MLOAD PUSH2 0x404 SWAP6 SWAP5 SWAP4 SWAP3 SWAP2 SWAP1 PUSH2 0x2A18 JUMP JUMPDEST PUSH1 0x40 MLOAD DUP1 SWAP2 SUB SWAP1 RETURN JUMPDEST CALLVALUE DUP1 ISZERO PUSH2 0x419 JUMPI PUSH1 0x0 DUP1 REVERT JUMPDEST POP PUSH2 0x434 PUSH1 0x4 DUP1 CALLDATASIZE SUB DUP2 ADD SWAP1 PUSH2 0x42F SWAP2 SWAP1 PUSH2 0x2A72 JUMP JUMPDEST PUSH2 0xFCC JUMP JUMPDEST PUSH1 0x40 MLOAD PUSH2 0x441 SWAP2 SWAP1 PUSH2 0x2B5D JUMP JUMPDEST PUSH1 0x40 MLOAD DUP1 SWAP2 SUB SWAP1 RETURN JUMPDEST CALLVALUE DUP1 ISZERO PUSH2 0x456 JUMPI PUSH1 0x0 DUP1 REVERT JUMPDEST POP PUSH2 0x45F PUSH2 0x1063 JUMP JUMPDEST PUSH1 0x40 MLOAD PUSH2 0x46C SWAP2 SWAP1 PUSH2 0x26E1 JUMP JUMPDEST PUSH1 0x40 MLOAD DUP1 SWAP2 SUB SWAP1 RETURN JUMPDEST CALLVALUE DUP1 ISZERO PUSH2 0x481 JUMPI PUSH1 0x0 DUP1 REVERT JUMPDEST POP PUSH2 0x48A PUSH2 0x1069 JUMP JUMPDEST PUSH1 0x40 MLOAD PUSH2 0x497 SWAP2 SWAP1 PUSH2 0x26E1 JUMP JUMPDEST PUSH1 0x40 MLOAD DUP1 SWAP2 SUB SWAP1 RETURN JUMPDEST CALLVALUE DUP1 ISZERO PUSH2 0x4AC JUMPI PUSH1 0x0 DUP1 REVERT JUMPDEST POP PUSH2 0x4B5 PUSH2 0x1071 JUMP JUMPDEST STOP JUMPDEST CALLVALUE DUP1 ISZERO PUSH2 0x4C3 JUMPI PUSH1 0x0 DUP1 REVERT JUMPDEST POP PUSH2 0x4DE PUSH1 0x4 DUP1 CALLDATASIZE SUB DUP2 ADD SWAP1 PUSH2 0x4D9 SWAP2 SWAP1 PUSH2 0x26FC JUMP JUMPDEST PUSH2 0x1085 JUMP JUMPDEST STOP JUMPDEST PUSH2 0x4FA PUSH1 0x4 DUP1 CALLDATASIZE SUB DUP2 ADD SWAP1 PUSH2 0x4F5 SWAP2 SWAP1 PUSH2 0x2B7F JUMP JUMPDEST PUSH2 0x1097 JUMP JUMPDEST PUSH1 0x40 MLOAD PUSH2 0x507 SWAP2 SWAP1 PUSH2 0x26E1 JUMP JUMPDEST PUSH1 0x40 MLOAD DUP1 SWAP2 SUB SWAP1 RETURN JUMPDEST CALLVALUE DUP1 ISZERO PUSH2 0x51C JUMPI PUSH1 0x0 DUP1 REVERT JUMPDEST POP PUSH2 0x537 PUSH1 0x4 DUP1 CALLDATASIZE SUB DUP2 ADD SWAP1 PUSH2 0x532 SWAP2 SWAP1 PUSH2 0x2A72 JUMP JUMPDEST PUSH2 0x13C8 JUMP JUMPDEST PUSH1 0x40 MLOAD PUSH2 0x544 SWAP2 SWAP1 PUSH2 0x2B5D JUMP JUMPDEST PUSH1 0x40 MLOAD DUP1 SWAP2 SUB SWAP1 RETURN JUMPDEST CALLVALUE DUP1 ISZERO PUSH2 0x559 JUMPI PUSH1 0x0 DUP1 REVERT JUMPDEST POP PUSH2 0x562 PUSH2 0x145F JUMP JUMPDEST PUSH1 0x40 MLOAD PUSH2 0x56F SWAP2 SWAP1 PUSH2 0x2C16 JUMP JUMPDEST PUSH1 0x40 MLOAD DUP1 SWAP2 SUB SWAP1 RETURN JUMPDEST CALLVALUE DUP1 ISZERO PUSH2 0x584 JUMPI PUSH1 0x0 DUP1 REVERT JUMPDEST POP PUSH2 0x59F PUSH1 0x4 DUP1 CALLDATASIZE SUB DUP2 ADD SWAP1 PUSH2 0x59A SWAP2 SWAP1 PUSH2 0x2692 JUMP JUMPDEST PUSH2 0x1488 JUMP JUMPDEST PUSH1 0x40 MLOAD PUSH2 0x5AC SWAP2 SWAP1 PUSH2 0x26E1 JUMP JUMPDEST PUSH1 0x40 MLOAD DUP1 SWAP2 SUB SWAP1 RETURN JUMPDEST CALLVALUE DUP1 ISZERO PUSH2 0x5C1 JUMPI PUSH1 0x0 DUP1 REVERT JUMPDEST POP PUSH2 0x5DC PUSH1 0x4 DUP1 CALLDATASIZE SUB DUP2 ADD SWAP1 PUSH2 0x5D7 SWAP2 SWAP1 PUSH2 0x26FC JUMP JUMPDEST PUSH2 0x14B9 JUMP JUMPDEST PUSH1 0x40 MLOAD PUSH2 0x5F0 SWAP9 SWAP8 SWAP7 SWAP6 SWAP5 SWAP4 SWAP3 SWAP2 SWAP1 PUSH2 0x2C31 JUMP JUMPDEST PUSH1 0x40 MLOAD DUP1 SWAP2 SUB SWAP1 RETURN JUMPDEST CALLVALUE DUP1 ISZERO PUSH2 0x605 JUMPI PUSH1 0x0 DUP1 REVERT JUMPDEST POP PUSH2 0x60E PUSH2 0x15C3 JUMP JUMPDEST PUSH1 0x40 MLOAD PUSH2 0x61B SWAP2 SWAP1 PUSH2 0x26E1 JUMP JUMPDEST PUSH1 0x40 MLOAD DUP1 SWAP2 SUB SWAP1 RETURN JUMPDEST CALLVALUE DUP1 ISZERO PUSH2 0x630 JUMPI PUSH1 0x0 DUP1 REVERT JUMPDEST POP PUSH2 0x64B PUSH1 0x4 DUP1 CALLDATASIZE SUB DUP2 ADD SWAP1 PUSH2 0x646 SWAP2 SWAP1 PUSH2 0x26FC JUMP JUMPDEST PUSH2 0x15CD JUMP JUMPDEST STOP JUMPDEST CALLVALUE DUP1 ISZERO PUSH2 0x659 JUMPI PUSH1 0x0 DUP1 REVERT JUMPDEST POP PUSH2 0x674 PUSH1 0x4 DUP1 CALLDATASIZE SUB DUP2 ADD SWAP1 PUSH2 0x66F SWAP2 SWAP1 PUSH2 0x2CB6 JUMP JUMPDEST PUSH2 0x1851 JUMP JUMPDEST PUSH1 0x40 MLOAD PUSH2 0x681 SWAP2 SWAP1 PUSH2 0x26E1 JUMP JUMPDEST PUSH1 0x40 MLOAD DUP1 SWAP2 SUB SWAP1 RETURN JUMPDEST CALLVALUE DUP1 ISZERO PUSH2 0x696 JUMPI PUSH1 0x0 DUP1 REVERT JUMPDEST POP PUSH2 0x69F PUSH2 0x1D5C JUMP JUMPDEST PUSH1 0x40 MLOAD PUSH2 0x6AC SWAP2 SWAP1 PUSH2 0x26E1 JUMP JUMPDEST PUSH1 0x40 MLOAD DUP1 SWAP2 SUB SWAP1 RETURN JUMPDEST CALLVALUE DUP1 ISZERO PUSH2 0x6C1 JUMPI PUSH1 0x0 DUP1 REVERT JUMPDEST POP PUSH2 0x6DC PUSH1 0x4 DUP1 CALLDATASIZE SUB DUP2 ADD SWAP1 PUSH2 0x6D7 SWAP2 SWAP1 PUSH2 0x26FC JUMP JUMPDEST PUSH2 0x1D62 JUMP JUMPDEST PUSH1 0x40 MLOAD PUSH2 0x6F0 SWAP9 SWAP8 SWAP7 SWAP6 SWAP5 SWAP4 SWAP3 SWAP2 SWAP1 PUSH2 0x27D2 JUMP JUMPDEST PUSH1 0x40 MLOAD DUP1 SWAP2 SUB SWAP1 RETURN JUMPDEST CALLVALUE DUP1 ISZERO PUSH2 0x705 JUMPI PUSH1 0x0 DUP1 REVERT JUMPDEST POP PUSH2 0x70E PUSH2 0x1E6C JUMP JUMPDEST PUSH1 0x40 MLOAD PUSH2 0x71B SWAP2 SWAP1 PUSH2 0x26E1 JUMP JUMPDEST PUSH1 0x40 MLOAD DUP1 SWAP2 SUB SWAP1 RETURN JUMPDEST CALLVALUE DUP1 ISZERO PUSH2 0x730 JUMPI PUSH1 0x0 DUP1 REVERT JUMPDEST POP PUSH2 0x739 PUSH2 0x1E72 JUMP JUMPDEST PUSH1 0x40 MLOAD PUSH2 0x746 SWAP2 SWAP1 PUSH2 0x26E1 JUMP JUMPDEST PUSH1 0x40 MLOAD DUP1 SWAP2 SUB SWAP1 RETURN JUMPDEST CALLVALUE DUP1 ISZERO PUSH2 0x75B JUMPI PUSH1 0x0 DUP1 REVERT JUMPDEST POP PUSH2 0x776 PUSH1 0x4 DUP1 CALLDATASIZE SUB DUP2 ADD SWAP1 PUSH2 0x771 SWAP2 SWAP1 PUSH2 0x2A72 JUMP JUMPDEST PUSH2 0x1E7C JUMP JUMPDEST STOP JUMPDEST PUSH2 0x780 PUSH2 0x1F02 JUMP JUMPDEST PUSH1 0x8 DUP2 PUSH1 0x40 MLOAD PUSH2 0x790 SWAP2 SWAP1 PUSH2 0x2D61 JUMP JUMPDEST SWAP1 DUP2 MSTORE PUSH1 0x20 ADD PUSH1 0x40 MLOAD DUP1 SWAP2 SUB SWAP1 KECCAK256 PUSH1 0x0 DUP1 DUP3 ADD PUSH1 0x0 PUSH2 0x100 EXP DUP2 SLOAD SWAP1 PUSH1 0xFF MUL NOT AND SWAP1 SSTORE PUSH1 0x0 DUP3 ADD PUSH1 0x1 PUSH2 0x100 EXP DUP2 SLOAD SWAP1 PUSH1 0xFF MUL NOT AND SWAP1 SSTORE PUSH1 0x1 DUP3 ADD PUSH1 0x0 PUSH2 0x7D7 SWAP2 SWAP1 PUSH2 0x236A JUMP JUMPDEST PUSH1 0x2 DUP3 ADD PUSH1 0x0 SWAP1 SSTORE PUSH1 0x3 DUP3 ADD PUSH1 0x0 SWAP1 SSTORE POP POP PUSH32 0x3C6BCBC391CF4A6C67608EF561C4A911560C57E504BC88F2DF7A0C6F4A4003C4 DUP2 PUSH1 0x40 MLOAD PUSH2 0x818 SWAP2 SWAP1 PUSH2 0x2D78 JUMP JUMPDEST PUSH1 0x40 MLOAD DUP1 SWAP2 SUB SWAP1 LOG1 POP JUMP JUMPDEST PUSH2 0x82B PUSH2 0x1F02 JUMP JUMPDEST PUSH1 0x1 DUP2 LT ISZERO DUP1 ISZERO PUSH2 0x83D JUMPI POP PUSH1 0x64 DUP2 GT ISZERO JUMPDEST PUSH2 0x87C JUMPI PUSH1 0x40 MLOAD PUSH32 0x8C379A000000000000000000000000000000000000000000000000000000000 DUP2 MSTORE PUSH1 0x4 ADD PUSH2 0x873 SWAP1 PUSH2 0x2DE6 JUMP JUMPDEST PUSH1 0x40 MLOAD DUP1 SWAP2 SUB SWAP1 REVERT JUMPDEST PUSH1 0x40 MLOAD DUP1 PUSH1 0xA0 ADD PUSH1 0x40 MSTORE DUP1 PUSH1 0x1 ISZERO ISZERO DUP2 MSTORE PUSH1 0x20 ADD DUP4 PUSH1 0x4 DUP2 GT ISZERO PUSH2 0x8A3 JUMPI PUSH2 0x8A2 PUSH2 0x28B3 JUMP JUMPDEST JUMPDEST DUP2 MSTORE PUSH1 0x20 ADD DUP5 DUP2 MSTORE PUSH1 0x20 ADD TIMESTAMP DUP2 MSTORE PUSH1 0x20 ADD DUP3 DUP2 MSTORE POP PUSH1 0x8 DUP5 PUSH1 0x40 MLOAD PUSH2 0x8C8 SWAP2 SWAP1 PUSH2 0x2D61 JUMP JUMPDEST SWAP1 DUP2 MSTORE PUSH1 0x20 ADD PUSH1 0x40 MLOAD DUP1 SWAP2 SUB SWAP1 KECCAK256 PUSH1 0x0 DUP3 ADD MLOAD DUP2 PUSH1 0x0 ADD PUSH1 0x0 PUSH2 0x100 EXP DUP2 SLOAD DUP2 PUSH1 0xFF MUL NOT AND SWAP1 DUP4 ISZERO ISZERO MUL OR SWAP1 SSTORE POP PUSH1 0x20 DUP3 ADD MLOAD DUP2 PUSH1 0x0 ADD PUSH1 0x1 PUSH2 0x100 EXP DUP2 SLOAD DUP2 PUSH1 0xFF MUL NOT AND SWAP1 DUP4 PUSH1 0x4 DUP2 GT ISZERO PUSH2 0x921 JUMPI PUSH2 0x920 PUSH2 0x28B3 JUMP JUMPDEST JUMPDEST MUL OR SWAP1 SSTORE POP PUSH1 0x40 DUP3 ADD MLOAD DUP2 PUSH1 0x1 ADD SWAP1 DUP2 PUSH2 0x93B SWAP2 SWAP1 PUSH2 0x3012 JUMP JUMPDEST POP PUSH1 0x60 DUP3 ADD MLOAD DUP2 PUSH1 0x2 ADD SSTORE PUSH1 0x80 DUP3 ADD MLOAD DUP2 PUSH1 0x3 ADD SSTORE SWAP1 POP POP PUSH32 0xD2316DEF492F0BB143BC67D6544F24358B84DA0F9F0E0F37B412448356E2A1C7 DUP4 DUP4 DUP4 PUSH1 0x40 MLOAD PUSH2 0x986 SWAP4 SWAP3 SWAP2 SWAP1 PUSH2 0x30E4 JUMP JUMPDEST PUSH1 0x40 MLOAD DUP1 SWAP2 SUB SWAP1 LOG1 POP POP POP JUMP JUMPDEST PUSH1 0x7 PUSH1 0x20 MSTORE DUP2 PUSH1 0x0 MSTORE PUSH1 0x40 PUSH1 0x0 KECCAK256 DUP2 DUP2 SLOAD DUP2 LT PUSH2 0x9AF JUMPI PUSH1 0x0 DUP1 REVERT JUMPDEST SWAP1 PUSH1 0x0 MSTORE PUSH1 0x20 PUSH1 0x0 KECCAK256 ADD PUSH1 0x0 SWAP2 POP SWAP2 POP POP SLOAD DUP2 JUMP JUMPDEST PUSH1 0x0 DUP1 PUSH1 0x0 DUP1 PUSH1 0x0 DUP1 PUSH1 0x60 PUSH1 0x0 DUP1 PUSH1 0x4 PUSH1 0x0 DUP12 DUP2 MSTORE PUSH1 0x20 ADD SWAP1 DUP2 MSTORE PUSH1 0x20 ADD PUSH1 0x0 KECCAK256 SWAP1 POP DUP1 PUSH1 0x0 ADD SLOAD DUP2 PUSH1 0x1 ADD PUSH1 0x0 SWAP1 SLOAD SWAP1 PUSH2 0x100 EXP SWAP1 DIV PUSH20 0xFFFFFFFFFFFFFFFFFFFFFFFFFFFFFFFFFFFFFFFF AND DUP3 PUSH1 0x2 ADD SLOAD DUP4 PUSH1 0x3 ADD SLOAD DUP5 PUSH1 0x4 ADD SLOAD DUP6 PUSH1 0x5 ADD PUSH1 0x0 SWAP1 SLOAD SWAP1 PUSH2 0x100 EXP SWAP1 DIV PUSH1 0xFF AND DUP7 PUSH1 0x6 ADD DUP8 PUSH1 0x7 ADD PUSH1 0x0 SWAP1 SLOAD SWAP1 PUSH2 0x100 EXP SWAP1 DIV PUSH1 0xFF AND DUP2 DUP1 SLOAD PUSH2 0xA54 SWAP1 PUSH2 0x2E35 JUMP JUMPDEST DUP1 PUSH1 0x1F ADD PUSH1 0x20 DUP1 SWAP2 DIV MUL PUSH1 0x20 ADD PUSH1 0x40 MLOAD SWAP1 DUP2 ADD PUSH1 0x40 MSTORE DUP1 SWAP3 SWAP2 SWAP1 DUP2 DUP2 MSTORE PUSH1 0x20 ADD DUP3 DUP1 SLOAD PUSH2 0xA80 SWAP1 PUSH2 0x2E35 JUMP JUMPDEST DUP1 ISZERO PUSH2 0xACD JUMPI DUP1 PUSH1 0x1F LT PUSH2 0xAA2 JUMPI PUSH2 0x100 DUP1 DUP4 SLOAD DIV MUL DUP4 MSTORE SWAP2 PUSH1 0x20 ADD SWAP2 PUSH2 0xACD JUMP JUMPDEST DUP3 ADD SWAP2 SWAP1 PUSH1 0x0 MSTORE PUSH1 0x20 PUSH1 0x0 KECCAK256 SWAP1 JUMPDEST DUP2 SLOAD DUP2 MSTORE SWAP1 PUSH1 0x1 ADD SWAP1 PUSH1 0x20 ADD DUP1 DUP4 GT PUSH2 0xAB0 JUMPI DUP3 SWAP1 SUB PUSH1 0x1F AND DUP3 ADD SWAP2 JUMPDEST POP POP POP POP POP SWAP2 POP SWAP9 POP SWAP9 POP SWAP9 POP SWAP9 POP SWAP9 POP SWAP9 POP SWAP9 POP SWAP9 POP POP SWAP2 SWAP4 SWAP6 SWAP8 POP SWAP2 SWAP4 SWAP6 SWAP8 JUMP JUMPDEST PUSH2 0xAF8 PUSH2 0x1F02 JUMP JUMPDEST SELFBALANCE DUP2 GT ISZERO PUSH2 0xB3B JUMPI PUSH1 0x40 MLOAD PUSH32 0x8C379A000000000000000000000000000000000000000000000000000000000 DUP2 MSTORE PUSH1 0x4 ADD PUSH2 0xB32 SWAP1 PUSH2 0x316E JUMP JUMPDEST PUSH1 0x40 MLOAD DUP1 SWAP2 SUB SWAP1 REVERT JUMPDEST PUSH2 0xB43 PUSH2 0x145F JUMP JUMPDEST PUSH20 0xFFFFFFFFFFFFFFFFFFFFFFFFFFFFFFFFFFFFFFFF AND PUSH2 0x8FC DUP3 SWAP1 DUP2 ISZERO MUL SWAP1 PUSH1 0x40 MLOAD PUSH1 0x0 PUSH1 0x40 MLOAD DUP1 DUP4 SUB DUP2 DUP6 DUP9 DUP9 CALL SWAP4 POP POP POP POP ISZERO DUP1 ISZERO PUSH2 0xB88 JUMPI RETURNDATASIZE PUSH1 0x0 DUP1 RETURNDATACOPY RETURNDATASIZE PUSH1 0x0 REVERT JUMPDEST POP POP JUMP JUMPDEST PUSH2 0xB94 PUSH2 0x1F02 JUMP JUMPDEST PUSH1 0x0 PUSH1 0x5 PUSH1 0x0 DUP5 DUP2 MSTORE PUSH1 0x20 ADD SWAP1 DUP2 MSTORE PUSH1 0x20 ADD PUSH1 0x0 KECCAK256 SWAP1 POP PUSH1 0x0 PUSH1 0x3 DUP2 GT ISZERO PUSH2 0xBBF JUMPI PUSH2 0xBBE PUSH2 0x28B3 JUMP JUMPDEST JUMPDEST DUP2 PUSH1 0x6 ADD PUSH1 0x0 SWAP1 SLOAD SWAP1 PUSH2 0x100 EXP SWAP1 DIV PUSH1 0xFF AND PUSH1 0x3 DUP2 GT ISZERO PUSH2 0xBE3 JUMPI PUSH2 0xBE2 PUSH2 0x28B3 JUMP JUMPDEST JUMPDEST EQ PUSH2 0xC23 JUMPI PUSH1 0x40 MLOAD PUSH32 0x8C379A000000000000000000000000000000000000000000000000000000000 DUP2 MSTORE PUSH1 0x4 ADD PUSH2 0xC1A SWAP1 PUSH2 0x31DA JUMP JUMPDEST PUSH1 0x40 MLOAD DUP1 SWAP2 SUB SWAP1 REVERT JUMPDEST PUSH1 0x2 DUP2 PUSH1 0x6 ADD PUSH1 0x0 PUSH2 0x100 EXP DUP2 SLOAD DUP2 PUSH1 0xFF MUL NOT AND SWAP1 DUP4 PUSH1 0x3 DUP2 GT ISZERO PUSH2 0xC4B JUMPI PUSH2 0xC4A PUSH2 0x28B3 JUMP JUMPDEST JUMPDEST MUL OR SWAP1 SSTORE POP PUSH1 0x0 PUSH1 0x4 PUSH1 0x0 DUP4 PUSH1 0x1 ADD SLOAD DUP2 MSTORE PUSH1 0x20 ADD SWAP1 DUP2 MSTORE PUSH1 0x20 ADD PUSH1 0x0 KECCAK256 SWAP1 POP PUSH1 0x0 DUP2 PUSH1 0x7 ADD PUSH1 0x0 PUSH2 0x100 EXP DUP2 SLOAD DUP2 PUSH1 0xFF MUL NOT AND SWAP1 DUP4 ISZERO ISZERO MUL OR SWAP1 SSTORE POP DUP4 PUSH32 0x43CC3D080E025C67C26D62B18BD442511DC9C76C8AA3F48CC0E8F456173E61F1 DUP5 PUSH1 0x40 MLOAD PUSH2 0xCB8 SWAP2 SWAP1 PUSH2 0x2D78 JUMP JUMPDEST PUSH1 0x40 MLOAD DUP1 SWAP2 SUB SWAP1 LOG2 POP POP POP POP JUMP JUMPDEST PUSH1 0x0 DUP1 PUSH1 0x0 DUP1 PUSH1 0x8 DUP6 PUSH1 0x40 MLOAD PUSH2 0xCDC SWAP2 SWAP1 PUSH2 0x2D61 JUMP JUMPDEST SWAP1 DUP2 MSTORE PUSH1 0x20 ADD PUSH1 0x40 MLOAD DUP1 SWAP2 SUB SWAP1 KECCAK256 SWAP1 POP DUP1 PUSH1 0x0 ADD PUSH1 0x0 SWAP1 SLOAD SWAP1 PUSH2 0x100 EXP SWAP1 DIV PUSH1 0xFF AND DUP2 PUSH1 0x0 ADD PUSH1 0x1 SWAP1 SLOAD SWAP1 PUSH2 0x100 EXP SWAP1 DIV PUSH1 0xFF AND DUP3 PUSH1 0x3 ADD SLOAD SWAP4 POP SWAP4 POP SWAP4 POP POP SWAP2 SWAP4 SWAP1 SWAP3 POP JUMP JUMPDEST PUSH2 0xD2B PUSH2 0x1F02 JUMP JUMPDEST PUSH2 0xD33 PUSH2 0x1F89 JUMP JUMPDEST PUSH1 0x0 PUSH1 0x5 PUSH1 0x0 DUP4 DUP2 MSTORE PUSH1 0x20 ADD SWAP1 DUP2 MSTORE PUSH1 0x20 ADD PUSH1 0x0 KECCAK256 SWAP1 POP PUSH1 0x0 PUSH1 0x3 DUP2 GT ISZERO PUSH2 0xD5E JUMPI PUSH2 0xD5D PUSH2 0x28B3 JUMP JUMPDEST JUMPDEST DUP2 PUSH1 0x6 ADD PUSH1 0x0 SWAP1 SLOAD SWAP1 PUSH2 0x100 EXP SWAP1 DIV PUSH1 0xFF AND PUSH1 0x3 DUP2 GT ISZERO PUSH2 0xD82 JUMPI PUSH2 0xD81 PUSH2 0x28B3 JUMP JUMPDEST JUMPDEST EQ PUSH2 0xDC2 JUMPI PUSH1 0x40 MLOAD PUSH32 0x8C379A000000000000000000000000000000000000000000000000000000000 DUP2 MSTORE PUSH1 0x4 ADD PUSH2 0xDB9 SWAP1 PUSH2 0x31DA JUMP JUMPDEST PUSH1 0x40 MLOAD DUP1 SWAP2 SUB SWAP1 REVERT JUMPDEST PUSH1 0x1 DUP2 PUSH1 0x6 ADD PUSH1 0x0 PUSH2 0x100 EXP DUP2 SLOAD DUP2 PUSH1 0xFF MUL NOT AND SWAP1 DUP4 PUSH1 0x3 DUP2 GT ISZERO PUSH2 0xDEA JUMPI PUSH2 0xDE9 PUSH2 0x28B3 JUMP JUMPDEST JUMPDEST MUL OR SWAP1 SSTORE POP DUP2 PUSH32 0x638D892B8630B775FEA5D7A52B209E8BFA1D90C32B57CD37208AC84D4BCD6DCB DUP3 PUSH1 0x3 ADD SLOAD PUSH1 0x40 MLOAD PUSH2 0xE23 SWAP2 SWAP1 PUSH2 0x26E1 JUMP JUMPDEST PUSH1 0x40 MLOAD DUP1 SWAP2 SUB SWAP1 LOG2 PUSH2 0xE34 DUP3 PUSH2 0x1FCF JUMP JUMPDEST POP PUSH2 0xE3D PUSH2 0x2295 JUMP JUMPDEST POP JUMP JUMPDEST PUSH1 0x0 DUP1 PUSH1 0x0 DUP1 PUSH1 0x0 DUP1 PUSH1 0x0 DUP1 PUSH1 0x5 PUSH1 0x0 DUP11 DUP2 MSTORE PUSH1 0x20 ADD SWAP1 DUP2 MSTORE PUSH1 0x20 ADD PUSH1 0x0 KECCAK256 SWAP1 POP DUP1 PUSH1 0x0 ADD SLOAD DUP2 PUSH1 0x1 ADD SLOAD DUP3 PUSH1 0x2 ADD PUSH1 0x0 SWAP1 SLOAD SWAP1 PUSH2 0x100 EXP SWAP1 DIV PUSH20 0xFFFFFFFFFFFFFFFFFFFFFFFFFFFFFFFFFFFFFFFF AND DUP4 PUSH1 0x3 ADD SLOAD DUP5 PUSH1 0x4 ADD PUSH1 0x0 SWAP1 SLOAD SWAP1 PUSH2 0x100 EXP SWAP1 DIV PUSH1 0xFF AND DUP6 PUSH1 0x5 ADD SLOAD DUP7 PUSH1 0x6 ADD PUSH1 0x0 SWAP1 SLOAD SWAP1 PUSH2 0x100 EXP SWAP1 DIV PUSH1 0xFF AND SWAP8 POP SWAP8 POP SWAP8 POP SWAP8 POP SWAP8 POP SWAP8 POP SWAP8 POP POP SWAP2 SWAP4 SWAP6 SWAP8 SWAP1 SWAP3 SWAP5 SWAP7 POP JUMP JUMPDEST PUSH1 0x9 SLOAD DUP2 JUMP JUMPDEST PUSH1 0x8 DUP2 DUP1 MLOAD PUSH1 0x20 DUP2 ADD DUP3 ADD DUP1 MLOAD DUP5 DUP3 MSTORE PUSH1 0x20 DUP4 ADD PUSH1 0x20 DUP6 ADD KECCAK256 DUP2 DUP4 MSTORE DUP1 SWAP6 POP POP POP POP POP POP PUSH1 0x0 SWAP2 POP SWAP1 POP DUP1 PUSH1 0x0 ADD PUSH1 0x0 SWAP1 SLOAD SWAP1 PUSH2 0x100 EXP SWAP1 DIV PUSH1 0xFF AND SWAP1 DUP1 PUSH1 0x0 ADD PUSH1 0x1 SWAP1 SLOAD SWAP1 PUSH2 0x100 EXP SWAP1 DIV PUSH1 0xFF AND SWAP1 DUP1 PUSH1 0x1 ADD DUP1 SLOAD PUSH2 0xF3D SWAP1 PUSH2 0x2E35 JUMP JUMPDEST DUP1 PUSH1 0x1F ADD PUSH1 0x20 DUP1 SWAP2 DIV MUL PUSH1 0x20 ADD PUSH1 0x40 MLOAD SWAP1 DUP2 ADD PUSH1 0x40 MSTORE DUP1 SWAP3 SWAP2 SWAP1 DUP2 DUP2 MSTORE PUSH1 0x20 ADD DUP3 DUP1 SLOAD PUSH2 0xF69 SWAP1 PUSH2 0x2E35 JUMP JUMPDEST DUP1 ISZERO PUSH2 0xFB6 JUMPI DUP1 PUSH1 0x1F LT PUSH2 0xF8B JUMPI PUSH2 0x100 DUP1 DUP4 SLOAD DIV MUL DUP4 MSTORE SWAP2 PUSH1 0x20 ADD SWAP2 PUSH2 0xFB6 JUMP JUMPDEST DUP3 ADD SWAP2 SWAP1 PUSH1 0x0 MSTORE PUSH1 0x20 PUSH1 0x0 KECCAK256 SWAP1 JUMPDEST DUP2 SLOAD DUP2 MSTORE SWAP1 PUSH1 0x1 ADD SWAP1 PUSH1 0x20 ADD DUP1 DUP4 GT PUSH2 0xF99 JUMPI DUP3 SWAP1 SUB PUSH1 0x1F AND DUP3 ADD SWAP2 JUMPDEST POP POP POP POP POP SWAP1 DUP1 PUSH1 0x2 ADD SLOAD SWAP1 DUP1 PUSH1 0x3 ADD SLOAD SWAP1 POP DUP6 JUMP JUMPDEST PUSH1 0x60 PUSH1 0x7 PUSH1 0x0 DUP4 PUSH20 0xFFFFFFFFFFFFFFFFFFFFFFFFFFFFFFFFFFFFFFFF AND PUSH20 0xFFFFFFFFFFFFFFFFFFFFFFFFFFFFFFFFFFFFFFFF AND DUP2 MSTORE PUSH1 0x20 ADD SWAP1 DUP2 MSTORE PUSH1 0x20 ADD PUSH1 0x0 KECCAK256 DUP1 SLOAD DUP1 PUSH1 0x20 MUL PUSH1 0x20 ADD PUSH1 0x40 MLOAD SWAP1 DUP2 ADD PUSH1 0x40 MSTORE DUP1 SWAP3 SWAP2 SWAP1 DUP2 DUP2 MSTORE PUSH1 0x20 ADD DUP3 DUP1 SLOAD DUP1 ISZERO PUSH2 0x1057 JUMPI PUSH1 0x20 MUL DUP3 ADD SWAP2 SWAP1 PUSH1 0x0 MSTORE PUSH1 0x20 PUSH1 0x0 KECCAK256 SWAP1 JUMPDEST DUP2 SLOAD DUP2 MSTORE PUSH1 0x20 ADD SWAP1 PUSH1 0x1 ADD SWAP1 DUP1 DUP4 GT PUSH2 0x1043 JUMPI JUMPDEST POP POP POP POP POP SWAP1 POP SWAP2 SWAP1 POP JUMP JUMPDEST PUSH1 0xB SLOAD DUP2 JUMP JUMPDEST PUSH1 0x0 SELFBALANCE SWAP1 POP SWAP1 JUMP JUMPDEST PUSH2 0x1079 PUSH2 0x1F02 JUMP JUMPDEST PUSH2 0x1083 PUSH1 0x0 PUSH2 0x229E JUMP JUMPDEST JUMP JUMPDEST PUSH2 0x108D PUSH2 0x1F02 JUMP JUMPDEST DUP1 PUSH1 0xC DUP2 SWAP1 SSTORE POP POP JUMP JUMPDEST PUSH1 0x0 PUSH2 0x10A1 PUSH2 0x1F89 JUMP JUMPDEST DUP5 CALLVALUE LT ISZERO PUSH2 0x10E4 JUMPI PUSH1 0x40 MLOAD PUSH32 0x8C379A000000000000000000000000000000000000000000000000000000000 DUP2 MSTORE PUSH1 0x4 ADD PUSH2 0x10DB SWAP1 PUSH2 0x3246 JUMP JUMPDEST PUSH1 0x40 MLOAD DUP1 SWAP2 SUB SWAP1 REVERT JUMPDEST PUSH3 0x15180 DUP4 LT ISZERO PUSH2 0x112A JUMPI PUSH1 0x40 MLOAD PUSH32 0x8C379A000000000000000000000000000000000000000000000000000000000 DUP2 MSTORE PUSH1 0x4 ADD PUSH2 0x1121 SWAP1 PUSH2 0x32B2 JUMP JUMPDEST PUSH1 0x40 MLOAD DUP1 SWAP2 SUB SWAP1 REVERT JUMPDEST PUSH1 0x0 DUP5 GT PUSH2 0x116D JUMPI PUSH1 0x40 MLOAD PUSH32 0x8C379A000000000000000000000000000000000000000000000000000000000 DUP2 MSTORE PUSH1 0x4 ADD PUSH2 0x1164 SWAP1 PUSH2 0x331E JUMP JUMPDEST PUSH1 0x40 MLOAD DUP1 SWAP2 SUB SWAP1 REVERT JUMPDEST PUSH1 0x2 PUSH1 0x0 DUP2 SLOAD DUP1 SWAP3 SWAP2 SWAP1 PUSH2 0x1180 SWAP1 PUSH2 0x336D JUMP JUMPDEST SWAP2 SWAP1 POP SSTORE POP PUSH1 0x0 PUSH1 0x2 SLOAD SWAP1 POP PUSH1 0x40 MLOAD DUP1 PUSH2 0x100 ADD PUSH1 0x40 MSTORE DUP1 DUP3 DUP2 MSTORE PUSH1 0x20 ADD DUP9 PUSH20 0xFFFFFFFFFFFFFFFFFFFFFFFFFFFFFFFFFFFFFFFF AND DUP2 MSTORE PUSH1 0x20 ADD DUP8 DUP2 MSTORE PUSH1 0x20 ADD DUP7 DUP2 MSTORE PUSH1 0x20 ADD DUP6 TIMESTAMP PUSH2 0x11D2 SWAP2 SWAP1 PUSH2 0x33B5 JUMP JUMPDEST DUP2 MSTORE PUSH1 0x20 ADD PUSH1 0x1 ISZERO ISZERO DUP2 MSTORE PUSH1 0x20 ADD DUP5 DUP2 MSTORE PUSH1 0x20 ADD PUSH1 0x0 ISZERO ISZERO DUP2 MSTORE POP PUSH1 0x4 PUSH1 0x0 DUP4 DUP2 MSTORE PUSH1 0x20 ADD SWAP1 DUP2 MSTORE PUSH1 0x20 ADD PUSH1 0x0 KECCAK256 PUSH1 0x0 DUP3 ADD MLOAD DUP2 PUSH1 0x0 ADD SSTORE PUSH1 0x20 DUP3 ADD MLOAD DUP2 PUSH1 0x1 ADD PUSH1 0x0 PUSH2 0x100 EXP DUP2 SLOAD DUP2 PUSH20 0xFFFFFFFFFFFFFFFFFFFFFFFFFFFFFFFFFFFFFFFF MUL NOT AND SWAP1 DUP4 PUSH20 0xFFFFFFFFFFFFFFFFFFFFFFFFFFFFFFFFFFFFFFFF AND MUL OR SWAP1 SSTORE POP PUSH1 0x40 DUP3 ADD MLOAD DUP2 PUSH1 0x2 ADD SSTORE PUSH1 0x60 DUP3 ADD MLOAD DUP2 PUSH1 0x3 ADD SSTORE PUSH1 0x80 DUP3 ADD MLOAD DUP2 PUSH1 0x4 ADD SSTORE PUSH1 0xA0 DUP3 ADD MLOAD DUP2 PUSH1 0x5 ADD PUSH1 0x0 PUSH2 0x100 EXP DUP2 SLOAD DUP2 PUSH1 0xFF MUL NOT AND SWAP1 DUP4 ISZERO ISZERO MUL OR SWAP1 SSTORE POP PUSH1 0xC0 DUP3 ADD MLOAD DUP2 PUSH1 0x6 ADD SWAP1 DUP2 PUSH2 0x12A4 SWAP2 SWAP1 PUSH2 0x3012 JUMP JUMPDEST POP PUSH1 0xE0 DUP3 ADD MLOAD DUP2 PUSH1 0x7 ADD PUSH1 0x0 PUSH2 0x100 EXP DUP2 SLOAD DUP2 PUSH1 0xFF MUL NOT AND SWAP1 DUP4 ISZERO ISZERO MUL OR SWAP1 SSTORE POP SWAP1 POP POP PUSH1 0x6 PUSH1 0x0 DUP9 PUSH20 0xFFFFFFFFFFFFFFFFFFFFFFFFFFFFFFFFFFFFFFFF AND PUSH20 0xFFFFFFFFFFFFFFFFFFFFFFFFFFFFFFFFFFFFFFFF AND DUP2 MSTORE PUSH1 0x20 ADD SWAP1 DUP2 MSTORE PUSH1 0x20 ADD PUSH1 0x0 KECCAK256 DUP2 SWAP1 DUP1 PUSH1 0x1 DUP2 SLOAD ADD DUP1 DUP3 SSTORE DUP1 SWAP2 POP POP PUSH1 0x1 SWAP1 SUB SWAP1 PUSH1 0x0 MSTORE PUSH1 0x20 PUSH1 0x0 KECCAK256 ADD PUSH1 0x0 SWAP1 SWAP2 SWAP1 SWAP2 SWAP1 SWAP2 POP SSTORE DUP6 PUSH1 0x9 PUSH1 0x0 DUP3 DUP3 SLOAD PUSH2 0x1340 SWAP2 SWAP1 PUSH2 0x33B5 JUMP JUMPDEST SWAP3 POP POP DUP2 SWAP1 SSTORE POP DUP5 PUSH1 0xA PUSH1 0x0 DUP3 DUP3 SLOAD PUSH2 0x1359 SWAP2 SWAP1 PUSH2 0x33B5 JUMP JUMPDEST SWAP3 POP POP DUP2 SWAP1 SSTORE POP DUP7 PUSH20 0xFFFFFFFFFFFFFFFFFFFFFFFFFFFFFFFFFFFFFFFF AND DUP2 PUSH32 0xB125FDE4284254E7F0E5B0B580E3D0B4EDEB74741BBC94196386F1A56D9C9CA4 DUP9 DUP9 DUP8 PUSH1 0x40 MLOAD PUSH2 0x13AB SWAP4 SWAP3 SWAP2 SWAP1 PUSH2 0x33E9 JUMP JUMPDEST PUSH1 0x40 MLOAD DUP1 SWAP2 SUB SWAP1 LOG3 DUP1 SWAP2 POP POP PUSH2 0x13BF PUSH2 0x2295 JUMP JUMPDEST SWAP6 SWAP5 POP POP POP POP POP JUMP JUMPDEST PUSH1 0x60 PUSH1 0x6 PUSH1 0x0 DUP4 PUSH20 0xFFFFFFFFFFFFFFFFFFFFFFFFFFFFFFFFFFFFFFFF AND PUSH20 0xFFFFFFFFFFFFFFFFFFFFFFFFFFFFFFFFFFFFFFFF AND DUP2 MSTORE PUSH1 0x20 ADD SWAP1 DUP2 MSTORE PUSH1 0x20 ADD PUSH1 0x0 KECCAK256 DUP1 SLOAD DUP1 PUSH1 0x20 MUL PUSH1 0x20 ADD PUSH1 0x40 MLOAD SWAP1 DUP2 ADD PUSH1 0x40 MSTORE DUP1 SWAP3 SWAP2 SWAP1 DUP2 DUP2 MSTORE PUSH1 0x20 ADD DUP3 DUP1 SLOAD DUP1 ISZERO PUSH2 0x1453 JUMPI PUSH1 0x20 MUL DUP3 ADD SWAP2 SWAP1 PUSH1 0x0 MSTORE PUSH1 0x20 PUSH1 0x0 KECCAK256 SWAP1 JUMPDEST DUP2 SLOAD DUP2 MSTORE PUSH1 0x20 ADD SWAP1 PUSH1 0x1 ADD SWAP1 DUP1 DUP4 GT PUSH2 0x143F JUMPI JUMPDEST POP POP POP POP POP SWAP1 POP SWAP2 SWAP1 POP JUMP JUMPDEST PUSH1 0x0 DUP1 PUSH1 0x0 SWAP1 SLOAD SWAP1 PUSH2 0x100 EXP SWAP1 DIV PUSH20 0xFFFFFFFFFFFFFFFFFFFFFFFFFFFFFFFFFFFFFFFF AND SWAP1 POP SWAP1 JUMP JUMPDEST PUSH1 0x6 PUSH1 0x20 MSTORE DUP2 PUSH1 0x0 MSTORE PUSH1 0x40 PUSH1 0x0 KECCAK256 DUP2 DUP2 SLOAD DUP2 LT PUSH2 0x14A4 JUMPI PUSH1 0x0 DUP1 REVERT JUMPDEST SWAP1 PUSH1 0x0 MSTORE PUSH1 0x20 PUSH1 0x0 KECCAK256 ADD PUSH1 0x0 SWAP2 POP SWAP2 POP POP SLOAD DUP2 JUMP JUMPDEST PUSH1 0x5 PUSH1 0x20 MSTORE DUP1 PUSH1 0x0 MSTORE PUSH1 0x40 PUSH1 0x0 KECCAK256 PUSH1 0x0 SWAP2 POP SWAP1 POP DUP1 PUSH1 0x0 ADD SLOAD SWAP1 DUP1 PUSH1 0x1 ADD SLOAD SWAP1 DUP1 PUSH1 0x2 ADD PUSH1 0x0 SWAP1 SLOAD SWAP1 PUSH2 0x100 EXP SWAP1 DIV PUSH20 0xFFFFFFFFFFFFFFFFFFFFFFFFFFFFFFFFFFFFFFFF AND SWAP1 DUP1 PUSH1 0x3 ADD SLOAD SWAP1 DUP1 PUSH1 0x4 ADD PUSH1 0x0 SWAP1 SLOAD SWAP1 PUSH2 0x100 EXP SWAP1 DIV PUSH1 0xFF AND SWAP1 DUP1 PUSH1 0x5 ADD SLOAD SWAP1 DUP1 PUSH1 0x6 ADD PUSH1 0x0 SWAP1 SLOAD SWAP1 PUSH2 0x100 EXP SWAP1 DIV PUSH1 0xFF AND SWAP1 DUP1 PUSH1 0x7 ADD DUP1 SLOAD PUSH2 0x1540 SWAP1 PUSH2 0x2E35 JUMP JUMPDEST DUP1 PUSH1 0x1F ADD PUSH1 0x20 DUP1 SWAP2 DIV MUL PUSH1 0x20 ADD PUSH1 0x40 MLOAD SWAP1 DUP2 ADD PUSH1 0x40 MSTORE DUP1 SWAP3 SWAP2 SWAP1 DUP2 DUP2 MSTORE PUSH1 0x20 ADD DUP3 DUP1 SLOAD PUSH2 0x156C SWAP1 PUSH2 0x2E35 JUMP JUMPDEST DUP1 ISZERO PUSH2 0x15B9 JUMPI DUP1 PUSH1 0x1F LT PUSH2 0x158E JUMPI PUSH2 0x100 DUP1 DUP4 SLOAD DIV MUL DUP4 MSTORE SWAP2 PUSH1 0x20 ADD SWAP2 PUSH2 0x15B9 JUMP JUMPDEST DUP3 ADD SWAP2 SWAP1 PUSH1 0x0 MSTORE PUSH1 0x20 PUSH1 0x0 KECCAK256 SWAP1 JUMPDEST DUP2 SLOAD DUP2 MSTORE SWAP1 PUSH1 0x1 ADD SWAP1 PUSH1 0x20 ADD DUP1 DUP4 GT PUSH2 0x159C JUMPI DUP3 SWAP1 SUB PUSH1 0x1F AND DUP3 ADD SWAP2 JUMPDEST POP POP POP POP POP SWAP1 POP DUP9 JUMP JUMPDEST PUSH1 0x0 PUSH1 0x3 SLOAD SWAP1 POP SWAP1 JUMP JUMPDEST PUSH2 0x15D5 PUSH2 0x1F89 JUMP JUMPDEST PUSH1 0x0 PUSH1 0x5 PUSH1 0x0 DUP4 DUP2 MSTORE PUSH1 0x20 ADD SWAP1 DUP2 MSTORE PUSH1 0x20 ADD PUSH1 0x0 KECCAK256 SWAP1 POP PUSH1 0x0 PUSH1 0x3 DUP2 GT ISZERO PUSH2 0x1600 JUMPI PUSH2 0x15FF PUSH2 0x28B3 JUMP JUMPDEST JUMPDEST DUP2 PUSH1 0x6 ADD PUSH1 0x0 SWAP1 SLOAD SWAP1 PUSH2 0x100 EXP SWAP1 DIV PUSH1 0xFF AND PUSH1 0x3 DUP2 GT ISZERO PUSH2 0x1624 JUMPI PUSH2 0x1623 PUSH2 0x28B3 JUMP JUMPDEST JUMPDEST EQ PUSH2 0x1664 JUMPI PUSH1 0x40 MLOAD PUSH32 0x8C379A000000000000000000000000000000000000000000000000000000000 DUP2 MSTORE PUSH1 0x4 ADD PUSH2 0x165B SWAP1 PUSH2 0x31DA JUMP JUMPDEST PUSH1 0x40 MLOAD DUP1 SWAP2 SUB SWAP1 REVERT JUMPDEST PUSH1 0x0 PUSH1 0x4 PUSH1 0x0 DUP4 PUSH1 0x1 ADD SLOAD DUP2 MSTORE PUSH1 0x20 ADD SWAP1 DUP2 MSTORE PUSH1 0x20 ADD PUSH1 0x0 KECCAK256 SWAP1 POP PUSH1 0x0 PUSH1 0x8 DUP3 PUSH1 0x6 ADD PUSH1 0x40 MLOAD PUSH2 0x1694 SWAP2 SWAP1 PUSH2 0x34AA JUMP JUMPDEST SWAP1 DUP2 MSTORE PUSH1 0x20 ADD PUSH1 0x40 MLOAD DUP1 SWAP2 SUB SWAP1 KECCAK256 SWAP1 POP DUP1 PUSH1 0x0 ADD PUSH1 0x0 SWAP1 SLOAD SWAP1 PUSH2 0x100 EXP SWAP1 DIV PUSH1 0xFF AND PUSH2 0x16F5 JUMPI PUSH1 0x40 MLOAD PUSH32 0x8C379A000000000000000000000000000000000000000000000000000000000 DUP2 MSTORE PUSH1 0x4 ADD PUSH2 0x16EC SWAP1 PUSH2 0x350D JUMP JUMPDEST PUSH1 0x40 MLOAD DUP1 SWAP2 SUB SWAP1 REVERT JUMPDEST DUP3 PUSH1 0x4 ADD PUSH1 0x0 SWAP1 SLOAD SWAP1 PUSH2 0x100 EXP SWAP1 DIV PUSH1 0xFF AND PUSH1 0x4 DUP2 GT ISZERO PUSH2 0x1719 JUMPI PUSH2 0x1718 PUSH2 0x28B3 JUMP JUMPDEST JUMPDEST DUP2 PUSH1 0x0 ADD PUSH1 0x1 SWAP1 SLOAD SWAP1 PUSH2 0x100 EXP SWAP1 DIV PUSH1 0xFF AND PUSH1 0x4 DUP2 GT ISZERO PUSH2 0x173D JUMPI PUSH2 0x173C PUSH2 0x28B3 JUMP JUMPDEST JUMPDEST EQ PUSH2 0x177D JUMPI PUSH1 0x40 MLOAD PUSH32 0x8C379A000000000000000000000000000000000000000000000000000000000 DUP2 MSTORE PUSH1 0x4 ADD PUSH2 0x1774 SWAP1 PUSH2 0x3579 JUMP JUMPDEST PUSH1 0x40 MLOAD DUP1 SWAP2 SUB SWAP1 REVERT JUMPDEST PUSH1 0xC SLOAD DUP4 PUSH1 0x5 ADD SLOAD PUSH2 0x178F SWAP2 SWAP1 PUSH2 0x33B5 JUMP JUMPDEST TIMESTAMP LT ISZERO PUSH2 0x17D1 JUMPI PUSH1 0x40 MLOAD PUSH32 0x8C379A000000000000000000000000000000000000000000000000000000000 DUP2 MSTORE PUSH1 0x4 ADD PUSH2 0x17C8 SWAP1 PUSH2 0x35E5 JUMP JUMPDEST PUSH1 0x40 MLOAD DUP1 SWAP2 SUB SWAP1 REVERT JUMPDEST PUSH1 0x1 DUP4 PUSH1 0x6 ADD PUSH1 0x0 PUSH2 0x100 EXP DUP2 SLOAD DUP2 PUSH1 0xFF MUL NOT AND SWAP1 DUP4 PUSH1 0x3 DUP2 GT ISZERO PUSH2 0x17F9 JUMPI PUSH2 0x17F8 PUSH2 0x28B3 JUMP JUMPDEST JUMPDEST MUL OR SWAP1 SSTORE POP DUP4 PUSH32 0x638D892B8630B775FEA5D7A52B209E8BFA1D90C32B57CD37208AC84D4BCD6DCB DUP5 PUSH1 0x3 ADD SLOAD PUSH1 0x40 MLOAD PUSH2 0x1832 SWAP2 SWAP1 PUSH2 0x26E1 JUMP JUMPDEST PUSH1 0x40 MLOAD DUP1 SWAP2 SUB SWAP1 LOG2 PUSH2 0x1843 DUP5 PUSH2 0x1FCF JUMP JUMPDEST POP POP POP PUSH2 0x184E PUSH2 0x2295 JUMP JUMPDEST POP JUMP JUMPDEST PUSH1 0x0 PUSH2 0x185B PUSH2 0x1F89 JUMP JUMPDEST PUSH1 0x0 PUSH1 0x4 PUSH1 0x0 DUP7 DUP2 MSTORE PUSH1 0x20 ADD SWAP1 DUP2 MSTORE PUSH1 0x20 ADD PUSH1 0x0 KECCAK256 SWAP1 POP CALLER PUSH20 0xFFFFFFFFFFFFFFFFFFFFFFFFFFFFFFFFFFFFFFFF AND DUP2 PUSH1 0x1 ADD PUSH1 0x0 SWAP1 SLOAD SWAP1 PUSH2 0x100 EXP SWAP1 DIV PUSH20 0xFFFFFFFFFFFFFFFFFFFFFFFFFFFFFFFFFFFFFFFF AND PUSH20 0xFFFFFFFFFFFFFFFFFFFFFFFFFFFFFFFFFFFFFFFF AND EQ PUSH2 0x1904 JUMPI PUSH1 0x40 MLOAD PUSH32 0x8C379A000000000000000000000000000000000000000000000000000000000 DUP2 MSTORE PUSH1 0x4 ADD PUSH2 0x18FB SWAP1 PUSH2 0x3651 JUMP JUMPDEST PUSH1 0x40 MLOAD DUP1 SWAP2 SUB SWAP1 REVERT JUMPDEST DUP1 PUSH1 0x5 ADD PUSH1 0x0 SWAP1 SLOAD SWAP1 PUSH2 0x100 EXP SWAP1 DIV PUSH1 0xFF AND PUSH2 0x1955 JUMPI PUSH1 0x40 MLOAD PUSH32 0x8C379A000000000000000000000000000000000000000000000000000000000 DUP2 MSTORE PUSH1 0x4 ADD PUSH2 0x194C SWAP1 PUSH2 0x36BD JUMP JUMPDEST PUSH1 0x40 MLOAD DUP1 SWAP2 SUB SWAP1 REVERT JUMPDEST DUP1 PUSH1 0x7 ADD PUSH1 0x0 SWAP1 SLOAD SWAP1 PUSH2 0x100 EXP SWAP1 DIV PUSH1 0xFF AND ISZERO PUSH2 0x19A7 JUMPI PUSH1 0x40 MLOAD PUSH32 0x8C379A000000000000000000000000000000000000000000000000000000000 DUP2 MSTORE PUSH1 0x4 ADD PUSH2 0x199E SWAP1 PUSH2 0x3729 JUMP JUMPDEST PUSH1 0x40 MLOAD DUP1 SWAP2 SUB SWAP1 REVERT JUMPDEST DUP1 PUSH1 0x4 ADD SLOAD TIMESTAMP GT ISZERO PUSH2 0x19EE JUMPI PUSH1 0x40 MLOAD PUSH32 0x8C379A000000000000000000000000000000000000000000000000000000000 DUP2 MSTORE PUSH1 0x4 ADD PUSH2 0x19E5 SWAP1 PUSH2 0x3795 JUMP JUMPDEST PUSH1 0x40 MLOAD DUP1 SWAP2 SUB SWAP1 REVERT JUMPDEST PUSH1 0x0 PUSH1 0x8 DUP3 PUSH1 0x6 ADD PUSH1 0x40 MLOAD PUSH2 0x1A03 SWAP2 SWAP1 PUSH2 0x34AA JUMP JUMPDEST SWAP1 DUP2 MSTORE PUSH1 0x20 ADD PUSH1 0x40 MLOAD DUP1 SWAP2 SUB SWAP1 KECCAK256 SWAP1 POP DUP1 PUSH1 0x0 ADD PUSH1 0x0 SWAP1 SLOAD SWAP1 PUSH2 0x100 EXP SWAP1 DIV PUSH1 0xFF AND PUSH2 0x1A64 JUMPI PUSH1 0x40 MLOAD PUSH32 0x8C379A000000000000000000000000000000000000000000000000000000000 DUP2 MSTORE PUSH1 0x4 ADD PUSH2 0x1A5B SWAP1 PUSH2 0x3827 JUMP JUMPDEST PUSH1 0x40 MLOAD DUP1 SWAP2 SUB SWAP1 REVERT JUMPDEST DUP5 PUSH1 0x4 DUP2 GT ISZERO PUSH2 0x1A77 JUMPI PUSH2 0x1A76 PUSH2 0x28B3 JUMP JUMPDEST JUMPDEST DUP2 PUSH1 0x0 ADD PUSH1 0x1 SWAP1 SLOAD SWAP1 PUSH2 0x100 EXP SWAP1 DIV PUSH1 0xFF AND PUSH1 0x4 DUP2 GT ISZERO PUSH2 0x1A9B JUMPI PUSH2 0x1A9A PUSH2 0x28B3 JUMP JUMPDEST JUMPDEST EQ PUSH2 0x1ADB JUMPI PUSH1 0x40 MLOAD PUSH32 0x8C379A000000000000000000000000000000000000000000000000000000000 DUP2 MSTORE PUSH1 0x4 ADD PUSH2 0x1AD2 SWAP1 PUSH2 0x3579 JUMP JUMPDEST PUSH1 0x40 MLOAD DUP1 SWAP2 SUB SWAP1 REVERT JUMPDEST PUSH1 0x3 PUSH1 0x0 DUP2 SLOAD DUP1 SWAP3 SWAP2 SWAP1 PUSH2 0x1AEE SWAP1 PUSH2 0x336D JUMP JUMPDEST SWAP2 SWAP1 POP SSTORE POP PUSH1 0x0 PUSH1 0x3 SLOAD SWAP1 POP PUSH1 0x40 MLOAD DUP1 PUSH2 0x100 ADD PUSH1 0x40 MSTORE DUP1 DUP3 DUP2 MSTORE PUSH1 0x20 ADD DUP9 DUP2 MSTORE PUSH1 0x20 ADD CALLER PUSH20 0xFFFFFFFFFFFFFFFFFFFFFFFFFFFFFFFFFFFFFFFF AND DUP2 MSTORE PUSH1 0x20 ADD DUP5 PUSH1 0x3 ADD SLOAD DUP2 MSTORE PUSH1 0x20 ADD DUP8 PUSH1 0x4 DUP2 GT ISZERO PUSH2 0x1B4B JUMPI PUSH2 0x1B4A PUSH2 0x28B3 JUMP JUMPDEST JUMPDEST DUP2 MSTORE PUSH1 0x20 ADD TIMESTAMP DUP2 MSTORE PUSH1 0x20 ADD PUSH1 0x0 PUSH1 0x3 DUP2 GT ISZERO PUSH2 0x1B6A JUMPI PUSH2 0x1B69 PUSH2 0x28B3 JUMP JUMPDEST JUMPDEST DUP2 MSTORE PUSH1 0x20 ADD DUP7 DUP2 MSTORE POP PUSH1 0x5 PUSH1 0x0 DUP4 DUP2 MSTORE PUSH1 0x20 ADD SWAP1 DUP2 MSTORE PUSH1 0x20 ADD PUSH1 0x0 KECCAK256 PUSH1 0x0 DUP3 ADD MLOAD DUP2 PUSH1 0x0 ADD SSTORE PUSH1 0x20 DUP3 ADD MLOAD DUP2 PUSH1 0x1 ADD SSTORE PUSH1 0x40 DUP3 ADD MLOAD DUP2 PUSH1 0x2 ADD PUSH1 0x0 PUSH2 0x100 EXP DUP2 SLOAD DUP2 PUSH20 0xFFFFFFFFFFFFFFFFFFFFFFFFFFFFFFFFFFFFFFFF MUL NOT AND SWAP1 DUP4 PUSH20 0xFFFFFFFFFFFFFFFFFFFFFFFFFFFFFFFFFFFFFFFF AND MUL OR SWAP1 SSTORE POP PUSH1 0x60 DUP3 ADD MLOAD DUP2 PUSH1 0x3 ADD SSTORE PUSH1 0x80 DUP3 ADD MLOAD DUP2 PUSH1 0x4 ADD PUSH1 0x0 PUSH2 0x100 EXP DUP2 SLOAD DUP2 PUSH1 0xFF MUL NOT AND SWAP1 DUP4 PUSH1 0x4 DUP2 GT ISZERO PUSH2 0x1C16 JUMPI PUSH2 0x1C15 PUSH2 0x28B3 JUMP JUMPDEST JUMPDEST MUL OR SWAP1 SSTORE POP PUSH1 0xA0 DUP3 ADD MLOAD DUP2 PUSH1 0x5 ADD SSTORE PUSH1 0xC0 DUP3 ADD MLOAD DUP2 PUSH1 0x6 ADD PUSH1 0x0 PUSH2 0x100 EXP DUP2 SLOAD DUP2 PUSH1 0xFF MUL NOT AND SWAP1 DUP4 PUSH1 0x3 DUP2 GT ISZERO PUSH2 0x1C50 JUMPI PUSH2 0x1C4F PUSH2 0x28B3 JUMP JUMPDEST JUMPDEST MUL OR SWAP1 SSTORE POP PUSH1 0xE0 DUP3 ADD MLOAD DUP2 PUSH1 0x7 ADD SWAP1 DUP2 PUSH2 0x1C6A SWAP2 SWAP1 PUSH2 0x3012 JUMP JUMPDEST POP SWAP1 POP POP PUSH1 0x7 PUSH1 0x0 CALLER PUSH20 0xFFFFFFFFFFFFFFFFFFFFFFFFFFFFFFFFFFFFFFFF AND PUSH20 0xFFFFFFFFFFFFFFFFFFFFFFFFFFFFFFFFFFFFFFFF AND DUP2 MSTORE PUSH1 0x20 ADD SWAP1 DUP2 MSTORE PUSH1 0x20 ADD PUSH1 0x0 KECCAK256 DUP2 SWAP1 DUP1 PUSH1 0x1 DUP2 SLOAD ADD DUP1 DUP3 SSTORE DUP1 SWAP2 POP POP PUSH1 0x1 SWAP1 SUB SWAP1 PUSH1 0x0 MSTORE PUSH1 0x20 PUSH1 0x0 KECCAK256 ADD PUSH1 0x0 SWAP1 SWAP2 SWAP1 SWAP2 SWAP1 SWAP2 POP SSTORE PUSH1 0x1 DUP4 PUSH1 0x7 ADD PUSH1 0x0 PUSH2 0x100 EXP DUP2 SLOAD DUP2 PUSH1 0xFF MUL NOT AND SWAP1 DUP4 ISZERO ISZERO MUL OR SWAP1 SSTORE POP CALLER PUSH20 0xFFFFFFFFFFFFFFFFFFFFFFFFFFFFFFFFFFFFFFFF AND DUP8 DUP3 PUSH32 0x726CD0ADF04DB32895848D0286BE81E9E529127524CE7950D34C4E3EB343B5D2 DUP7 PUSH1 0x3 ADD SLOAD DUP11 PUSH1 0x40 MLOAD PUSH2 0x1D3F SWAP3 SWAP2 SWAP1 PUSH2 0x3847 JUMP JUMPDEST PUSH1 0x40 MLOAD DUP1 SWAP2 SUB SWAP1 LOG4 DUP1 SWAP4 POP POP POP POP PUSH2 0x1D55 PUSH2 0x2295 JUMP JUMPDEST SWAP4 SWAP3 POP POP POP JUMP JUMPDEST PUSH1 0xC SLOAD DUP2 JUMP JUMPDEST PUSH1 0x4 PUSH1 0x20 MSTORE DUP1 PUSH1 0x0 MSTORE PUSH1 0x40 PUSH1 0x0 KECCAK256 PUSH1 0x0 SWAP2 POP SWAP1 POP DUP1 PUSH1 0x0 ADD SLOAD SWAP1 DUP1 PUSH1 0x1 ADD PUSH1 0x0 SWAP1 SLOAD SWAP1 PUSH2 0x100 EXP SWAP1 DIV PUSH20 0xFFFFFFFFFFFFFFFFFFFFFFFFFFFFFFFFFFFFFFFF AND SWAP1 DUP1 PUSH1 0x2 ADD SLOAD SWAP1 DUP1 PUSH1 0x3 ADD SLOAD SWAP1 DUP1 PUSH1 0x4 ADD SLOAD SWAP1 DUP1 PUSH1 0x5 ADD PUSH1 0x0 SWAP1 SLOAD SWAP1 PUSH2 0x100 EXP SWAP1 DIV PUSH1 0xFF AND SWAP1 DUP1 PUSH1 0x6 ADD DUP1 SLOAD PUSH2 0x1DD6 SWAP1 PUSH2 0x2E35 JUMP JUMPDEST DUP1 PUSH1 0x1F ADD PUSH1 0x20 DUP1 SWAP2 DIV MUL PUSH1 0x20 ADD PUSH1 0x40 MLOAD SWAP1 DUP2 ADD PUSH1 0x40 MSTORE DUP1 SWAP3 SWAP2 SWAP1 DUP2 DUP2 MSTORE PUSH1 0x20 ADD DUP3 DUP1 SLOAD PUSH2 0x1E02 SWAP1 PUSH2 0x2E35 JUMP JUMPDEST DUP1 ISZERO PUSH2 0x1E4F JUMPI DUP1 PUSH1 0x1F LT PUSH2 0x1E24 JUMPI PUSH2 0x100 DUP1 DUP4 SLOAD DIV MUL DUP4 MSTORE SWAP2 PUSH1 0x20 ADD SWAP2 PUSH2 0x1E4F JUMP JUMPDEST DUP3 ADD SWAP2 SWAP1 PUSH1 0x0 MSTORE PUSH1 0x20 PUSH1 0x0 KECCAK256 SWAP1 JUMPDEST DUP2 SLOAD DUP2 MSTORE SWAP1 PUSH1 0x1 ADD SWAP1 PUSH1 0x20 ADD DUP1 DUP4 GT PUSH2 0x1E32 JUMPI DUP3 SWAP1 SUB PUSH1 0x1F AND DUP3 ADD SWAP2 JUMPDEST POP POP POP POP POP SWAP1 DUP1 PUSH1 0x7 ADD PUSH1 0x0 SWAP1 SLOAD SWAP1 PUSH2 0x100 EXP SWAP1 DIV PUSH1 0xFF AND SWAP1 POP DUP9 JUMP JUMPDEST PUSH1 0xA SLOAD DUP2 JUMP JUMPDEST PUSH1 0x0 PUSH1 0x2 SLOAD SWAP1 POP SWAP1 JUMP JUMPDEST PUSH2 0x1E84 PUSH2 0x1F02 JUMP JUMPDEST PUSH1 0x0 PUSH20 0xFFFFFFFFFFFFFFFFFFFFFFFFFFFFFFFFFFFFFFFF AND DUP2 PUSH20 0xFFFFFFFFFFFFFFFFFFFFFFFFFFFFFFFFFFFFFFFF AND SUB PUSH2 0x1EF6 JUMPI PUSH1 0x0 PUSH1 0x40 MLOAD PUSH32 0x1E4FBDF700000000000000000000000000000000000000000000000000000000 DUP2 MSTORE PUSH1 0x4 ADD PUSH2 0x1EED SWAP2 SWAP1 PUSH2 0x2C16 JUMP JUMPDEST PUSH1 0x40 MLOAD DUP1 SWAP2 SUB SWAP1 REVERT JUMPDEST PUSH2 0x1EFF DUP2 PUSH2 0x229E JUMP JUMPDEST POP JUMP JUMPDEST PUSH2 0x1F0A PUSH2 0x2362 JUMP JUMPDEST PUSH20 0xFFFFFFFFFFFFFFFFFFFFFFFFFFFFFFFFFFFFFFFF AND PUSH2 0x1F28 PUSH2 0x145F JUMP JUMPDEST PUSH20 0xFFFFFFFFFFFFFFFFFFFFFFFFFFFFFFFFFFFFFFFF AND EQ PUSH2 0x1F87 JUMPI PUSH2 0x1F4B PUSH2 0x2362 JUMP JUMPDEST PUSH1 0x40 MLOAD PUSH32 0x118CDAA700000000000000000000000000000000000000000000000000000000 DUP2 MSTORE PUSH1 0x4 ADD PUSH2 0x1F7E SWAP2 SWAP1 PUSH2 0x2C16 JUMP JUMPDEST PUSH1 0x40 MLOAD DUP1 SWAP2 SUB SWAP1 REVERT JUMPDEST JUMP JUMPDEST PUSH1 0x2 PUSH1 0x1 SLOAD SUB PUSH2 0x1FC5 JUMPI PUSH1 0x40 MLOAD PUSH32 0x3EE5AEB500000000000000000000000000000000000000000000000000000000 DUP2 MSTORE PUSH1 0x4 ADD PUSH1 0x40 MLOAD DUP1 SWAP2 SUB SWAP1 REVERT JUMPDEST PUSH1 0x2 PUSH1 0x1 DUP2 SWAP1 SSTORE POP JUMP JUMPDEST PUSH1 0x0 PUSH1 0x5 PUSH1 0x0 DUP4 DUP2 MSTORE PUSH1 0x20 ADD SWAP1 DUP2 MSTORE PUSH1 0x20 ADD PUSH1 0x0 KECCAK256 SWAP1 POP PUSH1 0x1 PUSH1 0x3 DUP2 GT ISZERO PUSH2 0x1FFA JUMPI PUSH2 0x1FF9 PUSH2 0x28B3 JUMP JUMPDEST JUMPDEST DUP2 PUSH1 0x6 ADD PUSH1 0x0 SWAP1 SLOAD SWAP1 PUSH2 0x100 EXP SWAP1 DIV PUSH1 0xFF AND PUSH1 0x3 DUP2 GT ISZERO PUSH2 0x201E JUMPI PUSH2 0x201D PUSH2 0x28B3 JUMP JUMPDEST JUMPDEST EQ PUSH2 0x205E JUMPI PUSH1 0x40 MLOAD PUSH32 0x8C379A000000000000000000000000000000000000000000000000000000000 DUP2 MSTORE PUSH1 0x4 ADD PUSH2 0x2055 SWAP1 PUSH2 0x38BC JUMP JUMPDEST PUSH1 0x40 MLOAD DUP1 SWAP2 SUB SWAP1 REVERT JUMPDEST DUP1 PUSH1 0x3 ADD SLOAD SELFBALANCE LT ISZERO PUSH2 0x20A5 JUMPI PUSH1 0x40 MLOAD PUSH32 0x8C379A000000000000000000000000000000000000000000000000000000000 DUP2 MSTORE PUSH1 0x4 ADD PUSH2 0x209C SWAP1 PUSH2 0x3928 JUMP JUMPDEST PUSH1 0x40 MLOAD DUP1 SWAP2 SUB SWAP1 REVERT JUMPDEST PUSH1 0x3 DUP2 PUSH1 0x6 ADD PUSH1 0x0 PUSH2 0x100 EXP DUP2 SLOAD DUP2 PUSH1 0xFF MUL NOT AND SWAP1 DUP4 PUSH1 0x3 DUP2 GT ISZERO PUSH2 0x20CD JUMPI PUSH2 0x20CC PUSH2 0x28B3 JUMP JUMPDEST JUMPDEST MUL OR SWAP1 SSTORE POP PUSH1 0x0 PUSH1 0x4 PUSH1 0x0 DUP4 PUSH1 0x1 ADD SLOAD DUP2 MSTORE PUSH1 0x20 ADD SWAP1 DUP2 MSTORE PUSH1 0x20 ADD PUSH1 0x0 KECCAK256 SWAP1 POP PUSH1 0x0 DUP2 PUSH1 0x5 ADD PUSH1 0x0 PUSH2 0x100 EXP DUP2 SLOAD DUP2 PUSH1 0xFF MUL NOT AND SWAP1 DUP4 ISZERO ISZERO MUL OR SWAP1 SSTORE POP DUP1 PUSH1 0x3 ADD SLOAD PUSH1 0xA PUSH1 0x0 DUP3 DUP3 SLOAD PUSH2 0x2120 SWAP2 SWAP1 PUSH2 0x3948 JUMP JUMPDEST SWAP3 POP POP DUP2 SWAP1 SSTORE POP DUP2 PUSH1 0x3 ADD SLOAD PUSH1 0xB PUSH1 0x0 DUP3 DUP3 SLOAD PUSH2 0x213D SWAP2 SWAP1 PUSH2 0x33B5 JUMP JUMPDEST SWAP3 POP POP DUP2 SWAP1 SSTORE POP PUSH1 0x0 DUP3 PUSH1 0x2 ADD PUSH1 0x0 SWAP1 SLOAD SWAP1 PUSH2 0x100 EXP SWAP1 DIV PUSH20 0xFFFFFFFFFFFFFFFFFFFFFFFFFFFFFFFFFFFFFFFF AND PUSH20 0xFFFFFFFFFFFFFFFFFFFFFFFFFFFFFFFFFFFFFFFF AND DUP4 PUSH1 0x3 ADD SLOAD PUSH1 0x40 MLOAD PUSH2 0x2192 SWAP1 PUSH2 0x39AD JUMP JUMPDEST PUSH1 0x0 PUSH1 0x40 MLOAD DUP1 DUP4 SUB DUP2 DUP6 DUP8 GAS CALL SWAP3 POP POP POP RETURNDATASIZE DUP1 PUSH1 0x0 DUP2 EQ PUSH2 0x21CF JUMPI PUSH1 0x40 MLOAD SWAP2 POP PUSH1 0x1F NOT PUSH1 0x3F RETURNDATASIZE ADD AND DUP3 ADD PUSH1 0x40 MSTORE RETURNDATASIZE DUP3 MSTORE RETURNDATASIZE PUSH1 0x0 PUSH1 0x20 DUP5 ADD RETURNDATACOPY PUSH2 0x21D4 JUMP JUMPDEST PUSH1 0x60 SWAP2 POP JUMPDEST POP POP SWAP1 POP DUP1 PUSH2 0x2218 JUMPI PUSH1 0x40 MLOAD PUSH32 0x8C379A000000000000000000000000000000000000000000000000000000000 DUP2 MSTORE PUSH1 0x4 ADD PUSH2 0x220F SWAP1 PUSH2 0x3A0E JUMP JUMPDEST PUSH1 0x40 MLOAD DUP1 SWAP2 SUB SWAP1 REVERT JUMPDEST DUP3 PUSH1 0x2 ADD PUSH1 0x0 SWAP1 SLOAD SWAP1 PUSH2 0x100 EXP SWAP1 DIV PUSH20 0xFFFFFFFFFFFFFFFFFFFFFFFFFFFFFFFFFFFFFFFF AND PUSH20 0xFFFFFFFFFFFFFFFFFFFFFFFFFFFFFFFFFFFFFFFF AND DUP5 PUSH32 0xAF3C8FDD75D667F71D36D7840B8EF9086C516C9B047AD6A83A5A66151342123A DUP6 PUSH1 0x3 ADD SLOAD PUSH1 0x40 MLOAD PUSH2 0x2287 SWAP2 SWAP1 PUSH2 0x26E1 JUMP JUMPDEST PUSH1 0x40 MLOAD DUP1 SWAP2 SUB SWAP1 LOG3 POP POP POP POP JUMP JUMPDEST PUSH1 0x1 DUP1 DUP2 SWAP1 SSTORE POP JUMP JUMPDEST PUSH1 0x0 DUP1 PUSH1 0x0 SWAP1 SLOAD SWAP1 PUSH2 0x100 EXP SWAP1 DIV PUSH20 0xFFFFFFFFFFFFFFFFFFFFFFFFFFFFFFFFFFFFFFFF AND SWAP1 POP DUP2 PUSH1 0x0 DUP1 PUSH2 0x100 EXP DUP2 SLOAD DUP2 PUSH20 0xFFFFFFFFFFFFFFFFFFFFFFFFFFFFFFFFFFFFFFFF MUL NOT AND SWAP1 DUP4 PUSH20 0xFFFFFFFFFFFFFFFFFFFFFFFFFFFFFFFFFFFFFFFF AND MUL OR SWAP1 SSTORE POP DUP2 PUSH20 0xFFFFFFFFFFFFFFFFFFFFFFFFFFFFFFFFFFFFFFFF AND DUP2 PUSH20 0xFFFFFFFFFFFFFFFFFFFFFFFFFFFFFFFFFFFFFFFF AND PUSH32 0x8BE0079C531659141344CD1FD0A4F28419497F9722A3DAAFE3B4186F6B6457E0 PUSH1 0x40 MLOAD PUSH1 0x40 MLOAD DUP1 SWAP2 SUB SWAP1 LOG3 POP POP JUMP JUMPDEST PUSH1 0x0 CALLER SWAP1 POP SWAP1 JUMP JUMPDEST POP DUP1 SLOAD PUSH2 0x2376 SWAP1 PUSH2 0x2E35 JUMP JUMPDEST PUSH1 0x0 DUP3 SSTORE DUP1 PUSH1 0x1F LT PUSH2 0x2388 JUMPI POP PUSH2 0x23A7 JUMP JUMPDEST PUSH1 0x1F ADD PUSH1 0x20 SWAP1 DIV SWAP1 PUSH1 0x0 MSTORE PUSH1 0x20 PUSH1 0x0 KECCAK256 SWAP1 DUP2 ADD SWAP1 PUSH2 0x23A6 SWAP2 SWAP1 PUSH2 0x23AA JUMP JUMPDEST JUMPDEST POP JUMP JUMPDEST JUMPDEST DUP1 DUP3 GT ISZERO PUSH2 0x23C3 JUMPI PUSH1 0x0 DUP2 PUSH1 0x0 SWAP1 SSTORE POP PUSH1 0x1 ADD PUSH2 0x23AB JUMP JUMPDEST POP SWAP1 JUMP JUMPDEST PUSH1 0x0 PUSH1 0x40 MLOAD SWAP1 POP SWAP1 JUMP JUMPDEST PUSH1 0x0 DUP1 REVERT JUMPDEST PUSH1 0x0 DUP1 REVERT JUMPDEST PUSH1 0x0 DUP1 REVERT JUMPDEST PUSH1 0x0 DUP1 REVERT JUMPDEST PUSH1 0x0 PUSH1 0x1F NOT PUSH1 0x1F DUP4 ADD AND SWAP1 POP SWAP2 SWAP1 POP JUMP JUMPDEST PUSH32 0x4E487B7100000000000000000000000000000000000000000000000000000000 PUSH1 0x0 MSTORE PUSH1 0x41 PUSH1 0x4 MSTORE PUSH1 0x24 PUSH1 0x0 REVERT JUMPDEST PUSH2 0x242E DUP3 PUSH2 0x23E5 JUMP JUMPDEST DUP2 ADD DUP2 DUP2 LT PUSH8 0xFFFFFFFFFFFFFFFF DUP3 GT OR ISZERO PUSH2 0x244D JUMPI PUSH2 0x244C PUSH2 0x23F6 JUMP JUMPDEST JUMPDEST DUP1 PUSH1 0x40 MSTORE POP POP POP JUMP JUMPDEST PUSH1 0x0 PUSH2 0x2460 PUSH2 0x23C7 JUMP JUMPDEST SWAP1 POP PUSH2 0x246C DUP3 DUP3 PUSH2 0x2425 JUMP JUMPDEST SWAP2 SWAP1 POP JUMP JUMPDEST PUSH1 0x0 PUSH8 0xFFFFFFFFFFFFFFFF DUP3 GT ISZERO PUSH2 0x248C JUMPI PUSH2 0x248B PUSH2 0x23F6 JUMP JUMPDEST JUMPDEST PUSH2 0x2495 DUP3 PUSH2 0x23E5 JUMP JUMPDEST SWAP1 POP PUSH1 0x20 DUP2 ADD SWAP1 POP SWAP2 SWAP1 POP JUMP JUMPDEST DUP3 DUP2 DUP4 CALLDATACOPY PUSH1 0x0 DUP4 DUP4 ADD MSTORE POP POP POP JUMP JUMPDEST PUSH1 0x0 PUSH2 0x24C4 PUSH2 0x24BF DUP5 PUSH2 0x2471 JUMP JUMPDEST PUSH2 0x2456 JUMP JUMPDEST SWAP1 POP DUP3 DUP2 MSTORE PUSH1 0x20 DUP2 ADD DUP5 DUP5 DUP5 ADD GT ISZERO PUSH2 0x24E0 JUMPI PUSH2 0x24DF PUSH2 0x23E0 JUMP JUMPDEST JUMPDEST PUSH2 0x24EB DUP5 DUP3 DUP6 PUSH2 0x24A2 JUMP JUMPDEST POP SWAP4 SWAP3 POP POP POP JUMP JUMPDEST PUSH1 0x0 DUP3 PUSH1 0x1F DUP4 ADD SLT PUSH2 0x2508 JUMPI PUSH2 0x2507 PUSH2 0x23DB JUMP JUMPDEST JUMPDEST DUP2 CALLDATALOAD PUSH2 0x2518 DUP5 DUP3 PUSH1 0x20 DUP7 ADD PUSH2 0x24B1 JUMP JUMPDEST SWAP2 POP POP SWAP3 SWAP2 POP POP JUMP JUMPDEST PUSH1 0x0 PUSH1 0x20 DUP3 DUP5 SUB SLT ISZERO PUSH2 0x2537 JUMPI PUSH2 0x2536 PUSH2 0x23D1 JUMP JUMPDEST JUMPDEST PUSH1 0x0 DUP3 ADD CALLDATALOAD PUSH8 0xFFFFFFFFFFFFFFFF DUP2 GT ISZERO PUSH2 0x2555 JUMPI PUSH2 0x2554 PUSH2 0x23D6 JUMP JUMPDEST JUMPDEST PUSH2 0x2561 DUP5 DUP3 DUP6 ADD PUSH2 0x24F3 JUMP JUMPDEST SWAP2 POP POP SWAP3 SWAP2 POP POP JUMP JUMPDEST PUSH1 0x5 DUP2 LT PUSH2 0x2577 JUMPI PUSH1 0x0 DUP1 REVERT JUMPDEST POP JUMP JUMPDEST PUSH1 0x0 DUP2 CALLDATALOAD SWAP1 POP PUSH2 0x2589 DUP2 PUSH2 0x256A JUMP JUMPDEST SWAP3 SWAP2 POP POP JUMP JUMPDEST PUSH1 0x0 DUP2 SWAP1 POP SWAP2 SWAP1 POP JUMP JUMPDEST PUSH2 0x25A2 DUP2 PUSH2 0x258F JUMP JUMPDEST DUP2 EQ PUSH2 0x25AD JUMPI PUSH1 0x0 DUP1 REVERT JUMPDEST POP JUMP JUMPDEST PUSH1 0x0 DUP2 CALLDATALOAD SWAP1 POP PUSH2 0x25BF DUP2 PUSH2 0x2599 JUMP JUMPDEST SWAP3 SWAP2 POP POP JUMP JUMPDEST PUSH1 0x0 DUP1 PUSH1 0x0 PUSH1 0x60 DUP5 DUP7 SUB SLT ISZERO PUSH2 0x25DE JUMPI PUSH2 0x25DD PUSH2 0x23D1 JUMP JUMPDEST JUMPDEST PUSH1 0x0 DUP5 ADD CALLDATALOAD PUSH8 0xFFFFFFFFFFFFFFFF DUP2 GT ISZERO PUSH2 0x25FC JUMPI PUSH2 0x25FB PUSH2 0x23D6 JUMP JUMPDEST JUMPDEST PUSH2 0x2608 DUP7 DUP3 DUP8 ADD PUSH2 0x24F3 JUMP JUMPDEST SWAP4 POP POP PUSH1 0x20 PUSH2 0x2619 DUP7 DUP3 DUP8 ADD PUSH2 0x257A JUMP JUMPDEST SWAP3 POP POP PUSH1 0x40 PUSH2 0x262A DUP7 DUP3 DUP8 ADD PUSH2 0x25B0 JUMP JUMPDEST SWAP2 POP POP SWAP3 POP SWAP3 POP SWAP3 JUMP JUMPDEST PUSH1 0x0 PUSH20 0xFFFFFFFFFFFFFFFFFFFFFFFFFFFFFFFFFFFFFFFF DUP3 AND SWAP1 POP SWAP2 SWAP1 POP JUMP JUMPDEST PUSH1 0x0 PUSH2 0x265F DUP3 PUSH2 0x2634 JUMP JUMPDEST SWAP1 POP SWAP2 SWAP1 POP JUMP JUMPDEST PUSH2 0x266F DUP2 PUSH2 0x2654 JUMP JUMPDEST DUP2 EQ PUSH2 0x267A JUMPI PUSH1 0x0 DUP1 REVERT JUMPDEST POP JUMP JUMPDEST PUSH1 0x0 DUP2 CALLDATALOAD SWAP1 POP PUSH2 0x268C DUP2 PUSH2 0x2666 JUMP JUMPDEST SWAP3 SWAP2 POP POP JUMP JUMPDEST PUSH1 0x0 DUP1 PUSH1 0x40 DUP4 DUP6 SUB SLT ISZERO PUSH2 0x26A9 JUMPI PUSH2 0x26A8 PUSH2 0x23D1 JUMP JUMPDEST JUMPDEST PUSH1 0x0 PUSH2 0x26B7 DUP6 DUP3 DUP7 ADD PUSH2 0x267D JUMP JUMPDEST SWAP3 POP POP PUSH1 0x20 PUSH2 0x26C8 DUP6 DUP3 DUP7 ADD PUSH2 0x25B0 JUMP JUMPDEST SWAP2 POP POP SWAP3 POP SWAP3 SWAP1 POP JUMP JUMPDEST PUSH2 0x26DB DUP2 PUSH2 0x258F JUMP JUMPDEST DUP3 MSTORE POP POP JUMP JUMPDEST PUSH1 0x0 PUSH1 0x20 DUP3 ADD SWAP1 POP PUSH2 0x26F6 PUSH1 0x0 DUP4 ADD DUP5 PUSH2 0x26D2 JUMP JUMPDEST SWAP3 SWAP2 POP POP JUMP JUMPDEST PUSH1 0x0 PUSH1 0x20 DUP3 DUP5 SUB SLT ISZERO PUSH2 0x2712 JUMPI PUSH2 0x2711 PUSH2 0x23D1 JUMP JUMPDEST JUMPDEST PUSH1 0x0 PUSH2 0x2720 DUP5 DUP3 DUP6 ADD PUSH2 0x25B0 JUMP JUMPDEST SWAP2 POP POP SWAP3 SWAP2 POP POP JUMP JUMPDEST PUSH2 0x2732 DUP2 PUSH2 0x2654 JUMP JUMPDEST DUP3 MSTORE POP POP JUMP JUMPDEST PUSH1 0x0 DUP2 ISZERO ISZERO SWAP1 POP SWAP2 SWAP1 POP JUMP JUMPDEST PUSH2 0x274D DUP2 PUSH2 0x2738 JUMP JUMPDEST DUP3 MSTORE POP POP JUMP JUMPDEST PUSH1 0x0 DUP2 MLOAD SWAP1 POP SWAP2 SWAP1 POP JUMP JUMPDEST PUSH1 0x0 DUP3 DUP3 MSTORE PUSH1 0x20 DUP3 ADD SWAP1 POP SWAP3 SWAP2 POP POP JUMP JUMPDEST PUSH1 0x0 JUMPDEST DUP4 DUP2 LT ISZERO PUSH2 0x278D JUMPI DUP1 DUP3 ADD MLOAD DUP2 DUP5 ADD MSTORE PUSH1 0x20 DUP2 ADD SWAP1 POP PUSH2 0x2772 JUMP JUMPDEST PUSH1 0x0 DUP5 DUP5 ADD MSTORE POP POP POP POP JUMP JUMPDEST PUSH1 0x0 PUSH2 0x27A4 DUP3 PUSH2 0x2753 JUMP JUMPDEST PUSH2 0x27AE DUP2 DUP6 PUSH2 0x275E JUMP JUMPDEST SWAP4 POP PUSH2 0x27BE DUP2 DUP6 PUSH1 0x20 DUP7 ADD PUSH2 0x276F JUMP JUMPDEST PUSH2 0x27C7 DUP2 PUSH2 0x23E5 JUMP JUMPDEST DUP5 ADD SWAP2 POP POP SWAP3 SWAP2 POP POP JUMP JUMPDEST PUSH1 0x0 PUSH2 0x100 DUP3 ADD SWAP1 POP PUSH2 0x27E8 PUSH1 0x0 DUP4 ADD DUP12 PUSH2 0x26D2 JUMP JUMPDEST PUSH2 0x27F5 PUSH1 0x20 DUP4 ADD DUP11 PUSH2 0x2729 JUMP JUMPDEST PUSH2 0x2802 PUSH1 0x40 DUP4 ADD DUP10 PUSH2 0x26D2 JUMP JUMPDEST PUSH2 0x280F PUSH1 0x60 DUP4 ADD DUP9 PUSH2 0x26D2 JUMP JUMPDEST PUSH2 0x281C PUSH1 0x80 DUP4 ADD DUP8 PUSH2 0x26D2 JUMP JUMPDEST PUSH2 0x2829 PUSH1 0xA0 DUP4 ADD DUP7 PUSH2 0x2744 JUMP JUMPDEST DUP2 DUP2 SUB PUSH1 0xC0 DUP4 ADD MSTORE PUSH2 0x283B DUP2 DUP6 PUSH2 0x2799 JUMP JUMPDEST SWAP1 POP PUSH2 0x284A PUSH1 0xE0 DUP4 ADD DUP5 PUSH2 0x2744 JUMP JUMPDEST SWAP10 SWAP9 POP POP POP POP POP POP POP POP POP JUMP JUMPDEST PUSH1 0x0 DUP1 PUSH1 0x40 DUP4 DUP6 SUB SLT ISZERO PUSH2 0x286E JUMPI PUSH2 0x286D PUSH2 0x23D1 JUMP JUMPDEST JUMPDEST PUSH1 0x0 PUSH2 0x287C DUP6 DUP3 DUP7 ADD PUSH2 0x25B0 JUMP JUMPDEST SWAP3 POP POP PUSH1 0x20 DUP4 ADD CALLDATALOAD PUSH8 0xFFFFFFFFFFFFFFFF DUP2 GT ISZERO PUSH2 0x289D JUMPI PUSH2 0x289C PUSH2 0x23D6 JUMP JUMPDEST JUMPDEST PUSH2 0x28A9 DUP6 DUP3 DUP7 ADD PUSH2 0x24F3 JUMP JUMPDEST SWAP2 POP POP SWAP3 POP SWAP3 SWAP1 POP JUMP JUMPDEST PUSH32 0x4E487B7100000000000000000000000000000000000000000000000000000000 PUSH1 0x0 MSTORE PUSH1 0x21 PUSH1 0x4 MSTORE PUSH1 0x24 PUSH1 0x0 REVERT JUMPDEST PUSH1 0x5 DUP2 LT PUSH2 0x28F3 JUMPI PUSH2 0x28F2 PUSH2 0x28B3 JUMP JUMPDEST JUMPDEST POP JUMP JUMPDEST PUSH1 0x0 DUP2 SWAP1 POP PUSH2 0x2904 DUP3 PUSH2 0x28E2 JUMP JUMPDEST SWAP2 SWAP1 POP JUMP JUMPDEST PUSH1 0x0 PUSH2 0x2914 DUP3 PUSH2 0x28F6 JUMP JUMPDEST SWAP1 POP SWAP2 SWAP1 POP JUMP JUMPDEST PUSH2 0x2924 DUP2 PUSH2 0x2909 JUMP JUMPDEST DUP3 MSTORE POP POP JUMP JUMPDEST PUSH1 0x0 PUSH1 0x60 DUP3 ADD SWAP1 POP PUSH2 0x293F PUSH1 0x0 DUP4 ADD DUP7 PUSH2 0x2744 JUMP JUMPDEST PUSH2 0x294C PUSH1 0x20 DUP4 ADD DUP6 PUSH2 0x291B JUMP JUMPDEST PUSH2 0x2959 PUSH1 0x40 DUP4 ADD DUP5 PUSH2 0x26D2 JUMP JUMPDEST SWAP5 SWAP4 POP POP POP POP JUMP JUMPDEST PUSH1 0x4 DUP2 LT PUSH2 0x2972 JUMPI PUSH2 0x2971 PUSH2 0x28B3 JUMP JUMPDEST JUMPDEST POP JUMP JUMPDEST PUSH1 0x0 DUP2 SWAP1 POP PUSH2 0x2983 DUP3 PUSH2 0x2961 JUMP JUMPDEST SWAP2 SWAP1 POP JUMP JUMPDEST PUSH1 0x0 PUSH2 0x2993 DUP3 PUSH2 0x2975 JUMP JUMPDEST SWAP1 POP SWAP2 SWAP1 POP JUMP JUMPDEST PUSH2 0x29A3 DUP2 PUSH2 0x2988 JUMP JUMPDEST DUP3 MSTORE POP POP JUMP JUMPDEST PUSH1 0x0 PUSH1 0xE0 DUP3 ADD SWAP1 POP PUSH2 0x29BE PUSH1 0x0 DUP4 ADD DUP11 PUSH2 0x26D2 JUMP JUMPDEST PUSH2 0x29CB PUSH1 0x20 DUP4 ADD DUP10 PUSH2 0x26D2 JUMP JUMPDEST PUSH2 0x29D8 PUSH1 0x40 DUP4 ADD DUP9 PUSH2 0x2729 JUMP JUMPDEST PUSH2 0x29E5 PUSH1 0x60 DUP4 ADD DUP8 PUSH2 0x26D2 JUMP JUMPDEST PUSH2 0x29F2 PUSH1 0x80 DUP4 ADD DUP7 PUSH2 0x291B JUMP JUMPDEST PUSH2 0x29FF PUSH1 0xA0 DUP4 ADD DUP6 PUSH2 0x26D2 JUMP JUMPDEST PUSH2 0x2A0C PUSH1 0xC0 DUP4 ADD DUP5 PUSH2 0x299A JUMP JUMPDEST SWAP9 SWAP8 POP POP POP POP POP POP POP POP JUMP JUMPDEST PUSH1 0x0 PUSH1 0xA0 DUP3 ADD SWAP1 POP PUSH2 0x2A2D PUSH1 0x0 DUP4 ADD DUP9 PUSH2 0x2744 JUMP JUMPDEST PUSH2 0x2A3A PUSH1 0x20 DUP4 ADD DUP8 PUSH2 0x291B JUMP JUMPDEST DUP2 DUP2 SUB PUSH1 0x40 DUP4 ADD MSTORE PUSH2 0x2A4C DUP2 DUP7 PUSH2 0x2799 JUMP JUMPDEST SWAP1 POP PUSH2 0x2A5B PUSH1 0x60 DUP4 ADD DUP6 PUSH2 0x26D2 JUMP JUMPDEST PUSH2 0x2A68 PUSH1 0x80 DUP4 ADD DUP5 PUSH2 0x26D2 JUMP JUMPDEST SWAP7 SWAP6 POP POP POP POP POP POP JUMP JUMPDEST PUSH1 0x0 PUSH1 0x20 DUP3 DUP5 SUB SLT ISZERO PUSH2 0x2A88 JUMPI PUSH2 0x2A87 PUSH2 0x23D1 JUMP JUMPDEST JUMPDEST PUSH1 0x0 PUSH2 0x2A96 DUP5 DUP3 DUP6 ADD PUSH2 0x267D JUMP JUMPDEST SWAP2 POP POP SWAP3 SWAP2 POP POP JUMP JUMPDEST PUSH1 0x0 DUP2 MLOAD SWAP1 POP SWAP2 SWAP1 POP JUMP JUMPDEST PUSH1 0x0 DUP3 DUP3 MSTORE PUSH1 0x20 DUP3 ADD SWAP1 POP SWAP3 SWAP2 POP POP JUMP JUMPDEST PUSH1 0x0 DUP2 SWAP1 POP PUSH1 0x20 DUP3 ADD SWAP1 POP SWAP2 SWAP1 POP JUMP JUMPDEST PUSH2 0x2AD4 DUP2 PUSH2 0x258F JUMP JUMPDEST DUP3 MSTORE POP POP JUMP JUMPDEST PUSH1 0x0 PUSH2 0x2AE6 DUP4 DUP4 PUSH2 0x2ACB JUMP JUMPDEST PUSH1 0x20 DUP4 ADD SWAP1 POP SWAP3 SWAP2 POP POP JUMP JUMPDEST PUSH1 0x0 PUSH1 0x20 DUP3 ADD SWAP1 POP SWAP2 SWAP1 POP JUMP JUMPDEST PUSH1 0x0 PUSH2 0x2B0A DUP3 PUSH2 0x2A9F JUMP JUMPDEST PUSH2 0x2B14 DUP2 DUP6 PUSH2 0x2AAA JUMP JUMPDEST SWAP4 POP PUSH2 0x2B1F DUP4 PUSH2 0x2ABB JUMP JUMPDEST DUP1 PUSH1 0x0 JUMPDEST DUP4 DUP2 LT ISZERO PUSH2 0x2B50 JUMPI DUP2 MLOAD PUSH2 0x2B37 DUP9 DUP3 PUSH2 0x2ADA JUMP JUMPDEST SWAP8 POP PUSH2 0x2B42 DUP4 PUSH2 0x2AF2 JUMP JUMPDEST SWAP3 POP POP PUSH1 0x1 DUP2 ADD SWAP1 POP PUSH2 0x2B23 JUMP JUMPDEST POP DUP6 SWAP4 POP POP POP POP SWAP3 SWAP2 POP POP JUMP JUMPDEST PUSH1 0x0 PUSH1 0x20 DUP3 ADD SWAP1 POP DUP2 DUP2 SUB PUSH1 0x0 DUP4 ADD MSTORE PUSH2 0x2B77 DUP2 DUP5 PUSH2 0x2AFF JUMP JUMPDEST SWAP1 POP SWAP3 SWAP2 POP POP JUMP JUMPDEST PUSH1 0x0 DUP1 PUSH1 0x0 DUP1 PUSH1 0x0 PUSH1 0xA0 DUP7 DUP9 SUB SLT ISZERO PUSH2 0x2B9B JUMPI PUSH2 0x2B9A PUSH2 0x23D1 JUMP JUMPDEST JUMPDEST PUSH1 0x0 PUSH2 0x2BA9 DUP9 DUP3 DUP10 ADD PUSH2 0x267D JUMP JUMPDEST SWAP6 POP POP PUSH1 0x20 PUSH2 0x2BBA DUP9 DUP3 DUP10 ADD PUSH2 0x25B0 JUMP JUMPDEST SWAP5 POP POP PUSH1 0x40 PUSH2 0x2BCB DUP9 DUP3 DUP10 ADD PUSH2 0x25B0 JUMP JUMPDEST SWAP4 POP POP PUSH1 0x60 PUSH2 0x2BDC DUP9 DUP3 DUP10 ADD PUSH2 0x25B0 JUMP JUMPDEST SWAP3 POP POP PUSH1 0x80 DUP7 ADD CALLDATALOAD PUSH8 0xFFFFFFFFFFFFFFFF DUP2 GT ISZERO PUSH2 0x2BFD JUMPI PUSH2 0x2BFC PUSH2 0x23D6 JUMP JUMPDEST JUMPDEST PUSH2 0x2C09 DUP9 DUP3 DUP10 ADD PUSH2 0x24F3 JUMP JUMPDEST SWAP2 POP POP SWAP3 SWAP6 POP SWAP3 SWAP6 SWAP1 SWAP4 POP JUMP JUMPDEST PUSH1 0x0 PUSH1 0x20 DUP3 ADD SWAP1 POP PUSH2 0x2C2B PUSH1 0x0 DUP4 ADD DUP5 PUSH2 0x2729 JUMP JUMPDEST SWAP3 SWAP2 POP POP JUMP JUMPDEST PUSH1 0x0 PUSH2 0x100 DUP3 ADD SWAP1 POP PUSH2 0x2C47 PUSH1 0x0 DUP4 ADD DUP12 PUSH2 0x26D2 JUMP JUMPDEST PUSH2 0x2C54 PUSH1 0x20 DUP4 ADD DUP11 PUSH2 0x26D2 JUMP JUMPDEST PUSH2 0x2C61 PUSH1 0x40 DUP4 ADD DUP10 PUSH2 0x2729 JUMP JUMPDEST PUSH2 0x2C6E PUSH1 0x60 DUP4 ADD DUP9 PUSH2 0x26D2 JUMP JUMPDEST PUSH2 0x2C7B PUSH1 0x80 DUP4 ADD DUP8 PUSH2 0x291B JUMP JUMPDEST PUSH2 0x2C88 PUSH1 0xA0 DUP4 ADD DUP7 PUSH2 0x26D2 JUMP JUMPDEST PUSH2 0x2C95 PUSH1 0xC0 DUP4 ADD DUP6 PUSH2 0x299A JUMP JUMPDEST DUP2 DUP2 SUB PUSH1 0xE0 DUP4 ADD MSTORE PUSH2 0x2CA7 DUP2 DUP5 PUSH2 0x2799 JUMP JUMPDEST SWAP1 POP SWAP10 SWAP9 POP POP POP POP POP POP POP POP POP JUMP JUMPDEST PUSH1 0x0 DUP1 PUSH1 0x0 PUSH1 0x60 DUP5 DUP7 SUB SLT ISZERO PUSH2 0x2CCF JUMPI PUSH2 0x2CCE PUSH2 0x23D1 JUMP JUMPDEST JUMPDEST PUSH1 0x0 PUSH2 0x2CDD DUP7 DUP3 DUP8 ADD PUSH2 0x25B0 JUMP JUMPDEST SWAP4 POP POP PUSH1 0x20 PUSH2 0x2CEE DUP7 DUP3 DUP8 ADD PUSH2 0x257A JUMP JUMPDEST SWAP3 POP POP PUSH1 0x40 DUP5 ADD CALLDATALOAD PUSH8 0xFFFFFFFFFFFFFFFF DUP2 GT ISZERO PUSH2 0x2D0F JUMPI PUSH2 0x2D0E PUSH2 0x23D6 JUMP JUMPDEST JUMPDEST PUSH2 0x2D1B DUP7 DUP3 DUP8 ADD PUSH2 0x24F3 JUMP JUMPDEST SWAP2 POP POP SWAP3 POP SWAP3 POP SWAP3 JUMP JUMPDEST PUSH1 0x0 DUP2 SWAP1 POP SWAP3 SWAP2 POP POP JUMP JUMPDEST PUSH1 0x0 PUSH2 0x2D3B DUP3 PUSH2 0x2753 JUMP JUMPDEST PUSH2 0x2D45 DUP2 DUP6 PUSH2 0x2D25 JUMP JUMPDEST SWAP4 POP PUSH2 0x2D55 DUP2 DUP6 PUSH1 0x20 DUP7 ADD PUSH2 0x276F JUMP JUMPDEST DUP1 DUP5 ADD SWAP2 POP POP SWAP3 SWAP2 POP POP JUMP JUMPDEST PUSH1 0x0 PUSH2 0x2D6D DUP3 DUP5 PUSH2 0x2D30 JUMP JUMPDEST SWAP2 POP DUP2 SWAP1 POP SWAP3 SWAP2 POP POP JUMP JUMPDEST PUSH1 0x0 PUSH1 0x20 DUP3 ADD SWAP1 POP DUP2 DUP2 SUB PUSH1 0x0 DUP4 ADD MSTORE PUSH2 0x2D92 DUP2 DUP5 PUSH2 0x2799 JUMP JUMPDEST SWAP1 POP SWAP3 SWAP2 POP POP JUMP JUMPDEST PUSH32 0x5365766572697479206D75737420626520312D31303000000000000000000000 PUSH1 0x0 DUP3 ADD MSTORE POP JUMP JUMPDEST PUSH1 0x0 PUSH2 0x2DD0 PUSH1 0x16 DUP4 PUSH2 0x275E JUMP JUMPDEST SWAP2 POP PUSH2 0x2DDB DUP3 PUSH2 0x2D9A JUMP JUMPDEST PUSH1 0x20 DUP3 ADD SWAP1 POP SWAP2 SWAP1 POP JUMP JUMPDEST PUSH1 0x0 PUSH1 0x20 DUP3 ADD SWAP1 POP DUP2 DUP2 SUB PUSH1 0x0 DUP4 ADD MSTORE PUSH2 0x2DFF DUP2 PUSH2 0x2DC3 JUMP JUMPDEST SWAP1 POP SWAP2 SWAP1 POP JUMP JUMPDEST PUSH32 0x4E487B7100000000000000000000000000000000000000000000000000000000 PUSH1 0x0 MSTORE PUSH1 0x22 PUSH1 0x4 MSTORE PUSH1 0x24 PUSH1 0x0 REVERT JUMPDEST PUSH1 0x0 PUSH1 0x2 DUP3 DIV SWAP1 POP PUSH1 0x1 DUP3 AND DUP1 PUSH2 0x2E4D JUMPI PUSH1 0x7F DUP3 AND SWAP2 POP JUMPDEST PUSH1 0x20 DUP3 LT DUP2 SUB PUSH2 0x2E60 JUMPI PUSH2 0x2E5F PUSH2 0x2E06 JUMP JUMPDEST JUMPDEST POP SWAP2 SWAP1 POP JUMP JUMPDEST PUSH1 0x0 DUP2 SWAP1 POP DUP2 PUSH1 0x0 MSTORE PUSH1 0x20 PUSH1 0x0 KECCAK256 SWAP1 POP SWAP2 SWAP1 POP JUMP JUMPDEST PUSH1 0x0 PUSH1 0x20 PUSH1 0x1F DUP4 ADD DIV SWAP1 POP SWAP2 SWAP1 POP JUMP JUMPDEST PUSH1 0x0 DUP3 DUP3 SHL SWAP1 POP SWAP3 SWAP2 POP POP JUMP JUMPDEST PUSH1 0x0 PUSH1 0x8 DUP4 MUL PUSH2 0x2EC8 PUSH32 0xFFFFFFFFFFFFFFFFFFFFFFFFFFFFFFFFFFFFFFFFFFFFFFFFFFFFFFFFFFFFFFFF DUP3 PUSH2 0x2E8B JUMP JUMPDEST PUSH2 0x2ED2 DUP7 DUP4 PUSH2 0x2E8B JUMP JUMPDEST SWAP6 POP DUP1 NOT DUP5 AND SWAP4 POP DUP1 DUP7 AND DUP5 OR SWAP3 POP POP POP SWAP4 SWAP3 POP POP POP JUMP JUMPDEST PUSH1 0x0 DUP2 SWAP1 POP SWAP2 SWAP1 POP JUMP JUMPDEST PUSH1 0x0 PUSH2 0x2F0F PUSH2 0x2F0A PUSH2 0x2F05 DUP5 PUSH2 0x258F JUMP JUMPDEST PUSH2 0x2EEA JUMP JUMPDEST PUSH2 0x258F JUMP JUMPDEST SWAP1 POP SWAP2 SWAP1 POP JUMP JUMPDEST PUSH1 0x0 DUP2 SWAP1 POP SWAP2 SWAP1 POP JUMP JUMPDEST PUSH2 0x2F29 DUP4 PUSH2 0x2EF4 JUMP JUMPDEST PUSH2 0x2F3D PUSH2 0x2F35 DUP3 PUSH2 0x2F16 JUMP JUMPDEST DUP5 DUP5 SLOAD PUSH2 0x2E98 JUMP JUMPDEST DUP3 SSTORE POP POP POP POP JUMP JUMPDEST PUSH1 0x0 SWAP1 JUMP JUMPDEST PUSH2 0x2F52 PUSH2 0x2F45 JUMP JUMPDEST PUSH2 0x2F5D DUP2 DUP5 DUP5 PUSH2 0x2F20 JUMP JUMPDEST POP POP POP JUMP JUMPDEST JUMPDEST DUP2 DUP2 LT ISZERO PUSH2 0x2F81 JUMPI PUSH2 0x2F76 PUSH1 0x0 DUP3 PUSH2 0x2F4A JUMP JUMPDEST PUSH1 0x1 DUP2 ADD SWAP1 POP PUSH2 0x2F63 JUMP JUMPDEST POP POP JUMP JUMPDEST PUSH1 0x1F DUP3 GT ISZERO PUSH2 0x2FC6 JUMPI PUSH2 0x2F97 DUP2 PUSH2 0x2E66 JUMP JUMPDEST PUSH2 0x2FA0 DUP5 PUSH2 0x2E7B JUMP JUMPDEST DUP2 ADD PUSH1 0x20 DUP6 LT ISZERO PUSH2 0x2FAF JUMPI DUP2 SWAP1 POP JUMPDEST PUSH2 0x2FC3 PUSH2 0x2FBB DUP6 PUSH2 0x2E7B JUMP JUMPDEST DUP4 ADD DUP3 PUSH2 0x2F62 JUMP JUMPDEST POP POP JUMPDEST POP POP POP JUMP JUMPDEST PUSH1 0x0 DUP3 DUP3 SHR SWAP1 POP SWAP3 SWAP2 POP POP JUMP JUMPDEST PUSH1 0x0 PUSH2 0x2FE9 PUSH1 0x0 NOT DUP5 PUSH1 0x8 MUL PUSH2 0x2FCB JUMP JUMPDEST NOT DUP1 DUP4 AND SWAP2 POP POP SWAP3 SWAP2 POP POP JUMP JUMPDEST PUSH1 0x0 PUSH2 0x3002 DUP4 DUP4 PUSH2 0x2FD8 JUMP JUMPDEST SWAP2 POP DUP3 PUSH1 0x2 MUL DUP3 OR SWAP1 POP SWAP3 SWAP2 POP POP JUMP JUMPDEST PUSH2 0x301B DUP3 PUSH2 0x2753 JUMP JUMPDEST PUSH8 0xFFFFFFFFFFFFFFFF DUP2 GT ISZERO PUSH2 0x3034 JUMPI PUSH2 0x3033 PUSH2 0x23F6 JUMP JUMPDEST JUMPDEST PUSH2 0x303E DUP3 SLOAD PUSH2 0x2E35 JUMP JUMPDEST PUSH2 0x3049 DUP3 DUP3 DUP6 PUSH2 0x2F85 JUMP JUMPDEST PUSH1 0x0 PUSH1 0x20 SWAP1 POP PUSH1 0x1F DUP4 GT PUSH1 0x1 DUP2 EQ PUSH2 0x307C JUMPI PUSH1 0x0 DUP5 ISZERO PUSH2 0x306A JUMPI DUP3 DUP8 ADD MLOAD SWAP1 POP JUMPDEST PUSH2 0x3074 DUP6 DUP3 PUSH2 0x2FF6 JUMP JUMPDEST DUP7 SSTORE POP PUSH2 0x30DC JUMP JUMPDEST PUSH1 0x1F NOT DUP5 AND PUSH2 0x308A DUP7 PUSH2 0x2E66 JUMP JUMPDEST PUSH1 0x0 JUMPDEST DUP3 DUP2 LT ISZERO PUSH2 0x30B2 JUMPI DUP5 DUP10 ADD MLOAD DUP3 SSTORE PUSH1 0x1 DUP3 ADD SWAP2 POP PUSH1 0x20 DUP6 ADD SWAP5 POP PUSH1 0x20 DUP2 ADD SWAP1 POP PUSH2 0x308D JUMP JUMPDEST DUP7 DUP4 LT ISZERO PUSH2 0x30CF JUMPI DUP5 DUP10 ADD MLOAD PUSH2 0x30CB PUSH1 0x1F DUP10 AND DUP3 PUSH2 0x2FD8 JUMP JUMPDEST DUP4 SSTORE POP JUMPDEST PUSH1 0x1 PUSH1 0x2 DUP9 MUL ADD DUP9 SSTORE POP POP POP JUMPDEST POP POP POP POP POP POP JUMP JUMPDEST PUSH1 0x0 PUSH1 0x60 DUP3 ADD SWAP1 POP DUP2 DUP2 SUB PUSH1 0x0 DUP4 ADD MSTORE PUSH2 0x30FE DUP2 DUP7 PUSH2 0x2799 JUMP JUMPDEST SWAP1 POP PUSH2 0x310D PUSH1 0x20 DUP4 ADD DUP6 PUSH2 0x291B JUMP JUMPDEST PUSH2 0x311A PUSH1 0x40 DUP4 ADD DUP5 PUSH2 0x26D2 JUMP JUMPDEST SWAP5 SWAP4 POP POP POP POP JUMP JUMPDEST PUSH32 0x496E73756666696369656E742062616C616E6365000000000000000000000000 PUSH1 0x0 DUP3 ADD MSTORE POP JUMP JUMPDEST PUSH1 0x0 PUSH2 0x3158 PUSH1 0x14 DUP4 PUSH2 0x275E JUMP JUMPDEST SWAP2 POP PUSH2 0x3163 DUP3 PUSH2 0x3122 JUMP JUMPDEST PUSH1 0x20 DUP3 ADD SWAP1 POP SWAP2 SWAP1 POP JUMP JUMPDEST PUSH1 0x0 PUSH1 0x20 DUP3 ADD SWAP1 POP DUP2 DUP2 SUB PUSH1 0x0 DUP4 ADD MSTORE PUSH2 0x3187 DUP2 PUSH2 0x314B JUMP JUMPDEST SWAP1 POP SWAP2 SWAP1 POP JUMP JUMPDEST PUSH32 0x436C61696D206E6F742070656E64696E67000000000000000000000000000000 PUSH1 0x0 DUP3 ADD MSTORE POP JUMP JUMPDEST PUSH1 0x0 PUSH2 0x31C4 PUSH1 0x11 DUP4 PUSH2 0x275E JUMP JUMPDEST SWAP2 POP PUSH2 0x31CF DUP3 PUSH2 0x318E JUMP JUMPDEST PUSH1 0x20 DUP3 ADD SWAP1 POP SWAP2 SWAP1 POP JUMP JUMPDEST PUSH1 0x0 PUSH1 0x20 DUP3 ADD SWAP1 POP DUP2 DUP2 SUB PUSH1 0x0 DUP4 ADD MSTORE PUSH2 0x31F3 DUP2 PUSH2 0x31B7 JUMP JUMPDEST SWAP1 POP SWAP2 SWAP1 POP JUMP JUMPDEST PUSH32 0x496E73756666696369656E74207072656D69756D207061796D656E7400000000 PUSH1 0x0 DUP3 ADD MSTORE POP JUMP JUMPDEST PUSH1 0x0 PUSH2 0x3230 PUSH1 0x1C DUP4 PUSH2 0x275E JUMP JUMPDEST SWAP2 POP PUSH2 0x323B DUP3 PUSH2 0x31FA JUMP JUMPDEST PUSH1 0x20 DUP3 ADD SWAP1 POP SWAP2 SWAP1 POP JUMP JUMPDEST PUSH1 0x0 PUSH1 0x20 DUP3 ADD SWAP1 POP DUP2 DUP2 SUB PUSH1 0x0 DUP4 ADD MSTORE PUSH2 0x325F DUP2 PUSH2 0x3223 JUMP JUMPDEST SWAP1 POP SWAP2 SWAP1 POP JUMP JUMPDEST PUSH32 0x4475726174696F6E20746F6F2073686F72740000000000000000000000000000 PUSH1 0x0 DUP3 ADD MSTORE POP JUMP JUMPDEST PUSH1 0x0 PUSH2 0x329C PUSH1 0x12 DUP4 PUSH2 0x275E JUMP JUMPDEST SWAP2 POP PUSH2 0x32A7 DUP3 PUSH2 0x3266 JUMP JUMPDEST PUSH1 0x20 DUP3 ADD SWAP1 POP SWAP2 SWAP1 POP JUMP JUMPDEST PUSH1 0x0 PUSH1 0x20 DUP3 ADD SWAP1 POP DUP2 DUP2 SUB PUSH1 0x0 DUP4 ADD MSTORE PUSH2 0x32CB DUP2 PUSH2 0x328F JUMP JUMPDEST SWAP1 POP SWAP2 SWAP1 POP JUMP JUMPDEST PUSH32 0x436F766572616765206D75737420626520706F73697469766500000000000000 PUSH1 0x0 DUP3 ADD MSTORE POP JUMP JUMPDEST PUSH1 0x0 PUSH2 0x3308 PUSH1 0x19 DUP4 PUSH2 0x275E JUMP JUMPDEST SWAP2 POP PUSH2 0x3313 DUP3 PUSH2 0x32D2 JUMP JUMPDEST PUSH1 0x20 DUP3 ADD SWAP1 POP SWAP2 SWAP1 POP JUMP JUMPDEST PUSH1 0x0 PUSH1 0x20 DUP3 ADD SWAP1 POP DUP2 DUP2 SUB PUSH1 0x0 DUP4 ADD MSTORE PUSH2 0x3337 DUP2 PUSH2 0x32FB JUMP JUMPDEST SWAP1 POP SWAP2 SWAP1 POP JUMP JUMPDEST PUSH32 0x4E487B7100000000000000000000000000000000000000000000000000000000 PUSH1 0x0 MSTORE PUSH1 0x11 PUSH1 0x4 MSTORE PUSH1 0x24 PUSH1 0x0 REVERT JUMPDEST PUSH1 0x0 PUSH2 0x3378 DUP3 PUSH2 0x258F JUMP JUMPDEST SWAP2 POP PUSH32 0xFFFFFFFFFFFFFFFFFFFFFFFFFFFFFFFFFFFFFFFFFFFFFFFFFFFFFFFFFFFFFFFF DUP3 SUB PUSH2 0x33AA JUMPI PUSH2 0x33A9 PUSH2 0x333E JUMP JUMPDEST JUMPDEST PUSH1 0x1 DUP3 ADD SWAP1 POP SWAP2 SWAP1 POP JUMP JUMPDEST PUSH1 0x0 PUSH2 0x33C0 DUP3 PUSH2 0x258F JUMP JUMPDEST SWAP2 POP PUSH2 0x33CB DUP4 PUSH2 0x258F JUMP JUMPDEST SWAP3 POP DUP3 DUP3 ADD SWAP1 POP DUP1 DUP3 GT ISZERO PUSH2 0x33E3 JUMPI PUSH2 0x33E2 PUSH2 0x333E JUMP JUMPDEST JUMPDEST SWAP3 SWAP2 POP POP JUMP JUMPDEST PUSH1 0x0 PUSH1 0x60 DUP3 ADD SWAP1 POP PUSH2 0x33FE PUSH1 0x0 DUP4 ADD DUP7 PUSH2 0x26D2 JUMP JUMPDEST PUSH2 0x340B PUSH1 0x20 DUP4 ADD DUP6 PUSH2 0x26D2 JUMP JUMPDEST DUP2 DUP2 SUB PUSH1 0x40 DUP4 ADD MSTORE PUSH2 0x341D DUP2 DUP5 PUSH2 0x2799 JUMP JUMPDEST SWAP1 POP SWAP5 SWAP4 POP POP POP POP JUMP JUMPDEST PUSH1 0x0 DUP2 SLOAD PUSH2 0x3434 DUP2 PUSH2 0x2E35 JUMP JUMPDEST PUSH2 0x343E DUP2 DUP7 PUSH2 0x2D25 JUMP JUMPDEST SWAP5 POP PUSH1 0x1 DUP3 AND PUSH1 0x0 DUP2 EQ PUSH2 0x3459 JUMPI PUSH1 0x1 DUP2 EQ PUSH2 0x346E JUMPI PUSH2 0x34A1 JUMP JUMPDEST PUSH1 0xFF NOT DUP4 AND DUP7 MSTORE DUP2 ISZERO ISZERO DUP3 MUL DUP7 ADD SWAP4 POP PUSH2 0x34A1 JUMP JUMPDEST PUSH2 0x3477 DUP6 PUSH2 0x2E66 JUMP JUMPDEST PUSH1 0x0 JUMPDEST DUP4 DUP2 LT ISZERO PUSH2 0x3499 JUMPI DUP2 SLOAD DUP2 DUP10 ADD MSTORE PUSH1 0x1 DUP3 ADD SWAP2 POP PUSH1 0x20 DUP2 ADD SWAP1 POP PUSH2 0x347A JUMP JUMPDEST DUP4 DUP9 ADD SWAP6 POP POP POP JUMPDEST POP POP POP SWAP3 SWAP2 POP POP JUMP JUMPDEST PUSH1 0x0 PUSH2 0x34B6 DUP3 DUP5 PUSH2 0x3427 JUMP JUMPDEST SWAP2 POP DUP2 SWAP1 POP SWAP3 SWAP2 POP POP JUMP JUMPDEST PUSH32 0x54726967676572206E6F206C6F6E676572206163746976650000000000000000 PUSH1 0x0 DUP3 ADD MSTORE POP JUMP JUMPDEST PUSH1 0x0 PUSH2 0x34F7 PUSH1 0x18 DUP4 PUSH2 0x275E JUMP JUMPDEST SWAP2 POP PUSH2 0x3502 DUP3 PUSH2 0x34C1 JUMP JUMPDEST PUSH1 0x20 DUP3 ADD SWAP1 POP SWAP2 SWAP1 POP JUMP JUMPDEST PUSH1 0x0 PUSH1 0x20 DUP3 ADD SWAP1 POP DUP2 DUP2 SUB PUSH1 0x0 DUP4 ADD MSTORE PUSH2 0x3526 DUP2 PUSH2 0x34EA JUMP JUMPDEST SWAP1 POP SWAP2 SWAP1 POP JUMP JUMPDEST PUSH32 0x547269676765722074797065206D69736D617463680000000000000000000000 PUSH1 0x0 DUP3 ADD MSTORE POP JUMP JUMPDEST PUSH1 0x0 PUSH2 0x3563 PUSH1 0x15 DUP4 PUSH2 0x275E JUMP JUMPDEST SWAP2 POP PUSH2 0x356E DUP3 PUSH2 0x352D JUMP JUMPDEST PUSH1 0x20 DUP3 ADD SWAP1 POP SWAP2 SWAP1 POP JUMP JUMPDEST PUSH1 0x0 PUSH1 0x20 DUP3 ADD SWAP1 POP DUP2 DUP2 SUB PUSH1 0x0 DUP4 ADD MSTORE PUSH2 0x3592 DUP2 PUSH2 0x3556 JUMP JUMPDEST SWAP1 POP SWAP2 SWAP1 POP JUMP JUMPDEST PUSH32 0x50726F63657373696E672074696D65206E6F7420656C61707365640000000000 PUSH1 0x0 DUP3 ADD MSTORE POP JUMP JUMPDEST PUSH1 0x0 PUSH2 0x35CF PUSH1 0x1B DUP4 PUSH2 0x275E JUMP JUMPDEST SWAP2 POP PUSH2 0x35DA DUP3 PUSH2 0x3599 JUMP JUMPDEST PUSH1 0x20 DUP3 ADD SWAP1 POP SWAP2 SWAP1 POP JUMP JUMPDEST PUSH1 0x0 PUSH1 0x20 DUP3 ADD SWAP1 POP DUP2 DUP2 SUB PUSH1 0x0 DUP4 ADD MSTORE PUSH2 0x35FE DUP2 PUSH2 0x35C2 JUMP JUMPDEST SWAP1 POP SWAP2 SWAP1 POP JUMP JUMPDEST PUSH32 0x4E6F7420706F6C69637920686F6C646572000000000000000000000000000000 PUSH1 0x0 DUP3 ADD MSTORE POP JUMP JUMPDEST PUSH1 0x0 PUSH2 0x363B PUSH1 0x11 DUP4 PUSH2 0x275E JUMP JUMPDEST SWAP2 POP PUSH2 0x3646 DUP3 PUSH2 0x3605 JUMP JUMPDEST PUSH1 0x20 DUP3 ADD SWAP1 POP SWAP2 SWAP1 POP JUMP JUMPDEST PUSH1 0x0 PUSH1 0x20 DUP3 ADD SWAP1 POP DUP2 DUP2 SUB PUSH1 0x0 DUP4 ADD MSTORE PUSH2 0x366A DUP2 PUSH2 0x362E JUMP JUMPDEST SWAP1 POP SWAP2 SWAP1 POP JUMP JUMPDEST PUSH32 0x506F6C696379206E6F7420616374697665000000000000000000000000000000 PUSH1 0x0 DUP3 ADD MSTORE POP JUMP JUMPDEST PUSH1 0x0 PUSH2 0x36A7 PUSH1 0x11 DUP4 PUSH2 0x275E JUMP JUMPDEST SWAP2 POP PUSH2 0x36B2 DUP3 PUSH2 0x3671 JUMP JUMPDEST PUSH1 0x20 DUP3 ADD SWAP1 POP SWAP2 SWAP1 POP JUMP JUMPDEST PUSH1 0x0 PUSH1 0x20 DUP3 ADD SWAP1 POP DUP2 DUP2 SUB PUSH1 0x0 DUP4 ADD MSTORE PUSH2 0x36D6 DUP2 PUSH2 0x369A JUMP JUMPDEST SWAP1 POP SWAP2 SWAP1 POP JUMP JUMPDEST PUSH32 0x416C726561647920636C61696D65640000000000000000000000000000000000 PUSH1 0x0 DUP3 ADD MSTORE POP JUMP JUMPDEST PUSH1 0x0 PUSH2 0x3713 PUSH1 0xF DUP4 PUSH2 0x275E JUMP JUMPDEST SWAP2 POP PUSH2 0x371E DUP3 PUSH2 0x36DD JUMP JUMPDEST PUSH1 0x20 DUP3 ADD SWAP1 POP SWAP2 SWAP1 POP JUMP JUMPDEST PUSH1 0x0 PUSH1 0x20 DUP3 ADD SWAP1 POP DUP2 DUP2 SUB PUSH1 0x0 DUP4 ADD MSTORE PUSH2 0x3742 DUP2 PUSH2 0x3706 JUMP JUMPDEST SWAP1 POP SWAP2 SWAP1 POP JUMP JUMPDEST PUSH32 0x506F6C6963792065787069726564000000000000000000000000000000000000 PUSH1 0x0 DUP3 ADD MSTORE POP JUMP JUMPDEST PUSH1 0x0 PUSH2 0x377F PUSH1 0xE DUP4 PUSH2 0x275E JUMP JUMPDEST SWAP2 POP PUSH2 0x378A DUP3 PUSH2 0x3749 JUMP JUMPDEST PUSH1 0x20 DUP3 ADD SWAP1 POP SWAP2 SWAP1 POP JUMP JUMPDEST PUSH1 0x0 PUSH1 0x20 DUP3 ADD SWAP1 POP DUP2 DUP2 SUB PUSH1 0x0 DUP4 ADD MSTORE PUSH2 0x37AE DUP2 PUSH2 0x3772 JUMP JUMPDEST SWAP1 POP SWAP2 SWAP1 POP JUMP JUMPDEST PUSH32 0x4E6F20616374697665207472696767657220666F7220746869732070726F746F PUSH1 0x0 DUP3 ADD MSTORE PUSH32 0x636F6C0000000000000000000000000000000000000000000000000000000000 PUSH1 0x20 DUP3 ADD MSTORE POP JUMP JUMPDEST PUSH1 0x0 PUSH2 0x3811 PUSH1 0x23 DUP4 PUSH2 0x275E JUMP JUMPDEST SWAP2 POP PUSH2 0x381C DUP3 PUSH2 0x37B5 JUMP JUMPDEST PUSH1 0x40 DUP3 ADD SWAP1 POP SWAP2 SWAP1 POP JUMP JUMPDEST PUSH1 0x0 PUSH1 0x20 DUP3 ADD SWAP1 POP DUP2 DUP2 SUB PUSH1 0x0 DUP4 ADD MSTORE PUSH2 0x3840 DUP2 PUSH2 0x3804 JUMP JUMPDEST SWAP1 POP SWAP2 SWAP1 POP JUMP JUMPDEST PUSH1 0x0 PUSH1 0x40 DUP3 ADD SWAP1 POP PUSH2 0x385C PUSH1 0x0 DUP4 ADD DUP6 PUSH2 0x26D2 JUMP JUMPDEST PUSH2 0x3869 PUSH1 0x20 DUP4 ADD DUP5 PUSH2 0x291B JUMP JUMPDEST SWAP4 SWAP3 POP POP POP JUMP JUMPDEST PUSH32 0x436C61696D206E6F7420617070726F7665640000000000000000000000000000 PUSH1 0x0 DUP3 ADD MSTORE POP JUMP JUMPDEST PUSH1 0x0 PUSH2 0x38A6 PUSH1 0x12 DUP4 PUSH2 0x275E JUMP JUMPDEST SWAP2 POP PUSH2 0x38B1 DUP3 PUSH2 0x3870 JUMP JUMPDEST PUSH1 0x20 DUP3 ADD SWAP1 POP SWAP2 SWAP1 POP JUMP JUMPDEST PUSH1 0x0 PUSH1 0x20 DUP3 ADD SWAP1 POP DUP2 DUP2 SUB PUSH1 0x0 DUP4 ADD MSTORE PUSH2 0x38D5 DUP2 PUSH2 0x3899 JUMP JUMPDEST SWAP1 POP SWAP2 SWAP1 POP JUMP JUMPDEST PUSH32 0x496E73756666696369656E7420636F6E74726163742062616C616E6365000000 PUSH1 0x0 DUP3 ADD MSTORE POP JUMP JUMPDEST PUSH1 0x0 PUSH2 0x3912 PUSH1 0x1D DUP4 PUSH2 0x275E JUMP JUMPDEST SWAP2 POP PUSH2 0x391D DUP3 PUSH2 0x38DC JUMP JUMPDEST PUSH1 0x20 DUP3 ADD SWAP1 POP SWAP2 SWAP1 POP JUMP JUMPDEST PUSH1 0x0 PUSH1 0x20 DUP3 ADD SWAP1 POP DUP2 DUP2 SUB PUSH1 0x0 DUP4 ADD MSTORE PUSH2 0x3941 DUP2 PUSH2 0x3905 JUMP JUMPDEST SWAP1 POP SWAP2 SWAP1 POP JUMP JUMPDEST PUSH1 0x0 PUSH2 0x3953 DUP3 PUSH2 0x258F JUMP JUMPDEST SWAP2 POP PUSH2 0x395E DUP4 PUSH2 0x258F JUMP JUMPDEST SWAP3 POP DUP3 DUP3 SUB SWAP1 POP DUP2 DUP2 GT ISZERO PUSH2 0x3976 JUMPI PUSH2 0x3975 PUSH2 0x333E JUMP JUMPDEST JUMPDEST SWAP3 SWAP2 POP POP JUMP JUMPDEST PUSH1 0x0 DUP2 SWAP1 POP SWAP3 SWAP2 POP POP JUMP JUMPDEST POP JUMP JUMPDEST PUSH1 0x0 PUSH2 0x3997 PUSH1 0x0 DUP4 PUSH2 0x397C JUMP JUMPDEST SWAP2 POP PUSH2 0x39A2 DUP3 PUSH2 0x3987 JUMP JUMPDEST PUSH1 0x0 DUP3 ADD SWAP1 POP SWAP2 SWAP1 POP JUMP JUMPDEST PUSH1 0x0 PUSH2 0x39B8 DUP3 PUSH2 0x398A JUMP JUMPDEST SWAP2 POP DUP2 SWAP1 POP SWAP2 SWAP1 POP JUMP JUMPDEST PUSH32 0x5472616E73666572206661696C65640000000000000000000000000000000000 PUSH1 0x0 DUP3 ADD MSTORE POP JUMP JUMPDEST PUSH1 0x0 PUSH2 0x39F8 PUSH1 0xF DUP4 PUSH2 0x275E JUMP JUMPDEST SWAP2 POP PUSH2 0x3A03 DUP3 PUSH2 0x39C2 JUMP JUMPDEST PUSH1 0x20 DUP3 ADD SWAP1 POP SWAP2 SWAP1 POP JUMP JUMPDEST PUSH1 0x0 PUSH1 0x20 DUP3 ADD SWAP1 POP DUP2 DUP2 SUB PUSH1 0x0 DUP4 ADD MSTORE PUSH2 0x3A27 DUP2 PUSH2 0x39EB JUMP JUMPDEST SWAP1 POP SWAP2 SWAP1 POP JUMP INVALID LOG2 PUSH5 0x6970667358 0x22 SLT KECCAK256 0xAA PUSH27 0x31E907E6A523A5A8242E8054CDD872C27ADAFDF3CC6D5DAD3CF138 REVERT CREATE2 0xE7 PUSH5 0x736F6C6343 STOP ADDMOD EQ STOP CALLER "},"methodIdentifiers":{"activateTrigger(string,uint8,uint256)":"0f70bdc6","activeTriggers(string)":"5f0ba74d","approveClaim(uint256)":"46e30135","claimProcessingTime()":"d2e36654","claims(uint256)":"a888c2cd","createPolicy(address,uint256,uint256,uint256,string)":"798218ef","deactivateTrigger(string)":"00965308","getClaim(uint256)":"5aef2447","getClaimCount()":"ba4611d9","getContractBalance()":"6f9fb98a","getHolderClaims(address)":"62461363","getHolderPolicies(address)":"857d0fda","getPolicy(uint256)":"2b07fce3","getPolicyCount()":"e59771d2","holderClaims(address,uint256)":"14e3afac","holderPolicies(address,uint256)":"95a4dfd2","isTriggerActive(string)":"40a732da","owner()":"8da5cb5b","policies(uint256)":"d3e89483","processClaimAutomatically(uint256)":"bebe395e","rejectClaim(uint256,string)":"3577a5ad","renounceOwnership()":"715018a6","setClaimProcessingTime(uint256)":"72b4c634","submitClaim(uint256,uint8,string)":"c6c5eb6f","totalClaimsPaid()":"6532ccf5","totalCoverage()":"d51942e2","totalPremiums()":"5bda1584","transferOwnership(address)":"f2fde38b","withdraw(uint256)":"2e1a7d4d"}}}}}