{
  "_format": "hh-sol-artifact-1",
  "contractName": "PraesidiumInsurance",
  "sourceName": "contracts/PraesidiumInsurance.sol",
  "abi": [
    {
      "inputs": [],
      "stateMutability": "nonpayable",
      "type": "constructor"
    },
    {
      "inputs": [
        {
          "internalType": "address",
          "name": "sender",
          "type": "address"
        },
        {
          "internalType": "uint256",
          "name": "tokenId",
          "type": "uint256"
        },
        {
          "internalType": "address",
          "name": "owner",
          "type": "address"
        }
      ],
      "name": "ERC721IncorrectOwner",
      "type": "error"
    },
    {
      "inputs": [
        {
          "internalType": "address",
          "name": "operator",
          "type": "address"
        },
        {
          "internalType": "uint256",
          "name": "tokenId",
          "type": "uint256"
        }
      ],
      "name": "ERC721InsufficientApproval",
      "type": "error"
    },
    {
      "inputs": [
        {
          "internalType": "address",
          "name": "approver",
          "type": "address"
        }
      ],
      "name": "ERC721InvalidApprover",
      "type": "error"
    },
    {
      "inputs": [
        {
          "internalType": "address",
          "name": "operator",
          "type": "address"
        }
      ],
      "name": "ERC721InvalidOperator",
      "type": "error"
    },
    {
      "inputs": [
        {
          "internalType": "address",
          "name": "owner",
          "type": "address"
        }
      ],
      "name": "ERC721InvalidOwner",
      "type": "error"
    },
    {
      "inputs": [
        {
          "internalType": "address",
          "name": "receiver",
          "type": "address"
        }
      ],
      "name": "ERC721InvalidReceiver",
      "type": "error"
    },
    {
      "inputs": [
        {
          "internalType": "address",
          "name": "sender",
          "type": "address"
        }
      ],
      "name": "ERC721InvalidSender",
      "type": "error"
    },
    {
      "inputs": [
        {
          "internalType": "uint256",
          "name": "tokenId",
          "type": "uint256"
        }
      ],
      "name": "ERC721NonexistentToken",
      "type": "error"
    },
    {
      "inputs": [
        {
          "internalType": "address",
          "name": "owner",
          "type": "address"
        }
      ],
      "name": "OwnableInvalidOwner",
      "type": "error"
    },
    {
      "inputs": [
        {
          "internalType": "address",
          "name": "account",
          "type": "address"
        }
      ],
      "name": "OwnableUnauthorizedAccount",
      "type": "error"
    },
    {
      "anonymous": false,
      "inputs": [
        {
          "indexed": true,
          "internalType": "address",
          "name": "owner",
          "type": "address"
        },
        {
          "indexed": true,
          "internalType": "address",
          "name": "approved",
          "type": "address"
        },
        {
          "indexed": true,
          "internalType": "uint256",
          "name": "tokenId",
          "type": "uint256"
        }
      ],
      "name": "Approval",
      "type": "event"
    },
    {
      "anonymous": false,
      "inputs": [
        {
          "indexed": true,
          "internalType": "address",
          "name": "owner",
          "type": "address"
        },
        {
          "indexed": true,
          "internalType": "address",
          "name": "operator",
          "type": "address"
        },
        {
          "indexed": false,
          "internalType": "bool",
          "name": "approved",
          "type": "bool"
        }
      ],
      "name": "ApprovalForAll",
      "type": "event"
    },
    {
      "anonymous": false,
      "inputs": [
        {
          "indexed": true,
          "internalType": "address",
          "name": "previousOwner",
          "type": "address"
        },
        {
          "indexed": true,
          "internalType": "address",
          "name": "newOwner",
          "type": "address"
        }
      ],
      "name": "OwnershipTransferred",
      "type": "event"
    },
    {
      "anonymous": false,
      "inputs": [
        {
          "indexed": true,
          "internalType": "uint256",
          "name": "policyId",
          "type": "uint256"
        },
        {
          "indexed": false,
          "internalType": "uint256",
          "name": "amount",
          "type": "uint256"
        }
      ],
      "name": "PolicyClaimed",
      "type": "event"
    },
    {
      "anonymous": false,
      "inputs": [
        {
          "indexed": true,
          "internalType": "uint256",
          "name": "policyId",
          "type": "uint256"
        },
        {
          "indexed": true,
          "internalType": "address",
          "name": "holder",
          "type": "address"
        },
        {
          "indexed": false,
          "internalType": "uint256",
          "name": "premium",
          "type": "uint256"
        },
        {
          "indexed": false,
          "internalType": "uint256",
          "name": "coverage",
          "type": "uint256"
        }
      ],
      "name": "PolicyCreated",
      "type": "event"
    },
    {
      "anonymous": false,
      "inputs": [
        {
          "indexed": true,
          "internalType": "address",
          "name": "from",
          "type": "address"
        },
        {
          "indexed": true,
          "internalType": "address",
          "name": "to",
          "type": "address"
        },
        {
          "indexed": true,
          "internalType": "uint256",
          "name": "tokenId",
          "type": "uint256"
        }
      ],
      "name": "Transfer",
      "type": "event"
    },
    {
      "inputs": [
        {
          "internalType": "address",
          "name": "to",
          "type": "address"
        },
        {
          "internalType": "uint256",
          "name": "tokenId",
          "type": "uint256"
        }
      ],
      "name": "approve",
      "outputs": [],
      "stateMutability": "nonpayable",
      "type": "function"
    },
    {
      "inputs": [
        {
          "internalType": "address",
          "name": "owner",
          "type": "address"
        }
      ],
      "name": "balanceOf",
      "outputs": [
        {
          "internalType": "uint256",
          "name": "",
          "type": "uint256"
        }
      ],
      "stateMutability": "view",
      "type": "function"
    },
    {
      "inputs": [
        {
          "internalType": "uint256",
          "name": "policyId",
          "type": "uint256"
        }
      ],
      "name": "claimPolicy",
      "outputs": [],
      "stateMutability": "nonpayable",
      "type": "function"
    },
    {
      "inputs": [
        {
          "internalType": "address",
          "name": "holder",
          "type": "address"
        },
        {
          "internalType": "uint256",
          "name": "premium",
          "type": "uint256"
        },
        {
          "internalType": "uint256",
          "name": "coverage",
          "type": "uint256"
        },
        {
          "internalType": "uint256",
          "name": "duration",
          "type": "uint256"
        },
        {
          "internalType": "string",
          "name": "protocol",
          "type": "string"
        }
      ],
      "name": "createPolicy",
      "outputs": [
        {
          "internalType": "uint256",
          "name": "",
          "type": "uint256"
        }
      ],
      "stateMutability": "payable",
      "type": "function"
    },
    {
      "inputs": [
        {
          "internalType": "uint256",
          "name": "tokenId",
          "type": "uint256"
        }
      ],
      "name": "getApproved",
      "outputs": [
        {
          "internalType": "address",
          "name": "",
          "type": "address"
        }
      ],
      "stateMutability": "view",
      "type": "function"
    },
    {
      "inputs": [
        {
          "internalType": "address",
          "name": "holder",
          "type": "address"
        }
      ],
      "name": "getHolderPolicies",
      "outputs": [
        {
          "internalType": "uint256[]",
          "name": "",
          "type": "uint256[]"
        }
      ],
      "stateMutability": "view",
      "type": "function"
    },
    {
      "inputs": [],
      "name": "getPolicyCount",
      "outputs": [
        {
          "internalType": "uint256",
          "name": "",
          "type": "uint256"
        }
      ],
      "stateMutability": "view",
      "type": "function"
    },
    {
      "inputs": [
        {
          "internalType": "address",
          "name": "",
          "type": "address"
        },
        {
          "internalType": "uint256",
          "name": "",
          "type": "uint256"
        }
      ],
      "name": "holderPolicies",
      "outputs": [
        {
          "internalType": "uint256",
          "name": "",
          "type": "uint256"
        }
      ],
      "stateMutability": "view",
      "type": "function"
    },
    {
      "inputs": [
        {
          "internalType": "address",
          "name": "owner",
          "type": "address"
        },
        {
          "internalType": "address",
          "name": "operator",
          "type": "address"
        }
      ],
      "name": "isApprovedForAll",
      "outputs": [
        {
          "internalType": "bool",
          "name": "",
          "type": "bool"
        }
      ],
      "stateMutability": "view",
      "type": "function"
    },
    {
      "inputs": [],
      "name": "name",
      "outputs": [
        {
          "internalType": "string",
          "name": "",
          "type": "string"
        }
      ],
      "stateMutability": "view",
      "type": "function"
    },
    {
      "inputs": [],
      "name": "owner",
      "outputs": [
        {
          "internalType": "address",
          "name": "",
          "type": "address"
        }
      ],
      "stateMutability": "view",
      "type": "function"
    },
    {
      "inputs": [
        {
          "internalType": "uint256",
          "name": "tokenId",
          "type": "uint256"
        }
      ],
      "name": "ownerOf",
      "outputs": [
        {
          "internalType": "address",
          "name": "",
          "type": "address"
        }
      ],
      "stateMutability": "view",
      "type": "function"
    },
    {
      "inputs": [
        {
          "internalType": "uint256",
          "name": "",
          "type": "uint256"
        }
      ],
      "name": "policies",
      "outputs": [
        {
          "internalType": "uint256",
          "name": "id",
          "type": "uint256"
        },
        {
          "internalType": "address",
          "name": "holder",
          "type": "address"
        },
        {
          "internalType": "uint256",
          "name": "premium",
          "type": "uint256"
        },
        {
          "internalType": "uint256",
          "name": "coverage",
          "type": "uint256"
        },
        {
          "internalType": "uint256",
          "name": "expiry",
          "type": "uint256"
        },
        {
          "internalType": "bool",
          "name": "active",
          "type": "bool"
        },
        {
          "internalType": "string",
          "name": "protocol",
          "type": "string"
        }
      ],
      "stateMutability": "view",
      "type": "function"
    },
    {
      "inputs": [],
      "name": "renounceOwnership",
      "outputs": [],
      "stateMutability": "nonpayable",
      "type": "function"
    },
    {
      "inputs": [
        {
          "internalType": "address",
          "name": "from",
          "type": "address"
        },
        {
          "internalType": "address",
          "name": "to",
          "type": "address"
        },
        {
          "internalType": "uint256",
          "name": "tokenId",
          "type": "uint256"
        }
      ],
      "name": "safeTransferFrom",
      "outputs": [],
      "stateMutability": "nonpayable",
      "type": "function"
    },
    {
      "inputs": [
        {
          "internalType": "address",
          "name": "from",
          "type": "address"
        },
        {
          "internalType": "address",
          "name": "to",
          "type": "address"
        },
        {
          "internalType": "uint256",
          "name": "tokenId",
          "type": "uint256"
        },
        {
          "internalType": "bytes",
          "name": "data",
          "type": "bytes"
        }
      ],
      "name": "safeTransferFrom",
      "outputs": [],
      "stateMutability": "nonpayable",
      "type": "function"
    },
    {
      "inputs": [
        {
          "internalType": "address",
          "name": "operator",
          "type": "address"
        },
        {
          "internalType": "bool",
          "name": "approved",
          "type": "bool"
        }
      ],
      "name": "setApprovalForAll",
      "outputs": [],
      "stateMutability": "nonpayable",
      "type": "function"
    },
    {
      "inputs": [
        {
          "internalType": "bytes4",
          "name": "interfaceId",
          "type": "bytes4"
        }
      ],
      "name": "supportsInterface",
      "outputs": [
        {
          "internalType": "bool",
          "name": "",
          "type": "bool"
        }
      ],
      "stateMutability": "view",
      "type": "function"
    },
    {
      "inputs": [],
      "name": "symbol",
      "outputs": [
        {
          "internalType": "string",
          "name": "",
          "type": "string"
        }
      ],
      "stateMutability": "view",
      "type": "function"
    },
    {
      "inputs": [
        {
          "internalType": "uint256",
          "name": "tokenId",
          "type": "uint256"
        }
      ],
      "name": "tokenURI",
      "outputs": [
        {
          "internalType": "string",
          "name": "",
          "type": "string"
        }
      ],
      "stateMutability": "view",
      "type": "function"
    },
    {
      "inputs": [],
      "name": "totalCoverage",
      "outputs": [
        {
          "internalType": "uint256",
          "name": "",
          "type": "uint256"
        }
      ],
      "stateMutability": "view",
      "type": "function"
    },
    {
      "inputs": [],
      "name": "totalPremiums",
      "outputs": [
        {
          "internalType": "uint256",
          "name": "",
          "type": "uint256"
        }
      ],
      "stateMutability": "view",
      "type": "function"
    },
    {
      "inputs": [
        {
          "internalType": "address",
          "name": "from",
          "type": "address"
        },
        {
          "internalType": "address",
          "name": "to",
          "type": "address"
        },
        {
          "internalType": "uint256",
          "name": "tokenId",
          "type": "uint256"
        }
      ],
      "name": "transferFrom",
      "outputs": [],
      "stateMutability": "nonpayable",
      "type": "function"
    },
    {
      "inputs": [
        {
          "internalType": "address",
          "name": "newOwner",
          "type": "address"
        }
      ],
      "name": "transferOwnership",
      "outputs": [],
      "stateMutability": "nonpayable",
      "type": "function"
    },
    {
      "inputs": [],
      "name": "withdraw",
      "outputs": [],
      "stateMutability": "nonpayable",
      "type": "function"
    }
  ],
  "bytecode": "0x60806040523480156200001157600080fd5b5033604051806040016040528060118152602001705072616573696469756d20506f6c69637960781b81525060405180604001604052806004815260200163141413d360e21b81525081600090816200006b9190620001b5565b5060016200007a8282620001b5565b5050506001600160a01b038116620000ac57604051631e4fbdf760e01b81526000600482015260240160405180910390fd5b620000b781620000be565b5062000281565b600680546001600160a01b038381166001600160a01b0319831681179093556040519116919082907f8be0079c531659141344cd1fd0a4f28419497f9722a3daafe3b4186f6b6457e090600090a35050565b634e487b7160e01b600052604160045260246000fd5b600181811c908216806200013b57607f821691505b6020821081036200015c57634e487b7160e01b600052602260045260246000fd5b50919050565b601f821115620001b057600081815260208120601f850160051c810160208610156200018b5750805b601f850160051c820191505b81811015620001ac5782815560010162000197565b5050505b505050565b81516001600160401b03811115620001d157620001d162000110565b620001e981620001e2845462000126565b8462000162565b602080601f831160018114620002215760008415620002085750858301515b600019600386901b1c1916600185901b178555620001ac565b600085815260208120601f198616915b82811015620002525788860151825594840194600190910190840162000231565b5085821015620002715787850151600019600388901b60f8161c191681555b5050505050600190811b01905550565b611a5a80620002916000396000f3fe6080604052600436106101665760003560e01c8063798218ef116100d1578063b88d4fde1161008a578063d51942e211610064578063d51942e214610430578063e59771d214610446578063e985e9c51461045b578063f2fde38b1461047b57600080fd5b8063b88d4fde146103bd578063c87b56dd146103dd578063d3e89483146103fd57600080fd5b8063798218ef1461030a578063857d0fda1461031d5780638da5cb5b1461034a57806395a4dfd21461036857806395d89b4114610388578063a22cb4651461039d57600080fd5b80633ccfd60b116101235780633ccfd60b1461025c57806342842e0e146102715780635bda1584146102915780636352211e146102b557806370a08231146102d5578063715018a6146102f557600080fd5b806301ffc9a71461016b57806306fdde03146101a0578063081812fc146101c2578063095ea7b3146101fa57806323b872dd1461021c5780632aea118d1461023c575b600080fd5b34801561017757600080fd5b5061018b610186366004611448565b61049b565b60405190151581526020015b60405180910390f35b3480156101ac57600080fd5b506101b56104ed565b60405161019791906114b5565b3480156101ce57600080fd5b506101e26101dd3660046114c8565b61057f565b6040516001600160a01b039091168152602001610197565b34801561020657600080fd5b5061021a6102153660046114fd565b6105a8565b005b34801561022857600080fd5b5061021a610237366004611527565b6105b7565b34801561024857600080fd5b5061021a6102573660046114c8565b610647565b34801561026857600080fd5b5061021a6107d0565b34801561027d57600080fd5b5061021a61028c366004611527565b610814565b34801561029d57600080fd5b506102a7600a5481565b604051908152602001610197565b3480156102c157600080fd5b506101e26102d03660046114c8565b610834565b3480156102e157600080fd5b506102a76102f0366004611563565b61083f565b34801561030157600080fd5b5061021a610887565b6102a761031836600461160a565b61089b565b34801561032957600080fd5b5061033d610338366004611563565b610a88565b6040516101979190611689565b34801561035657600080fd5b506006546001600160a01b03166101e2565b34801561037457600080fd5b506102a76103833660046114fd565b610af4565b34801561039457600080fd5b506101b5610b25565b3480156103a957600080fd5b5061021a6103b83660046116cd565b610b34565b3480156103c957600080fd5b5061021a6103d8366004611709565b610b3f565b3480156103e957600080fd5b506101b56103f83660046114c8565b610b57565b34801561040957600080fd5b5061041d6104183660046114c8565b610bcc565b6040516101979796959493929190611785565b34801561043c57600080fd5b506102a7600b5481565b34801561045257600080fd5b506007546102a7565b34801561046757600080fd5b5061018b6104763660046117d3565b610ca1565b34801561048757600080fd5b5061021a610496366004611563565b610ccf565b60006001600160e01b031982166380ac58cd60e01b14806104cc57506001600160e01b03198216635b5e139f60e01b145b806104e757506301ffc9a760e01b6001600160e01b03198316145b92915050565b6060600080546104fc90611806565b80601f016020809104026020016040519081016040528092919081815260200182805461052890611806565b80156105755780601f1061054a57610100808354040283529160200191610575565b820191906000526020600020905b81548152906001019060200180831161055857829003601f168201915b5050505050905090565b600061058a82610d0a565b506000828152600460205260409020546001600160a01b03166104e7565b6105b3828233610d43565b5050565b6001600160a01b0382166105e657604051633250574960e11b8152600060048201526024015b60405180910390fd5b60006105f3838333610d50565b9050836001600160a01b0316816001600160a01b031614610641576040516364283d7b60e01b81526001600160a01b03808616600483015260248201849052821660448201526064016105dd565b50505050565b60008181526008602052604090203361065f83610834565b6001600160a01b0316146106a85760405162461bcd60e51b815260206004820152601060248201526f2737ba103837b634b1bc9037bbb732b960811b60448201526064016105dd565b600581015460ff166106f05760405162461bcd60e51b8152602060048201526011602482015270506f6c696379206e6f742061637469766560781b60448201526064016105dd565b80600401544211156107355760405162461bcd60e51b815260206004820152600e60248201526d141bdb1a58de48195e1c1a5c995960921b60448201526064016105dd565b60058101805460ff191690556003810154600b8054600090610758908490611856565b90915550506003810154604051339180156108fc02916000818181858888f1935050505015801561078d573d6000803e3d6000fd5b50817fc9d92d603dc7645c578a271dc9dec46855d3c0cdbdc48d00399a438907cfa1cb82600301546040516107c491815260200190565b60405180910390a25050565b6107d8610e49565b6006546040516001600160a01b03909116904780156108fc02916000818181858888f19350505050158015610811573d6000803e3d6000fd5b50565b61082f83838360405180602001604052806000815250610b3f565b505050565b60006104e782610d0a565b60006001600160a01b03821661086b576040516322718ad960e21b8152600060048201526024016105dd565b506001600160a01b031660009081526003602052604090205490565b61088f610e49565b6108996000610e76565b565b6000843410156108ed5760405162461bcd60e51b815260206004820152601c60248201527f496e73756666696369656e74207072656d69756d207061796d656e740000000060448201526064016105dd565b600780549060006108fd83611869565b90915550506007546040805160e0810182528281526001600160a01b0389166020820152908101879052606081018690526080810161093c8642611882565b8152600160208083018290526040928301879052600085815260088252839020845181559084015191810180546001600160a01b0319166001600160a01b0390931692909217909155908201516002820155606082015160038201556080820151600482015560a082015160058201805460ff191691151591909117905560c082015160068201906109ce90826118db565b5050506001600160a01b03871660009081526009602090815260408220805460018101825590835290822001829055600a8054889290610a0f908490611882565b9250508190555084600b6000828254610a289190611882565b90915550610a3890508782610ec8565b60408051878152602081018790526001600160a01b0389169183917ff407f724dd5d2b7754fcbc405960f07c8da0a85e7f71948913fb2997e77bfc86910160405180910390a39695505050505050565b6001600160a01b038116600090815260096020908152604091829020805483518184028101840190945280845260609392830182828015610ae857602002820191906000526020600020905b815481526020019060010190808311610ad4575b50505050509050919050565b60096020528160005260406000208181548110610b1057600080fd5b90600052602060002001600091509150505481565b6060600180546104fc90611806565b6105b3338383610f2d565b610b4a8484846105b7565b6106413385858585610fcc565b6060610b6282610d0a565b506000610b7a60408051602081019091526000815290565b90506000815111610b9a5760405180602001604052806000815250610bc5565b80610ba4846110f7565b604051602001610bb592919061199b565b6040516020818303038152906040525b9392505050565b600860205260009081526040902080546001820154600283015460038401546004850154600586015460068701805496976001600160a01b039096169694959394929360ff90921692610c1e90611806565b80601f0160208091040260200160405190810160405280929190818152602001828054610c4a90611806565b8015610c975780601f10610c6c57610100808354040283529160200191610c97565b820191906000526020600020905b815481529060010190602001808311610c7a57829003601f168201915b5050505050905087565b6001600160a01b03918216600090815260056020908152604080832093909416825291909152205460ff1690565b610cd7610e49565b6001600160a01b038116610d0157604051631e4fbdf760e01b8152600060048201526024016105dd565b61081181610e76565b6000818152600260205260408120546001600160a01b0316806104e757604051637e27328960e01b8152600481018490526024016105dd565b61082f838383600161118a565b6000828152600260205260408120546001600160a01b0390811690831615610d7d57610d7d818486611290565b6001600160a01b03811615610dbb57610d9a60008560008061118a565b6001600160a01b038116600090815260036020526040902080546000190190555b6001600160a01b03851615610dea576001600160a01b0385166000908152600360205260409020805460010190555b60008481526002602052604080822080546001600160a01b0319166001600160a01b0389811691821790925591518793918516917fddf252ad1be2c89b69c2b068fc378daa952ba7f163c4a11628f55a4df523b3ef91a4949350505050565b6006546001600160a01b031633146108995760405163118cdaa760e01b81523360048201526024016105dd565b600680546001600160a01b038381166001600160a01b0319831681179093556040519116919082907f8be0079c531659141344cd1fd0a4f28419497f9722a3daafe3b4186f6b6457e090600090a35050565b6001600160a01b038216610ef257604051633250574960e11b8152600060048201526024016105dd565b6000610f0083836000610d50565b90506001600160a01b0381161561082f576040516339e3563760e11b8152600060048201526024016105dd565b6001600160a01b038216610f5f57604051630b61174360e31b81526001600160a01b03831660048201526024016105dd565b6001600160a01b03838116600081815260056020908152604080832094871680845294825291829020805460ff191686151590811790915591519182527f17307eab39ab6107e8899845ad3d59bd9653f200f220920489ca2b5937696c31910160405180910390a3505050565b6001600160a01b0383163b156110f057604051630a85bd0160e11b81526001600160a01b0384169063150b7a029061100e9088908890879087906004016119ca565b6020604051808303816000875af1925050508015611049575060408051601f3d908101601f1916820190925261104691810190611a07565b60015b6110b2573d808015611077576040519150601f19603f3d011682016040523d82523d6000602084013e61107c565b606091505b5080516000036110aa57604051633250574960e11b81526001600160a01b03851660048201526024016105dd565b805160208201fd5b6001600160e01b03198116630a85bd0160e11b146110ee57604051633250574960e11b81526001600160a01b03851660048201526024016105dd565b505b5050505050565b60606000611104836112f4565b600101905060008167ffffffffffffffff8111156111245761112461157e565b6040519080825280601f01601f19166020018201604052801561114e576020820181803683370190505b5090508181016020015b600019016f181899199a1a9b1b9c1cb0b131b232b360811b600a86061a8153600a850494508461115857509392505050565b808061119e57506001600160a01b03821615155b156112605760006111ae84610d0a565b90506001600160a01b038316158015906111da5750826001600160a01b0316816001600160a01b031614155b80156111ed57506111eb8184610ca1565b155b156112165760405163a9fbf51f60e01b81526001600160a01b03841660048201526024016105dd565b811561125e5783856001600160a01b0316826001600160a01b03167f8c5be1e5ebec7d5bd14f71427d1e84f3dd0314c0f7b2291e5b200ac8c7c3b92560405160405180910390a45b505b5050600090815260046020526040902080546001600160a01b0319166001600160a01b0392909216919091179055565b61129b8383836113cc565b61082f576001600160a01b0383166112c957604051637e27328960e01b8152600481018290526024016105dd565b60405163177e802f60e01b81526001600160a01b0383166004820152602481018290526044016105dd565b60008072184f03e93ff9f4daa797ed6e38ed64bf6a1f0160401b83106113335772184f03e93ff9f4daa797ed6e38ed64bf6a1f0160401b830492506040015b6d04ee2d6d415b85acef8100000000831061135f576d04ee2d6d415b85acef8100000000830492506020015b662386f26fc10000831061137d57662386f26fc10000830492506010015b6305f5e1008310611395576305f5e100830492506008015b61271083106113a957612710830492506004015b606483106113bb576064830492506002015b600a83106104e75760010192915050565b60006001600160a01b0383161580159061142a5750826001600160a01b0316846001600160a01b0316148061140657506114068484610ca1565b8061142a57506000828152600460205260409020546001600160a01b038481169116145b949350505050565b6001600160e01b03198116811461081157600080fd5b60006020828403121561145a57600080fd5b8135610bc581611432565b60005b83811015611480578181015183820152602001611468565b50506000910152565b600081518084526114a1816020860160208601611465565b601f01601f19169290920160200192915050565b602081526000610bc56020830184611489565b6000602082840312156114da57600080fd5b5035919050565b80356001600160a01b03811681146114f857600080fd5b919050565b6000806040838503121561151057600080fd5b611519836114e1565b946020939093013593505050565b60008060006060848603121561153c57600080fd5b611545846114e1565b9250611553602085016114e1565b9150604084013590509250925092565b60006020828403121561157557600080fd5b610bc5826114e1565b634e487b7160e01b600052604160045260246000fd5b600067ffffffffffffffff808411156115af576115af61157e565b604051601f8501601f19908116603f011681019082821181831017156115d7576115d761157e565b816040528093508581528686860111156115f057600080fd5b858560208301376000602087830101525050509392505050565b600080600080600060a0868803121561162257600080fd5b61162b866114e1565b9450602086013593506040860135925060608601359150608086013567ffffffffffffffff81111561165c57600080fd5b8601601f8101881361166d57600080fd5b61167c88823560208401611594565b9150509295509295909350565b6020808252825182820181905260009190848201906040850190845b818110156116c1578351835292840192918401916001016116a5565b50909695505050505050565b600080604083850312156116e057600080fd5b6116e9836114e1565b9150602083013580151581146116fe57600080fd5b809150509250929050565b6000806000806080858703121561171f57600080fd5b611728856114e1565b9350611736602086016114e1565b925060408501359150606085013567ffffffffffffffff81111561175957600080fd5b8501601f8101871361176a57600080fd5b61177987823560208401611594565b91505092959194509250565b87815260018060a01b038716602082015285604082015284606082015283608082015282151560a082015260e060c082015260006117c660e0830184611489565b9998505050505050505050565b600080604083850312156117e657600080fd5b6117ef836114e1565b91506117fd602084016114e1565b90509250929050565b600181811c9082168061181a57607f821691505b60208210810361183a57634e487b7160e01b600052602260045260246000fd5b50919050565b634e487b7160e01b600052601160045260246000fd5b818103818111156104e7576104e7611840565b60006001820161187b5761187b611840565b5060010190565b808201808211156104e7576104e7611840565b601f82111561082f57600081815260208120601f850160051c810160208610156118bc5750805b601f850160051c820191505b818110156110ee578281556001016118c8565b815167ffffffffffffffff8111156118f5576118f561157e565b611909816119038454611806565b84611895565b602080601f83116001811461193e57600084156119265750858301515b600019600386901b1c1916600185901b1785556110ee565b600085815260208120601f198616915b8281101561196d5788860151825594840194600190910190840161194e565b508582101561198b5787850151600019600388901b60f8161c191681555b5050505050600190811b01905550565b600083516119ad818460208801611465565b8351908301906119c1818360208801611465565b01949350505050565b6001600160a01b03858116825284166020820152604081018390526080606082018190526000906119fd90830184611489565b9695505050505050565b600060208284031215611a1957600080fd5b8151610bc58161143256fea2646970667358221220c8ede64c9b18d1cd7efcc5097d1b21b2c16a2664d6d0012ed5b9c776a4bfaebe64736f6c63430008140033",
  "linkReferences": {},
  "deployedLinkReferences": {}
}