{
  "_format": "hh-sol-artifact-1",
  "contractName": "SimpleLiquidityPool",
  "sourceName": "contracts/SimpleLiquidityPool.sol",
  "abi": [
    {
      "anonymous": false,
      "inputs": [
        {
          "indexed": true,
          "internalType": "address",
          "name": "user",
          "type": "address"
        },
        {
          "indexed": false,
          "internalType": "uint256",
          "name": "amount",
          "type": "uint256"
        },
        {
          "indexed": false,
          "internalType": "uint256",
          "name": "shares",
          "type": "uint256"
        }
      ],
      "name": "Deposit",
      "type": "event"
    },
    {
      "anonymous": false,
      "inputs": [
        {
          "indexed": true,
          "internalType": "address",
          "name": "user",
          "type": "address"
        },
        {
          "indexed": false,
          "internalType": "uint256",
          "name": "shares",
          "type": "uint256"
        },
        {
          "indexed": false,
          "internalType": "uint256",
          "name": "amount",
          "type": "uint256"
        }
      ],
      "name": "Withdraw",
      "type": "event"
    },
    {
      "inputs": [],
      "name": "deposit",
      "outputs": [],
      "stateMutability": "payable",
      "type": "function"
    },
    {
      "inputs": [],
      "name": "getPoolBalance",
      "outputs": [
        {
          "internalType": "uint256",
          "name": "",
          "type": "uint256"
        }
      ],
      "stateMutability": "view",
      "type": "function"
    },
    {
      "inputs": [
        {
          "internalType": "address",
          "name": "user",
          "type": "address"
        }
      ],
      "name": "getUserBalance",
      "outputs": [
        {
          "internalType": "uint256",
          "name": "",
          "type": "uint256"
        }
      ],
      "stateMutability": "view",
      "type": "function"
    },
    {
      "inputs": [
        {
          "internalType": "address",
          "name": "user",
          "type": "address"
        }
      ],
      "name": "getUserShares",
      "outputs": [
        {
          "internalType": "uint256",
          "name": "",
          "type": "uint256"
        }
      ],
      "stateMutability": "view",
      "type": "function"
    },
    {
      "inputs": [],
      "name": "totalBalance",
      "outputs": [
        {
          "internalType": "uint256",
          "name": "",
          "type": "uint256"
        }
      ],
      "stateMutability": "view",
      "type": "function"
    },
    {
      "inputs": [],
      "name": "totalShares",
      "outputs": [
        {
          "internalType": "uint256",
          "name": "",
          "type": "uint256"
        }
      ],
      "stateMutability": "view",
      "type": "function"
    },
    {
      "inputs": [
        {
          "internalType": "address",
          "name": "",
          "type": "address"
        }
      ],
      "name": "userShares",
      "outputs": [
        {
          "internalType": "uint256",
          "name": "",
          "type": "uint256"
        }
      ],
      "stateMutability": "view",
      "type": "function"
    },
    {
      "inputs": [
        {
          "internalType": "uint256",
          "name": "shares",
          "type": "uint256"
        }
      ],
      "name": "withdraw",
      "outputs": [],
      "stateMutability": "nonpayable",
      "type": "function"
    }
  ],
  "bytecode": "0x608060405234801561001057600080fd5b50610a33806100206000396000f3fe60806040526004361061007b5760003560e01c8063ad7a672f1161004e578063ad7a672f1461013c578063ba0cb22b14610167578063d0e30db0146101a4578063de69b3aa146101ae5761007b565b80632e1a7d4d146100805780633a98ef39146100a957806347734892146100d4578063abd70aa214610111575b600080fd5b34801561008c57600080fd5b506100a760048036038101906100a29190610664565b6101eb565b005b3480156100b557600080fd5b506100be6103f0565b6040516100cb91906106a0565b60405180910390f35b3480156100e057600080fd5b506100fb60048036038101906100f69190610719565b6103f6565b60405161010891906106a0565b60405180910390f35b34801561011d57600080fd5b5061012661046b565b60405161013391906106a0565b60405180910390f35b34801561014857600080fd5b50610151610475565b60405161015e91906106a0565b60405180910390f35b34801561017357600080fd5b5061018e60048036038101906101899190610719565b61047b565b60405161019b91906106a0565b60405180910390f35b6101ac6104c3565b005b3480156101ba57600080fd5b506101d560048036038101906101d09190610719565b610611565b6040516101e291906106a0565b60405180910390f35b6000811161022e576040517f08c379a0000000000000000000000000000000000000000000000000000000008152600401610225906107a3565b60405180910390fd5b806000803373ffffffffffffffffffffffffffffffffffffffff1673ffffffffffffffffffffffffffffffffffffffff1681526020019081526020016000205410156102af576040517f08c379a00000000000000000000000000000000000000000000000000000000081526004016102a69061080f565b60405180910390fd5b6000600154600254836102c2919061085e565b6102cc91906108cf565b9050816000803373ffffffffffffffffffffffffffffffffffffffff1673ffffffffffffffffffffffffffffffffffffffff168152602001908152602001600020600082825461031c9190610900565b9250508190555081600160008282546103359190610900565b92505081905550806002600082825461034e9190610900565b925050819055503373ffffffffffffffffffffffffffffffffffffffff166108fc829081150290604051600060405180830381858888f1935050505015801561039b573d6000803e3d6000fd5b503373ffffffffffffffffffffffffffffffffffffffff167ff279e6a1f5e320cca91135676d9cb6e44ca8a08c0b88342bcdb1144f6511b56883836040516103e4929190610934565b60405180910390a25050565b60015481565b6000806001540361040a5760009050610466565b6001546002546000808573ffffffffffffffffffffffffffffffffffffffff1673ffffffffffffffffffffffffffffffffffffffff16815260200190815260200160002054610459919061085e565b61046391906108cf565b90505b919050565b6000600254905090565b60025481565b60008060008373ffffffffffffffffffffffffffffffffffffffff1673ffffffffffffffffffffffffffffffffffffffff168152602001908152602001600020549050919050565b60003411610506576040517f08c379a00000000000000000000000000000000000000000000000000000000081526004016104fd906109a9565b60405180910390fd5b6000806001540361051957349050610537565b6002546001543461052a919061085e565b61053491906108cf565b90505b806000803373ffffffffffffffffffffffffffffffffffffffff1673ffffffffffffffffffffffffffffffffffffffff168152602001908152602001600020600082825461058591906109c9565b92505081905550806001600082825461059e91906109c9565b9250508190555034600260008282546105b791906109c9565b925050819055503373ffffffffffffffffffffffffffffffffffffffff167f90890809c654f11d6e72a28fa60149770a0d11ec6c92319d6ceb2bb0a4ea1a153483604051610606929190610934565b60405180910390a250565b60006020528060005260406000206000915090505481565b600080fd5b6000819050919050565b6106418161062e565b811461064c57600080fd5b50565b60008135905061065e81610638565b92915050565b60006020828403121561067a57610679610629565b5b60006106888482850161064f565b91505092915050565b61069a8161062e565b82525050565b60006020820190506106b56000830184610691565b92915050565b600073ffffffffffffffffffffffffffffffffffffffff82169050919050565b60006106e6826106bb565b9050919050565b6106f6816106db565b811461070157600080fd5b50565b600081359050610713816106ed565b92915050565b60006020828403121561072f5761072e610629565b5b600061073d84828501610704565b91505092915050565b600082825260208201905092915050565b7f4d75737420776974686472617720736f6d657468696e67000000000000000000600082015250565b600061078d601783610746565b915061079882610757565b602082019050919050565b600060208201905081810360008301526107bc81610780565b9050919050565b7f496e73756666696369656e742073686172657300000000000000000000000000600082015250565b60006107f9601383610746565b9150610804826107c3565b602082019050919050565b60006020820190508181036000830152610828816107ec565b9050919050565b7f4e487b7100000000000000000000000000000000000000000000000000000000600052601160045260246000fd5b60006108698261062e565b91506108748361062e565b92508282026108828161062e565b915082820484148315176108995761089861082f565b5b5092915050565b7f4e487b7100000000000000000000000000000000000000000000000000000000600052601260045260246000fd5b60006108da8261062e565b91506108e58361062e565b9250826108f5576108f46108a0565b5b828204905092915050565b600061090b8261062e565b91506109168361062e565b925082820390508181111561092e5761092d61082f565b5b92915050565b60006040820190506109496000830185610691565b6109566020830184610691565b9392505050565b7f4d757374206465706f73697420736f6d657468696e6700000000000000000000600082015250565b6000610993601683610746565b915061099e8261095d565b602082019050919050565b600060208201905081810360008301526109c281610986565b9050919050565b60006109d48261062e565b91506109df8361062e565b92508282019050808211156109f7576109f661082f565b5b9291505056fea2646970667358221220830cc00119f80eede2f3870d1e71e9603b91bbef1c92079124a055f23fc811d564736f6c63430008140033",
  "linkReferences": {},
  "deployedLinkReferences": {}
}