{
  "_format": "hh-sol-artifact-1",
  "contractName": "SimpleLiquidityPool",
  "sourceName": "contracts/SimpleLiquidityPool.sol",
  "abi": [
    {
      "anonymous": false,
      "inputs": [
        {
          "indexed": true,
          "internalType": "address",
          "name": "user",
          "type": "address"
        },
        {
          "indexed": false,
          "internalType": "uint256",
          "name": "amount",
          "type": "uint256"
        },
        {
          "indexed": false,
          "internalType": "uint256",
          "name": "shares",
          "type": "uint256"
        }
      ],
      "name": "Deposit",
      "type": "event"
    },
    {
      "anonymous": false,
      "inputs": [
        {
          "indexed": true,
          "internalType": "address",
          "name": "user",
          "type": "address"
        },
        {
          "indexed": false,
          "internalType": "uint256",
          "name": "shares",
          "type": "uint256"
        },
        {
          "indexed": false,
          "internalType": "uint256",
          "name": "amount",
          "type": "uint256"
        }
      ],
      "name": "Withdraw",
      "type": "event"
    },
    {
      "inputs": [],
      "name": "deposit",
      "outputs": [],
      "stateMutability": "payable",
      "type": "function"
    },
    {
      "inputs": [],
      "name": "getPoolBalance",
      "outputs": [
        {
          "internalType": "uint256",
          "name": "",
          "type": "uint256"
        }
      ],
      "stateMutability": "view",
      "type": "function"
    },
    {
      "inputs": [
        {
          "internalType": "address",
          "name": "user",
          "type": "address"
        }
      ],
      "name": "getUserBalance",
      "outputs": [
        {
          "internalType": "uint256",
          "name": "",
          "type": "uint256"
        }
      ],
      "stateMutability": "view",
      "type": "function"
    },
    {
      "inputs": [
        {
          "internalType": "address",
          "name": "user",
          "type": "address"
        }
      ],
      "name": "getUserShares",
      "outputs": [
        {
          "internalType": "uint256",
          "name": "",
          "type": "uint256"
        }
      ],
      "stateMutability": "view",
      "type": "function"
    },
    {
      "inputs": [],
      "name": "totalBalance",
      "outputs": [
        {
          "internalType": "uint256",
          "name": "",
          "type": "uint256"
        }
      ],
      "stateMutability": "view",
      "type": "function"
    },
    {
      "inputs": [],
      "name": "totalShares",
      "outputs": [
        {
          "internalType": "uint256",
          "name": "",
          "type": "uint256"
        }
      ],
      "stateMutability": "view",
      "type": "function"
    },
    {
      "inputs": [
        {
          "internalType": "address",
          "name": "",
          "type": "address"
        }
      ],
      "name": "userShares",
      "outputs": [
        {
          "internalType": "uint256",
          "name": "",
          "type": "uint256"
        }
      ],
      "stateMutability": "view",
      "type": "function"
    },
    {
      "inputs": [
        {
          "internalType": "uint256",
          "name": "shares",
          "type": "uint256"
        }
      ],
      "name": "withdraw",
      "outputs": [],
      "stateMutability": "nonpayable",
      "type": "function"
    }
  ],
  "bytecode": "0x608060405234801561001057600080fd5b5061055d806100206000396000f3fe60806040526004361061007b5760003560e01c8063ad7a672f1161004e578063ad7a672f146100ff578063ba0cb22b14610115578063d0e30db01461014b578063de69b3aa1461015357600080fd5b80632e1a7d4d146100805780633a98ef39146100a257806347734892146100ca578063abd70aa2146100ea575b600080fd5b34801561008c57600080fd5b506100a061009b366004610469565b610180565b005b3480156100ae57600080fd5b506100b860015481565b60405190815260200160405180910390f35b3480156100d657600080fd5b506100b86100e5366004610482565b61030f565b3480156100f657600080fd5b506002546100b8565b34801561010b57600080fd5b506100b860025481565b34801561012157600080fd5b506100b8610130366004610482565b6001600160a01b031660009081526020819052604090205490565b6100a061035c565b34801561015f57600080fd5b506100b861016e366004610482565b60006020819052908152604090205481565b600081116101d55760405162461bcd60e51b815260206004820152601760248201527f4d75737420776974686472617720736f6d657468696e6700000000000000000060448201526064015b60405180910390fd5b3360009081526020819052604090205481111561022a5760405162461bcd60e51b8152602060048201526013602482015272496e73756666696369656e742073686172657360681b60448201526064016101cc565b60006001546002548361023d91906104c8565b61024791906104df565b3360009081526020819052604081208054929350849290919061026b908490610501565b9250508190555081600160008282546102849190610501565b92505081905550806002600082825461029d9190610501565b9091555050604051339082156108fc029083906000818181858888f193505050501580156102cf573d6000803e3d6000fd5b50604080518381526020810183905233917ff279e6a1f5e320cca91135676d9cb6e44ca8a08c0b88342bcdb1144f6511b568910160405180910390a25050565b600060015460000361032357506000919050565b6001546002546001600160a01b03841660009081526020819052604090205461034c91906104c8565b61035691906104df565b92915050565b600034116103a55760405162461bcd60e51b81526020600482015260166024820152754d757374206465706f73697420736f6d657468696e6760501b60448201526064016101cc565b60006001546000036103b85750346103d5565b6002546001546103c890346104c8565b6103d291906104df565b90505b33600090815260208190526040812080548392906103f4908490610514565b92505081905550806001600082825461040d9190610514565b9250508190555034600260008282546104269190610514565b9091555050604080513481526020810183905233917f90890809c654f11d6e72a28fa60149770a0d11ec6c92319d6ceb2bb0a4ea1a15910160405180910390a250565b60006020828403121561047b57600080fd5b5035919050565b60006020828403121561049457600080fd5b81356001600160a01b03811681146104ab57600080fd5b9392505050565b634e487b7160e01b600052601160045260246000fd5b8082028115828204841417610356576103566104b2565b6000826104fc57634e487b7160e01b600052601260045260246000fd5b500490565b81810381811115610356576103566104b2565b80820180821115610356576103566104b256fea26469706673582212201c21cae3867d60a1dc6d3dd629f7282de84ba49b16dc390d2c50c3090e57763e64736f6c63430008140033",
  "linkReferences": {},
  "deployedLinkReferences": {}
}