{
  "_format": "hh-sol-artifact-1",
  "contractName": "PraesidiumInsuranceV2",
  "sourceName": "contracts/PraesidiumInsuranceV2.sol",
  "abi": [
    {
      "inputs": [],
      "stateMutability": "nonpayable",
      "type": "constructor"
    },
    {
      "inputs": [
        {
          "internalType": "address",
          "name": "owner",
          "type": "address"
        }
      ],
      "name": "OwnableInvalidOwner",
      "type": "error"
    },
    {
      "inputs": [
        {
          "internalType": "address",
          "name": "account",
          "type": "address"
        }
      ],
      "name": "OwnableUnauthorizedAccount",
      "type": "error"
    },
    {
      "inputs": [],
      "name": "ReentrancyGuardReentrantCall",
      "type": "error"
    },
    {
      "anonymous": false,
      "inputs": [
        {
          "indexed": true,
          "internalType": "uint256",
          "name": "claimId",
          "type": "uint256"
        },
        {
          "indexed": false,
          "internalType": "uint256",
          "name": "amount",
          "type": "uint256"
        }
      ],
      "name": "ClaimApproved",
      "type": "event"
    },
    {
      "anonymous": false,
      "inputs": [
        {
          "indexed": true,
          "internalType": "uint256",
          "name": "claimId",
          "type": "uint256"
        },
        {
          "indexed": true,
          "internalType": "address",
          "name": "recipient",
          "type": "address"
        },
        {
          "indexed": false,
          "internalType": "uint256",
          "name": "amount",
          "type": "uint256"
        }
      ],
      "name": "ClaimPaid",
      "type": "event"
    },
    {
      "anonymous": false,
      "inputs": [
        {
          "indexed": true,
          "internalType": "uint256",
          "name": "claimId",
          "type": "uint256"
        },
        {
          "indexed": false,
          "internalType": "string",
          "name": "reason",
          "type": "string"
        }
      ],
      "name": "ClaimRejected",
      "type": "event"
    },
    {
      "anonymous": false,
      "inputs": [
        {
          "indexed": true,
          "internalType": "uint256",
          "name": "claimId",
          "type": "uint256"
        },
        {
          "indexed": true,
          "internalType": "uint256",
          "name": "policyId",
          "type": "uint256"
        },
        {
          "indexed": true,
          "internalType": "address",
          "name": "claimant",
          "type": "address"
        },
        {
          "indexed": false,
          "internalType": "uint256",
          "name": "amount",
          "type": "uint256"
        },
        {
          "indexed": false,
          "internalType": "enum PraesidiumInsuranceV2.TriggerType",
          "name": "triggerType",
          "type": "uint8"
        }
      ],
      "name": "ClaimSubmitted",
      "type": "event"
    },
    {
      "anonymous": false,
      "inputs": [
        {
          "indexed": true,
          "internalType": "address",
          "name": "previousOwner",
          "type": "address"
        },
        {
          "indexed": true,
          "internalType": "address",
          "name": "newOwner",
          "type": "address"
        }
      ],
      "name": "OwnershipTransferred",
      "type": "event"
    },
    {
      "anonymous": false,
      "inputs": [
        {
          "indexed": true,
          "internalType": "uint256",
          "name": "policyId",
          "type": "uint256"
        },
        {
          "indexed": true,
          "internalType": "address",
          "name": "holder",
          "type": "address"
        },
        {
          "indexed": false,
          "internalType": "uint256",
          "name": "premium",
          "type": "uint256"
        },
        {
          "indexed": false,
          "internalType": "uint256",
          "name": "coverage",
          "type": "uint256"
        },
        {
          "indexed": false,
          "internalType": "string",
          "name": "protocol",
          "type": "string"
        }
      ],
      "name": "PolicyCreated",
      "type": "event"
    },
    {
      "anonymous": false,
      "inputs": [
        {
          "indexed": false,
          "internalType": "string",
          "name": "protocol",
          "type": "string"
        },
        {
          "indexed": false,
          "internalType": "enum PraesidiumInsuranceV2.TriggerType",
          "name": "triggerType",
          "type": "uint8"
        },
        {
          "indexed": false,
          "internalType": "uint256",
          "name": "severity",
          "type": "uint256"
        }
      ],
      "name": "TriggerActivated",
      "type": "event"
    },
    {
      "anonymous": false,
      "inputs": [
        {
          "indexed": false,
          "internalType": "string",
          "name": "protocol",
          "type": "string"
        }
      ],
      "name": "TriggerDeactivated",
      "type": "event"
    },
    {
      "inputs": [
        {
          "internalType": "string",
          "name": "protocol",
          "type": "string"
        },
        {
          "internalType": "enum PraesidiumInsuranceV2.TriggerType",
          "name": "triggerType",
          "type": "uint8"
        },
        {
          "internalType": "uint256",
          "name": "severity",
          "type": "uint256"
        }
      ],
      "name": "activateTrigger",
      "outputs": [],
      "stateMutability": "nonpayable",
      "type": "function"
    },
    {
      "inputs": [
        {
          "internalType": "string",
          "name": "",
          "type": "string"
        }
      ],
      "name": "activeTriggers",
      "outputs": [
        {
          "internalType": "bool",
          "name": "isActive",
          "type": "bool"
        },
        {
          "internalType": "enum PraesidiumInsuranceV2.TriggerType",
          "name": "triggerType",
          "type": "uint8"
        },
        {
          "internalType": "string",
          "name": "protocol",
          "type": "string"
        },
        {
          "internalType": "uint256",
          "name": "timestamp",
          "type": "uint256"
        },
        {
          "internalType": "uint256",
          "name": "severity",
          "type": "uint256"
        }
      ],
      "stateMutability": "view",
      "type": "function"
    },
    {
      "inputs": [
        {
          "internalType": "uint256",
          "name": "claimId",
          "type": "uint256"
        }
      ],
      "name": "approveClaim",
      "outputs": [],
      "stateMutability": "nonpayable",
      "type": "function"
    },
    {
      "inputs": [],
      "name": "claimProcessingTime",
      "outputs": [
        {
          "internalType": "uint256",
          "name": "",
          "type": "uint256"
        }
      ],
      "stateMutability": "view",
      "type": "function"
    },
    {
      "inputs": [
        {
          "internalType": "uint256",
          "name": "",
          "type": "uint256"
        }
      ],
      "name": "claims",
      "outputs": [
        {
          "internalType": "uint256",
          "name": "id",
          "type": "uint256"
        },
        {
          "internalType": "uint256",
          "name": "policyId",
          "type": "uint256"
        },
        {
          "internalType": "address",
          "name": "claimant",
          "type": "address"
        },
        {
          "internalType": "uint256",
          "name": "amount",
          "type": "uint256"
        },
        {
          "internalType": "enum PraesidiumInsuranceV2.TriggerType",
          "name": "triggerType",
          "type": "uint8"
        },
        {
          "internalType": "uint256",
          "name": "timestamp",
          "type": "uint256"
        },
        {
          "internalType": "enum PraesidiumInsuranceV2.ClaimStatus",
          "name": "status",
          "type": "uint8"
        },
        {
          "internalType": "string",
          "name": "evidence",
          "type": "string"
        }
      ],
      "stateMutability": "view",
      "type": "function"
    },
    {
      "inputs": [
        {
          "internalType": "address",
          "name": "holder",
          "type": "address"
        },
        {
          "internalType": "uint256",
          "name": "premium",
          "type": "uint256"
        },
        {
          "internalType": "uint256",
          "name": "coverage",
          "type": "uint256"
        },
        {
          "internalType": "uint256",
          "name": "duration",
          "type": "uint256"
        },
        {
          "internalType": "string",
          "name": "protocol",
          "type": "string"
        }
      ],
      "name": "createPolicy",
      "outputs": [
        {
          "internalType": "uint256",
          "name": "",
          "type": "uint256"
        }
      ],
      "stateMutability": "payable",
      "type": "function"
    },
    {
      "inputs": [
        {
          "internalType": "string",
          "name": "protocol",
          "type": "string"
        }
      ],
      "name": "deactivateTrigger",
      "outputs": [],
      "stateMutability": "nonpayable",
      "type": "function"
    },
    {
      "inputs": [
        {
          "internalType": "uint256",
          "name": "claimId",
          "type": "uint256"
        }
      ],
      "name": "getClaim",
      "outputs": [
        {
          "internalType": "uint256",
          "name": "id",
          "type": "uint256"
        },
        {
          "internalType": "uint256",
          "name": "policyId",
          "type": "uint256"
        },
        {
          "internalType": "address",
          "name": "claimant",
          "type": "address"
        },
        {
          "internalType": "uint256",
          "name": "amount",
          "type": "uint256"
        },
        {
          "internalType": "enum PraesidiumInsuranceV2.TriggerType",
          "name": "triggerType",
          "type": "uint8"
        },
        {
          "internalType": "uint256",
          "name": "timestamp",
          "type": "uint256"
        },
        {
          "internalType": "enum PraesidiumInsuranceV2.ClaimStatus",
          "name": "status",
          "type": "uint8"
        }
      ],
      "stateMutability": "view",
      "type": "function"
    },
    {
      "inputs": [],
      "name": "getClaimCount",
      "outputs": [
        {
          "internalType": "uint256",
          "name": "",
          "type": "uint256"
        }
      ],
      "stateMutability": "view",
      "type": "function"
    },
    {
      "inputs": [],
      "name": "getContractBalance",
      "outputs": [
        {
          "internalType": "uint256",
          "name": "",
          "type": "uint256"
        }
      ],
      "stateMutability": "view",
      "type": "function"
    },
    {
      "inputs": [
        {
          "internalType": "address",
          "name": "holder",
          "type": "address"
        }
      ],
      "name": "getHolderClaims",
      "outputs": [
        {
          "internalType": "uint256[]",
          "name": "",
          "type": "uint256[]"
        }
      ],
      "stateMutability": "view",
      "type": "function"
    },
    {
      "inputs": [
        {
          "internalType": "address",
          "name": "holder",
          "type": "address"
        }
      ],
      "name": "getHolderPolicies",
      "outputs": [
        {
          "internalType": "uint256[]",
          "name": "",
          "type": "uint256[]"
        }
      ],
      "stateMutability": "view",
      "type": "function"
    },
    {
      "inputs": [
        {
          "internalType": "uint256",
          "name": "policyId",
          "type": "uint256"
        }
      ],
      "name": "getPolicy",
      "outputs": [
        {
          "internalType": "uint256",
          "name": "id",
          "type": "uint256"
        },
        {
          "internalType": "address",
          "name": "holder",
          "type": "address"
        },
        {
          "internalType": "uint256",
          "name": "premium",
          "type": "uint256"
        },
        {
          "internalType": "uint256",
          "name": "coverage",
          "type": "uint256"
        },
        {
          "internalType": "uint256",
          "name": "expiry",
          "type": "uint256"
        },
        {
          "internalType": "bool",
          "name": "active",
          "type": "bool"
        },
        {
          "internalType": "string",
          "name": "protocol",
          "type": "string"
        },
        {
          "internalType": "bool",
          "name": "claimed",
          "type": "bool"
        }
      ],
      "stateMutability": "view",
      "type": "function"
    },
    {
      "inputs": [],
      "name": "getPolicyCount",
      "outputs": [
        {
          "internalType": "uint256",
          "name": "",
          "type": "uint256"
        }
      ],
      "stateMutability": "view",
      "type": "function"
    },
    {
      "inputs": [
        {
          "internalType": "address",
          "name": "",
          "type": "address"
        },
        {
          "internalType": "uint256",
          "name": "",
          "type": "uint256"
        }
      ],
      "name": "holderClaims",
      "outputs": [
        {
          "internalType": "uint256",
          "name": "",
          "type": "uint256"
        }
      ],
      "stateMutability": "view",
      "type": "function"
    },
    {
      "inputs": [
        {
          "internalType": "address",
          "name": "",
          "type": "address"
        },
        {
          "internalType": "uint256",
          "name": "",
          "type": "uint256"
        }
      ],
      "name": "holderPolicies",
      "outputs": [
        {
          "internalType": "uint256",
          "name": "",
          "type": "uint256"
        }
      ],
      "stateMutability": "view",
      "type": "function"
    },
    {
      "inputs": [
        {
          "internalType": "string",
          "name": "protocol",
          "type": "string"
        }
      ],
      "name": "isTriggerActive",
      "outputs": [
        {
          "internalType": "bool",
          "name": "",
          "type": "bool"
        },
        {
          "internalType": "enum PraesidiumInsuranceV2.TriggerType",
          "name": "",
          "type": "uint8"
        },
        {
          "internalType": "uint256",
          "name": "",
          "type": "uint256"
        }
      ],
      "stateMutability": "view",
      "type": "function"
    },
    {
      "inputs": [],
      "name": "owner",
      "outputs": [
        {
          "internalType": "address",
          "name": "",
          "type": "address"
        }
      ],
      "stateMutability": "view",
      "type": "function"
    },
    {
      "inputs": [
        {
          "internalType": "uint256",
          "name": "",
          "type": "uint256"
        }
      ],
      "name": "policies",
      "outputs": [
        {
          "internalType": "uint256",
          "name": "id",
          "type": "uint256"
        },
        {
          "internalType": "address",
          "name": "holder",
          "type": "address"
        },
        {
          "internalType": "uint256",
          "name": "premium",
          "type": "uint256"
        },
        {
          "internalType": "uint256",
          "name": "coverage",
          "type": "uint256"
        },
        {
          "internalType": "uint256",
          "name": "expiry",
          "type": "uint256"
        },
        {
          "internalType": "bool",
          "name": "active",
          "type": "bool"
        },
        {
          "internalType": "string",
          "name": "protocol",
          "type": "string"
        },
        {
          "internalType": "bool",
          "name": "claimed",
          "type": "bool"
        }
      ],
      "stateMutability": "view",
      "type": "function"
    },
    {
      "inputs": [
        {
          "internalType": "uint256",
          "name": "claimId",
          "type": "uint256"
        }
      ],
      "name": "processClaimAutomatically",
      "outputs": [],
      "stateMutability": "nonpayable",
      "type": "function"
    },
    {
      "inputs": [
        {
          "internalType": "uint256",
          "name": "claimId",
          "type": "uint256"
        },
        {
          "internalType": "string",
          "name": "reason",
          "type": "string"
        }
      ],
      "name": "rejectClaim",
      "outputs": [],
      "stateMutability": "nonpayable",
      "type": "function"
    },
    {
      "inputs": [],
      "name": "renounceOwnership",
      "outputs": [],
      "stateMutability": "nonpayable",
      "type": "function"
    },
    {
      "inputs": [
        {
          "internalType": "uint256",
          "name": "newTime",
          "type": "uint256"
        }
      ],
      "name": "setClaimProcessingTime",
      "outputs": [],
      "stateMutability": "nonpayable",
      "type": "function"
    },
    {
      "inputs": [
        {
          "internalType": "uint256",
          "name": "policyId",
          "type": "uint256"
        },
        {
          "internalType": "enum PraesidiumInsuranceV2.TriggerType",
          "name": "triggerType",
          "type": "uint8"
        },
        {
          "internalType": "string",
          "name": "evidence",
          "type": "string"
        }
      ],
      "name": "submitClaim",
      "outputs": [
        {
          "internalType": "uint256",
          "name": "",
          "type": "uint256"
        }
      ],
      "stateMutability": "nonpayable",
      "type": "function"
    },
    {
      "inputs": [],
      "name": "totalClaimsPaid",
      "outputs": [
        {
          "internalType": "uint256",
          "name": "",
          "type": "uint256"
        }
      ],
      "stateMutability": "view",
      "type": "function"
    },
    {
      "inputs": [],
      "name": "totalCoverage",
      "outputs": [
        {
          "internalType": "uint256",
          "name": "",
          "type": "uint256"
        }
      ],
      "stateMutability": "view",
      "type": "function"
    },
    {
      "inputs": [],
      "name": "totalPremiums",
      "outputs": [
        {
          "internalType": "uint256",
          "name": "",
          "type": "uint256"
        }
      ],
      "stateMutability": "view",
      "type": "function"
    },
    {
      "inputs": [
        {
          "internalType": "address",
          "name": "newOwner",
          "type": "address"
        }
      ],
      "name": "transferOwnership",
      "outputs": [],
      "stateMutability": "nonpayable",
      "type": "function"
    },
    {
      "inputs": [
        {
          "internalType": "uint256",
          "name": "amount",
          "type": "uint256"
        }
      ],
      "name": "withdraw",
      "outputs": [],
      "stateMutability": "nonpayable",
      "type": "function"
    },
    {
      "stateMutability": "payable",
      "type": "receive"
    }
  ],
  "bytecode": "0x6080604052610e10600c5534801561001657600080fd5b50338061003d57604051631e4fbdf760e01b81526000600482015260240160405180910390fd5b61004681610050565b50600180556100a0565b600080546001600160a01b038381166001600160a01b0319831681178455604051919092169283917f8be0079c531659141344cd1fd0a4f28419497f9722a3daafe3b4186f6b6457e09190a35050565b6122f8806100af6000396000f3fe6080604052600436106101c55760003560e01c8063715018a6116100f7578063ba4611d911610095578063d3e8948311610064578063d3e8948314610572578063d51942e214610592578063e59771d2146105a8578063f2fde38b146105bd57600080fd5b8063ba4611d914610507578063bebe395e1461051c578063c6c5eb6f1461053c578063d2e366541461055c57600080fd5b8063857d0fda116100d1578063857d0fda1461046b5780638da5cb5b1461048b57806395a4dfd2146104b3578063a888c2cd146104d357600080fd5b8063715018a61461042357806372b4c63414610438578063798218ef1461045857600080fd5b806346e30135116101645780635f0ba74d1161013e5780635f0ba74d1461039c57806362461363146103cd5780636532ccf5146103fa5780636f9fb98a1461041057600080fd5b806346e30135146102e95780635aef2447146103095780635bda15841461038657600080fd5b80632b07fce3116101a05780632b07fce3146102465780632e1a7d4d1461027a5780633577a5ad1461029a57806340a732da146102ba57600080fd5b8062965308146101d15780630f70bdc6146101f357806314e3afac1461021357600080fd5b366101cc57005b600080fd5b3480156101dd57600080fd5b506101f16101ec366004611b95565b6105dd565b005b3480156101ff57600080fd5b506101f161020e366004611be6565b610668565b34801561021f57600080fd5b5061023361022e366004611c54565b6107d5565b6040519081526020015b60405180910390f35b34801561025257600080fd5b50610266610261366004611c7e565b610806565b60405161023d989796959493929190611ce7565b34801561028657600080fd5b506101f1610295366004611c7e565b610910565b3480156102a657600080fd5b506101f16102b5366004611d41565b61099c565b3480156102c657600080fd5b506102da6102d5366004611b95565b610a5a565b60405161023d93929190611db2565b3480156102f557600080fd5b506101f1610304366004611c7e565b610a9e565b34801561031557600080fd5b50610373610324366004611c7e565b60009081526005602081905260409091208054600182015460028301546003840154600485015495850154600690950154939692956001600160a01b0390921694909360ff9283169391921690565b60405161023d9796959493929190611de6565b34801561039257600080fd5b5061023360095481565b3480156103a857600080fd5b506103bc6103b7366004611b95565b610b52565b60405161023d959493929190611e36565b3480156103d957600080fd5b506103ed6103e8366004611e72565b610c1b565b60405161023d9190611e8d565b34801561040657600080fd5b50610233600b5481565b34801561041c57600080fd5b5047610233565b34801561042f57600080fd5b506101f1610c87565b34801561044457600080fd5b506101f1610453366004611c7e565b610c9b565b610233610466366004611ed1565b610ca8565b34801561047757600080fd5b506103ed610486366004611e72565b610f57565b34801561049757600080fd5b506000546040516001600160a01b03909116815260200161023d565b3480156104bf57600080fd5b506102336104ce366004611c54565b610fc1565b3480156104df57600080fd5b506104f36104ee366004611c7e565b610fdd565b60405161023d989796959493929190611f3c565b34801561051357600080fd5b50600354610233565b34801561052857600080fd5b506101f1610537366004611c7e565b6110bd565b34801561054857600080fd5b50610233610557366004611fa2565b6112cf565b34801561056857600080fd5b50610233600c5481565b34801561057e57600080fd5b5061026661058d366004611c7e565b6116c8565b34801561059e57600080fd5b50610233600a5481565b3480156105b457600080fd5b50600254610233565b3480156105c957600080fd5b506101f16105d8366004611e72565b6117a6565b6105e56117e1565b6008816040516105f59190611ff9565b908152604051908190036020019020805461ffff19168155600061061c6001830182611aa4565b6002820160009055600382016000905550507f3c6bcbc391cf4a6c67608ef561c4a911560c57e504bc88f2df7a0c6f4a4003c48160405161065d9190612015565b60405180910390a150565b6106706117e1565b60018110158015610682575060648111155b6106cc5760405162461bcd60e51b815260206004820152601660248201527505365766572697479206d75737420626520312d3130360541b60448201526064015b60405180910390fd5b6040518060a001604052806001151581526020018360048111156106f2576106f2611d88565b8152602001848152602001428152602001828152506008846040516107179190611ff9565b908152604051602091819003820190208251815460ff1981169115159182178355928401519192839161ffff1990911661ff00199091161761010083600481111561076457610764611d88565b02179055506040820151600182019061077d90826120b1565b5060608201518160020155608082015181600301559050507fd2316def492f0bb143bc67d6544f24358b84da0f9f0e0f37b412448356e2a1c78383836040516107c893929190612171565b60405180910390a1505050565b600760205281600052604060002081815481106107f157600080fd5b90600052602060002001600091509150505481565b60008181526004602081905260408220805460018201546002830154600384015494840154600585015460078601546006870180548a998a998a998a998a996060998b99949893976001600160a01b0390931696919594909360ff9182169392911690829061087490612028565b80601f01602080910402602001604051908101604052809291908181526020018280546108a090612028565b80156108ed5780601f106108c2576101008083540402835291602001916108ed565b820191906000526020600020905b8154815290600101906020018083116108d057829003601f168201915b505050505091509850985098509850985098509850985050919395975091939597565b6109186117e1565b4781111561095f5760405162461bcd60e51b8152602060048201526014602482015273496e73756666696369656e742062616c616e636560601b60448201526064016106c3565b600080546040516001600160a01b039091169183156108fc02918491818181858888f19350505050158015610998573d6000803e3d6000fd5b5050565b6109a46117e1565b600082815260056020526040812090600682015460ff1660038111156109cc576109cc611d88565b146109e95760405162461bcd60e51b81526004016106c390612193565b60068101805460ff199081166002179091556001820154600090815260046020526040908190206007810180549093169092555184907f43cc3d080e025c67c26d62b18bd442511dc9c76c8aa3f48cc0e8f456173e61f190610a4c908690612015565b60405180910390a250505050565b600080600080600885604051610a709190611ff9565b908152604051908190036020019020805460039091015460ff80831698610100909304169650945092505050565b610aa66117e1565b610aae61180e565b600081815260056020526040812090600682015460ff166003811115610ad657610ad6611d88565b14610af35760405162461bcd60e51b81526004016106c390612193565b60068101805460ff19166001179055600381015460405190815282907f638d892b8630b775fea5d7a52b209e8bfa1d90c32b57cd37208ac84d4bcd6dcb9060200160405180910390a2610b4582611838565b50610b4f60018055565b50565b80516020818301810180516008825292820191909301209152805460018201805460ff8084169461010090940416929190610b8c90612028565b80601f0160208091040260200160405190810160405280929190818152602001828054610bb890612028565b8015610c055780601f10610bda57610100808354040283529160200191610c05565b820191906000526020600020905b815481529060010190602001808311610be857829003601f168201915b5050505050908060020154908060030154905085565b6001600160a01b038116600090815260076020908152604091829020805483518184028101840190945280845260609392830182828015610c7b57602002820191906000526020600020905b815481526020019060010190808311610c67575b50505050509050919050565b610c8f6117e1565b610c996000611a54565b565b610ca36117e1565b600c55565b6000610cb261180e565b84341015610d025760405162461bcd60e51b815260206004820152601c60248201527f496e73756666696369656e74207072656d69756d207061796d656e740000000060448201526064016106c3565b62015180831015610d4a5760405162461bcd60e51b8152602060048201526012602482015271111d5c985d1a5bdb881d1bdbc81cda1bdc9d60721b60448201526064016106c3565b60008411610d9a5760405162461bcd60e51b815260206004820152601960248201527f436f766572616765206d75737420626520706f7369746976650000000000000060448201526064016106c3565b60028054906000610daa836121d4565b909155505060025460408051610100810182528281526001600160a01b03891660208201529081018790526060810186905260808101610dea86426121ed565b815260016020808301829052604080840188905260006060948501819052868152600480845290829020865181559286015193830180546001600160a01b0319166001600160a01b0390951694909417909355840151600282015591830151600383015560808301519082015560a082015160058201805460ff191691151591909117905560c08201516006820190610e8390826120b1565b5060e091909101516007909101805460ff19169115159190911790556001600160a01b0387166000908152600660209081526040822080546001810182559083529082200182905560098054889290610edd9084906121ed565b9250508190555084600a6000828254610ef691906121ed565b92505081905550866001600160a01b0316817fb125fde4284254e7f0e5b0b580e3d0b4edeb74741bbc94196386f1a56d9c9ca4888887604051610f3b93929190612206565b60405180910390a39050610f4e60018055565b95945050505050565b6001600160a01b038116600090815260066020908152604091829020805483518184028101840190945280845260609392830182828015610c7b5760200282019190600052602060002090815481526020019060010190808311610c675750505050509050919050565b600660205281600052604060002081815481106107f157600080fd5b600560208190526000918252604090912080546001820154600283015460038401546004850154958501546006860154600787018054969895976001600160a01b0390951696939560ff9081169593949216929161103a90612028565b80601f016020809104026020016040519081016040528092919081815260200182805461106690612028565b80156110b35780601f10611088576101008083540402835291602001916110b3565b820191906000526020600020905b81548152906001019060200180831161109657829003601f168201915b5050505050905088565b6110c561180e565b600081815260056020526040812090600682015460ff1660038111156110ed576110ed611d88565b1461110a5760405162461bcd60e51b81526004016106c390612193565b60018101546000908152600460205260408082209051909190600890611134906006850190612225565b908152604051908190036020019020805490915060ff166111975760405162461bcd60e51b815260206004820152601860248201527f54726967676572206e6f206c6f6e67657220616374697665000000000000000060448201526064016106c3565b60048084015460ff16908111156111b0576111b0611d88565b8154610100900460ff1660048111156111cb576111cb611d88565b146112105760405162461bcd60e51b81526020600482015260156024820152740a8e4d2cececae440e8f2e0ca40dad2e6dac2e8c6d605b1b60448201526064016106c3565b600c54836005015461122291906121ed565b4210156112715760405162461bcd60e51b815260206004820152601b60248201527f50726f63657373696e672074696d65206e6f7420656c6170736564000000000060448201526064016106c3565b60068301805460ff19166001179055600383015460405190815284907f638d892b8630b775fea5d7a52b209e8bfa1d90c32b57cd37208ac84d4bcd6dcb9060200160405180910390a26112c384611838565b505050610b4f60018055565b60006112d961180e565b600084815260046020526040902060018101546001600160a01b031633146113375760405162461bcd60e51b81526020600482015260116024820152702737ba103837b634b1bc903437b63232b960791b60448201526064016106c3565b600581015460ff1661137f5760405162461bcd60e51b8152602060048201526011602482015270506f6c696379206e6f742061637469766560781b60448201526064016106c3565b600781015460ff16156113c65760405162461bcd60e51b815260206004820152600f60248201526e105b1c9958591e4818db185a5b5959608a1b60448201526064016106c3565b806004015442111561140b5760405162461bcd60e51b815260206004820152600e60248201526d141bdb1a58de48195e1c1a5c995960921b60448201526064016106c3565b60006008826006016040516114209190612225565b908152604051908190036020019020805490915060ff1661148f5760405162461bcd60e51b815260206004820152602360248201527f4e6f20616374697665207472696767657220666f7220746869732070726f746f60448201526218dbdb60ea1b60648201526084016106c3565b8460048111156114a1576114a1611d88565b8154610100900460ff1660048111156114bc576114bc611d88565b146115015760405162461bcd60e51b81526020600482015260156024820152740a8e4d2cececae440e8f2e0ca40dad2e6dac2e8c6d605b1b60448201526064016106c3565b60038054906000611511836121d4565b919050555060006003549050604051806101000160405280828152602001888152602001336001600160a01b031681526020018460030154815260200187600481111561156057611560611d88565b81524260208201526040016000815260209081018790526000838152600582526040908190208351815591830151600180840191909155908301516002830180546001600160a01b0319166001600160a01b03909216919091179055606083015160038301556080830151600480840180549293909260ff19169184908111156115ec576115ec611d88565b021790555060a0820151600582015560c082015160068201805460ff1916600183600381111561161e5761161e611d88565b021790555060e0820151600782019061163790826120b1565b505033600081815260076020818152604080842080546001818101835591865292909420909101869055908701805460ff191690921790915560038601549051919250899184917f726cd0adf04db32895848d0286be81e9e529127524ce7950d34c4e3eb343b5d2916116ac91908c9061229b565b60405180910390a4925050506116c160018055565b9392505050565b6004602081905260009182526040909120805460018201546002830154600384015494840154600585015460068601805495976001600160a01b03909516969395929360ff9092169261171a90612028565b80601f016020809104026020016040519081016040528092919081815260200182805461174690612028565b80156117935780601f1061176857610100808354040283529160200191611793565b820191906000526020600020905b81548152906001019060200180831161177657829003601f168201915b5050506007909301549192505060ff1688565b6117ae6117e1565b6001600160a01b0381166117d857604051631e4fbdf760e01b8152600060048201526024016106c3565b610b4f81611a54565b6000546001600160a01b03163314610c995760405163118cdaa760e01b81523360048201526024016106c3565b60026001540361183157604051633ee5aeb560e01b815260040160405180910390fd5b6002600155565b60008181526005602052604090206001600682015460ff16600381111561186157611861611d88565b146118a35760405162461bcd60e51b815260206004820152601260248201527110db185a5b481b9bdd08185c1c1c9bdd995960721b60448201526064016106c3565b80600301544710156118f75760405162461bcd60e51b815260206004820152601d60248201527f496e73756666696369656e7420636f6e74726163742062616c616e636500000060448201526064016106c3565b6006810180546003919060ff191660018302179055506001810154600090815260046020526040812060058101805460ff191690556003810154600a8054929391929091906119479084906122af565b90915550506003820154600b80546000906119639084906121ed565b9091555050600282015460038301546040516000926001600160a01b031691908381818185875af1925050503d80600081146119bb576040519150601f19603f3d011682016040523d82523d6000602084013e6119c0565b606091505b5050905080611a035760405162461bcd60e51b815260206004820152600f60248201526e151c985b9cd9995c8819985a5b1959608a1b60448201526064016106c3565b600283015460038401546040519081526001600160a01b039091169085907faf3c8fdd75d667f71d36d7840b8ef9086c516c9b047ad6a83a5a66151342123a9060200160405180910390a350505050565b600080546001600160a01b038381166001600160a01b0319831681178455604051919092169283917f8be0079c531659141344cd1fd0a4f28419497f9722a3daafe3b4186f6b6457e09190a35050565b508054611ab090612028565b6000825580601f10611ac0575050565b601f016020900490600052602060002090810190610b4f91905b80821115611aee5760008155600101611ada565b5090565b634e487b7160e01b600052604160045260246000fd5b600082601f830112611b1957600080fd5b813567ffffffffffffffff80821115611b3457611b34611af2565b604051601f8301601f19908116603f01168101908282118183101715611b5c57611b5c611af2565b81604052838152866020858801011115611b7557600080fd5b836020870160208301376000602085830101528094505050505092915050565b600060208284031215611ba757600080fd5b813567ffffffffffffffff811115611bbe57600080fd5b611bca84828501611b08565b949350505050565b803560058110611be157600080fd5b919050565b600080600060608486031215611bfb57600080fd5b833567ffffffffffffffff811115611c1257600080fd5b611c1e86828701611b08565b935050611c2d60208501611bd2565b9150604084013590509250925092565b80356001600160a01b0381168114611be157600080fd5b60008060408385031215611c6757600080fd5b611c7083611c3d565b946020939093013593505050565b600060208284031215611c9057600080fd5b5035919050565b60005b83811015611cb2578181015183820152602001611c9a565b50506000910152565b60008151808452611cd3816020860160208601611c97565b601f01601f19169290920160200192915050565b60006101008a835260018060a01b038a16602084015288604084015287606084015286608084015285151560a08401528060c0840152611d2981840186611cbb565b91505082151560e08301529998505050505050505050565b60008060408385031215611d5457600080fd5b82359150602083013567ffffffffffffffff811115611d7257600080fd5b611d7e85828601611b08565b9150509250929050565b634e487b7160e01b600052602160045260246000fd5b60058110611dae57611dae611d88565b9052565b831515815260608101611dc86020830185611d9e565b826040830152949350505050565b60048110611dae57611dae611d88565b878152602081018790526001600160a01b03861660408201526060810185905260e08101611e176080830186611d9e565b8360a0830152611e2a60c0830184611dd6565b98975050505050505050565b8515158152611e486020820186611d9e565b60a060408201526000611e5e60a0830186611cbb565b606083019490945250608001529392505050565b600060208284031215611e8457600080fd5b6116c182611c3d565b6020808252825182820181905260009190848201906040850190845b81811015611ec557835183529284019291840191600101611ea9565b50909695505050505050565b600080600080600060a08688031215611ee957600080fd5b611ef286611c3d565b9450602086013593506040860135925060608601359150608086013567ffffffffffffffff811115611f2357600080fd5b611f2f88828901611b08565b9150509295509295909350565b888152602081018890526001600160a01b0387166040820152606081018690526000610100611f6e6080840188611d9e565b8560a0840152611f8160c0840186611dd6565b8060e0840152611f9381840185611cbb565b9b9a5050505050505050505050565b600080600060608486031215611fb757600080fd5b83359250611fc760208501611bd2565b9150604084013567ffffffffffffffff811115611fe357600080fd5b611fef86828701611b08565b9150509250925092565b6000825161200b818460208701611c97565b9190910192915050565b6020815260006116c16020830184611cbb565b600181811c9082168061203c57607f821691505b60208210810361205c57634e487b7160e01b600052602260045260246000fd5b50919050565b601f8211156120ac57600081815260208120601f850160051c810160208610156120895750805b601f850160051c820191505b818110156120a857828155600101612095565b5050505b505050565b815167ffffffffffffffff8111156120cb576120cb611af2565b6120df816120d98454612028565b84612062565b602080601f83116001811461211457600084156120fc5750858301515b600019600386901b1c1916600185901b1785556120a8565b600085815260208120601f198616915b8281101561214357888601518255948401946001909101908401612124565b50858210156121615787850151600019600388901b60f8161c191681555b5050505050600190811b01905550565b6060815260006121846060830186611cbb565b9050611dc86020830185611d9e565b602080825260119082015270436c61696d206e6f742070656e64696e6760781b604082015260600190565b634e487b7160e01b600052601160045260246000fd5b6000600182016121e6576121e66121be565b5060010190565b80820180821115612200576122006121be565b92915050565b838152826020820152606060408201526000610f4e6060830184611cbb565b600080835461223381612028565b6001828116801561224b57600181146122605761228f565b60ff198416875282151583028701945061228f565b8760005260208060002060005b858110156122865781548a82015290840190820161226d565b50505082870194505b50929695505050505050565b828152604081016116c16020830184611d9e565b81810381811115612200576122006121be56fea264697066735822122091e638ce859eeac58493d046fff3e5e9a753faa3be07ac0758c55acfa86d889b64736f6c63430008140033",
  "linkReferences": {},
  "deployedLinkReferences": {}
}