{
  "_format": "hh-sol-artifact-1",
  "contractName": "LiquidityDeposit",
  "sourceName": "contracts/LiquidityDeposit.sol",
  "abi": [
    {
      "anonymous": false,
      "inputs": [
        {
          "indexed": true,
          "internalType": "address",
          "name": "user",
          "type": "address"
        },
        {
          "indexed": false,
          "internalType": "uint256",
          "name": "amount",
          "type": "uint256"
        }
      ],
      "name": "Deposited",
      "type": "event"
    },
    {
      "inputs": [],
      "name": "deposit",
      "outputs": [],
      "stateMutability": "payable",
      "type": "function"
    },
    {
      "inputs": [
        {
          "internalType": "address",
          "name": "",
          "type": "address"
        }
      ],
      "name": "deposits",
      "outputs": [
        {
          "internalType": "uint256",
          "name": "",
          "type": "uint256"
        }
      ],
      "stateMutability": "view",
      "type": "function"
    },
    {
      "inputs": [
        {
          "internalType": "address",
          "name": "user",
          "type": "address"
        }
      ],
      "name": "getDeposit",
      "outputs": [
        {
          "internalType": "uint256",
          "name": "",
          "type": "uint256"
        }
      ],
      "stateMutability": "view",
      "type": "function"
    },
    {
      "inputs": [],
      "name": "getTotalDeposits",
      "outputs": [
        {
          "internalType": "uint256",
          "name": "",
          "type": "uint256"
        }
      ],
      "stateMutability": "view",
      "type": "function"
    },
    {
      "inputs": [],
      "name": "totalDeposits",
      "outputs": [
        {
          "internalType": "uint256",
          "name": "",
          "type": "uint256"
        }
      ],
      "stateMutability": "view",
      "type": "function"
    }
  ],
  "bytecode": "0x608060405234801561001057600080fd5b50610474806100206000396000f3fe60806040526004361061004a5760003560e01c8063168a48221461004f5780637d8820971461007a578063d0e30db0146100a5578063e1254fba146100af578063fc7e286d146100ec575b600080fd5b34801561005b57600080fd5b50610064610129565b60405161007191906102b3565b60405180910390f35b34801561008657600080fd5b5061008f610133565b60405161009c91906102b3565b60405180910390f35b6100ad610139565b005b3480156100bb57600080fd5b506100d660048036038101906100d19190610331565b61023a565b6040516100e391906102b3565b60405180910390f35b3480156100f857600080fd5b50610113600480360381019061010e9190610331565b610282565b60405161012091906102b3565b60405180910390f35b6000600154905090565b60015481565b6000341161017c576040517f08c379a0000000000000000000000000000000000000000000000000000000008152600401610173906103bb565b60405180910390fd5b346000803373ffffffffffffffffffffffffffffffffffffffff1673ffffffffffffffffffffffffffffffffffffffff16815260200190815260200160002060008282546101ca919061040a565b9250508190555034600160008282546101e3919061040a565b925050819055503373ffffffffffffffffffffffffffffffffffffffff167f2da466a7b24304f47e87fa2e1e5a81b9831ce54fec19055ce277ca2f39ba42c43460405161023091906102b3565b60405180910390a2565b60008060008373ffffffffffffffffffffffffffffffffffffffff1673ffffffffffffffffffffffffffffffffffffffff168152602001908152602001600020549050919050565b60006020528060005260406000206000915090505481565b6000819050919050565b6102ad8161029a565b82525050565b60006020820190506102c860008301846102a4565b92915050565b600080fd5b600073ffffffffffffffffffffffffffffffffffffffff82169050919050565b60006102fe826102d3565b9050919050565b61030e816102f3565b811461031957600080fd5b50565b60008135905061032b81610305565b92915050565b600060208284031215610347576103466102ce565b5b60006103558482850161031c565b91505092915050565b600082825260208201905092915050565b7f4d757374206465706f73697420736f6d657468696e6700000000000000000000600082015250565b60006103a560168361035e565b91506103b08261036f565b602082019050919050565b600060208201905081810360008301526103d481610398565b9050919050565b7f4e487b7100000000000000000000000000000000000000000000000000000000600052601160045260246000fd5b60006104158261029a565b91506104208361029a565b9250828201905080821115610438576104376103db565b5b9291505056fea2646970667358221220ec3436dcf4181034aed1d176456f21521377fcf051fa45761ac714bd21bb4f5e64736f6c63430008140033",
  "linkReferences": {},
  "deployedLinkReferences": {}
}