{
  "_format": "hh-sol-artifact-1",
  "contractName": "LiquidityDeposit",
  "sourceName": "contracts/LiquidityDeposit.sol",
  "abi": [
    {
      "anonymous": false,
      "inputs": [
        {
          "indexed": true,
          "internalType": "address",
          "name": "user",
          "type": "address"
        },
        {
          "indexed": false,
          "internalType": "uint256",
          "name": "amount",
          "type": "uint256"
        }
      ],
      "name": "Deposited",
      "type": "event"
    },
    {
      "inputs": [],
      "name": "deposit",
      "outputs": [],
      "stateMutability": "payable",
      "type": "function"
    },
    {
      "inputs": [
        {
          "internalType": "address",
          "name": "",
          "type": "address"
        }
      ],
      "name": "deposits",
      "outputs": [
        {
          "internalType": "uint256",
          "name": "",
          "type": "uint256"
        }
      ],
      "stateMutability": "view",
      "type": "function"
    },
    {
      "inputs": [
        {
          "internalType": "address",
          "name": "user",
          "type": "address"
        }
      ],
      "name": "getDeposit",
      "outputs": [
        {
          "internalType": "uint256",
          "name": "",
          "type": "uint256"
        }
      ],
      "stateMutability": "view",
      "type": "function"
    },
    {
      "inputs": [],
      "name": "getTotalDeposits",
      "outputs": [
        {
          "internalType": "uint256",
          "name": "",
          "type": "uint256"
        }
      ],
      "stateMutability": "view",
      "type": "function"
    },
    {
      "inputs": [],
      "name": "totalDeposits",
      "outputs": [
        {
          "internalType": "uint256",
          "name": "",
          "type": "uint256"
        }
      ],
      "stateMutability": "view",
      "type": "function"
    }
  ],
  "bytecode": "0x608060405234801561001057600080fd5b50610243806100206000396000f3fe60806040526004361061004a5760003560e01c8063168a48221461004f5780637d88209714610072578063d0e30db014610088578063e1254fba14610092578063fc7e286d146100c8575b600080fd5b34801561005b57600080fd5b506001545b60405190815260200160405180910390f35b34801561007e57600080fd5b5061006060015481565b6100906100f5565b005b34801561009e57600080fd5b506100606100ad3660046101b6565b6001600160a01b031660009081526020819052604090205490565b3480156100d457600080fd5b506100606100e33660046101b6565b60006020819052908152604090205481565b600034116101425760405162461bcd60e51b81526020600482015260166024820152754d757374206465706f73697420736f6d657468696e6760501b604482015260640160405180910390fd5b33600090815260208190526040812080543492906101619084906101e6565b92505081905550346001600082825461017a91906101e6565b909155505060405134815233907f2da466a7b24304f47e87fa2e1e5a81b9831ce54fec19055ce277ca2f39ba42c49060200160405180910390a2565b6000602082840312156101c857600080fd5b81356001600160a01b03811681146101df57600080fd5b9392505050565b8082018082111561020757634e487b7160e01b600052601160045260246000fd5b9291505056fea26469706673582212202f460b5bb688f5d7ce59e440d889782341b70da6412efb262f80a58a560bee6264736f6c63430008140033",
  "linkReferences": {},
  "deployedLinkReferences": {}
}