{
  "_format": "hh-sol-artifact-1",
  "contractName": "RiskOracle",
  "sourceName": "contracts/RiskOracle.sol",
  "abi": [
    {
      "inputs": [],
      "stateMutability": "nonpayable",
      "type": "constructor"
    },
    {
      "anonymous": false,
      "inputs": [
        {
          "indexed": false,
          "internalType": "string",
          "name": "protocol",
          "type": "string"
        },
        {
          "indexed": false,
          "internalType": "uint256",
          "name": "rate",
          "type": "uint256"
        }
      ],
      "name": "PremiumRateUpdated",
      "type": "event"
    },
    {
      "anonymous": false,
      "inputs": [
        {
          "indexed": false,
          "internalType": "string",
          "name": "protocol",
          "type": "string"
        },
        {
          "indexed": false,
          "internalType": "uint256",
          "name": "score",
          "type": "uint256"
        }
      ],
      "name": "RiskScoreUpdated",
      "type": "event"
    },
    {
      "inputs": [
        {
          "internalType": "uint256",
          "name": "coverage",
          "type": "uint256"
        },
        {
          "internalType": "string",
          "name": "protocol",
          "type": "string"
        }
      ],
      "name": "calculatePremium",
      "outputs": [
        {
          "internalType": "uint256",
          "name": "",
          "type": "uint256"
        }
      ],
      "stateMutability": "view",
      "type": "function"
    },
    {
      "inputs": [
        {
          "internalType": "string",
          "name": "protocol",
          "type": "string"
        }
      ],
      "name": "getPremiumRate",
      "outputs": [
        {
          "internalType": "uint256",
          "name": "",
          "type": "uint256"
        }
      ],
      "stateMutability": "view",
      "type": "function"
    },
    {
      "inputs": [
        {
          "internalType": "string",
          "name": "protocol",
          "type": "string"
        }
      ],
      "name": "getRiskScore",
      "outputs": [
        {
          "internalType": "uint256",
          "name": "",
          "type": "uint256"
        }
      ],
      "stateMutability": "view",
      "type": "function"
    },
    {
      "inputs": [],
      "name": "owner",
      "outputs": [
        {
          "internalType": "address",
          "name": "",
          "type": "address"
        }
      ],
      "stateMutability": "view",
      "type": "function"
    },
    {
      "inputs": [
        {
          "internalType": "string",
          "name": "",
          "type": "string"
        }
      ],
      "name": "premiumRates",
      "outputs": [
        {
          "internalType": "uint256",
          "name": "",
          "type": "uint256"
        }
      ],
      "stateMutability": "view",
      "type": "function"
    },
    {
      "inputs": [
        {
          "internalType": "string",
          "name": "",
          "type": "string"
        }
      ],
      "name": "riskScores",
      "outputs": [
        {
          "internalType": "uint256",
          "name": "",
          "type": "uint256"
        }
      ],
      "stateMutability": "view",
      "type": "function"
    },
    {
      "inputs": [
        {
          "internalType": "string",
          "name": "protocol",
          "type": "string"
        },
        {
          "internalType": "uint256",
          "name": "score",
          "type": "uint256"
        }
      ],
      "name": "updateRiskScore",
      "outputs": [],
      "stateMutability": "nonpayable",
      "type": "function"
    }
  ],
  "bytecode": "0x608060405234801561001057600080fd5b50600280546001600160a01b0319163317905560405160589060009061004090634161766560e01b815260040190565b908152604051908190036020018120919091556710dbdb5c1bdd5b9960c21b8152605590600090600801908152604051908190036020018120919091556c43757276652046696e616e636560981b8152604890600090600d0190815260405190819003602001812091909155660556e69737761760cc1b8152605c90600090600701908152604051908190036020018120919091556805375736869537761760bc1b8152604190600090600901908152604051908190036020018120919091556a2130b630b731b2b9102b1960a91b8152604e90600090600b0190815260405190819003602001812091909155634161766560e01b8152607890600190600401908152604051908190036020018120919091556710dbdb5c1bdd5b9960c21b8152609690600190600801908152604051908190036020018120919091556c43757276652046696e616e636560981b815261011890600190600d0190815260405190819003602001812091909155660556e69737761760cc1b8152606e90600190600701908152604051908190036020018120919091556805375736869537761760bc1b815261015e90600190600901908152604051908190036020018120919091556a2130b630b731b2b9102b1960a91b815260dc90600190600b01908152604051908190036020019020556105d68061023b6000396000f3fe608060405234801561001057600080fd5b506004361061007d5760003560e01c806363758a651161005b57806363758a65146100e65780638da5cb5b146100fb578063ad4fe4be14610126578063dc8f53b21461015157600080fd5b80631237e90214610082578063190bd05b146100a85780633872afc8146100d3575b600080fd5b61009561009036600461041d565b610164565b6040519081526020015b60405180910390f35b6100956100b6366004610464565b805160208183018101805160018252928201919093012091525481565b6100956100e1366004610464565b6101aa565b6100f96100f4366004610499565b6101d2565b005b60025461010e906001600160a01b031681565b6040516001600160a01b03909116815260200161009f565b610095610134366004610464565b805160208183018101805160008252928201919093012091525481565b61009561015f366004610464565b610369565b6000806001836040516101779190610502565b908152604051908190036020019020549050612710610196828661051e565b6101a09190610543565b9150505b92915050565b60006001826040516101bc9190610502565b9081526020016040518091039020549050919050565b6002546001600160a01b0316331461021e5760405162461bcd60e51b815260206004820152600a60248201526927b7363c9037bbb732b960b11b60448201526064015b60405180910390fd5b60648111156102665760405162461bcd60e51b8152602060048201526014602482015273053636f7265206d757374206265203c3d203130360641b6044820152606401610215565b806000836040516102779190610502565b908152604051908190036020019020556000605a8210610299575060646102cf565b605082106102a9575060966102cf565b604682106102b9575060fa6102cf565b603c82106102ca575061015e6102cf565b506101f45b806001846040516102e09190610502565b9081526020016040518091039020819055507f68120bdc25f4ac322b4b24587b7ee5a2fc5ef77144816e321ecd4d999de4cdda8383604051610323929190610565565b60405180910390a17f4967f02c854396aee17a1c94b29ae49f1fa429b46a2a102c463cc082bf2bce68838260405161035c929190610565565b60405180910390a1505050565b600080826040516101bc9190610502565b634e487b7160e01b600052604160045260246000fd5b600082601f8301126103a157600080fd5b813567ffffffffffffffff808211156103bc576103bc61037a565b604051601f8301601f19908116603f011681019082821181831017156103e4576103e461037a565b816040528381528660208588010111156103fd57600080fd5b836020870160208301376000602085830101528094505050505092915050565b6000806040838503121561043057600080fd5b82359150602083013567ffffffffffffffff81111561044e57600080fd5b61045a85828601610390565b9150509250929050565b60006020828403121561047657600080fd5b813567ffffffffffffffff81111561048d57600080fd5b6101a084828501610390565b600080604083850312156104ac57600080fd5b823567ffffffffffffffff8111156104c357600080fd5b6104cf85828601610390565b95602094909401359450505050565b60005b838110156104f95781810151838201526020016104e1565b50506000910152565b600082516105148184602087016104de565b9190910192915050565b80820281158282048414176101a457634e487b7160e01b600052601160045260246000fd5b60008261056057634e487b7160e01b600052601260045260246000fd5b500490565b60408152600083518060408401526105848160608501602088016104de565b602083019390935250601f91909101601f19160160600191905056fea26469706673582212204097cde3d0a7cd0076257237faafc5d7e242460ec9e1ff7f9ef483d18127c18b64736f6c63430008140033",
  "linkReferences": {},
  "deployedLinkReferences": {}
}