{
  "_format": "hh-sol-artifact-1",
  "contractName": "RiskOracle",
  "sourceName": "contracts/RiskOracle.sol",
  "abi": [
    {
      "inputs": [],
      "stateMutability": "nonpayable",
      "type": "constructor"
    },
    {
      "anonymous": false,
      "inputs": [
        {
          "indexed": false,
          "internalType": "string",
          "name": "protocol",
          "type": "string"
        },
        {
          "indexed": false,
          "internalType": "uint256",
          "name": "rate",
          "type": "uint256"
        }
      ],
      "name": "PremiumRateUpdated",
      "type": "event"
    },
    {
      "anonymous": false,
      "inputs": [
        {
          "indexed": false,
          "internalType": "string",
          "name": "protocol",
          "type": "string"
        },
        {
          "indexed": false,
          "internalType": "uint256",
          "name": "score",
          "type": "uint256"
        }
      ],
      "name": "RiskScoreUpdated",
      "type": "event"
    },
    {
      "inputs": [
        {
          "internalType": "uint256",
          "name": "coverage",
          "type": "uint256"
        },
        {
          "internalType": "string",
          "name": "protocol",
          "type": "string"
        }
      ],
      "name": "calculatePremium",
      "outputs": [
        {
          "internalType": "uint256",
          "name": "",
          "type": "uint256"
        }
      ],
      "stateMutability": "view",
      "type": "function"
    },
    {
      "inputs": [
        {
          "internalType": "string",
          "name": "protocol",
          "type": "string"
        }
      ],
      "name": "getPremiumRate",
      "outputs": [
        {
          "internalType": "uint256",
          "name": "",
          "type": "uint256"
        }
      ],
      "stateMutability": "view",
      "type": "function"
    },
    {
      "inputs": [
        {
          "internalType": "string",
          "name": "protocol",
          "type": "string"
        }
      ],
      "name": "getRiskScore",
      "outputs": [
        {
          "internalType": "uint256",
          "name": "",
          "type": "uint256"
        }
      ],
      "stateMutability": "view",
      "type": "function"
    },
    {
      "inputs": [],
      "name": "owner",
      "outputs": [
        {
          "internalType": "address",
          "name": "",
          "type": "address"
        }
      ],
      "stateMutability": "view",
      "type": "function"
    },
    {
      "inputs": [
        {
          "internalType": "string",
          "name": "",
          "type": "string"
        }
      ],
      "name": "premiumRates",
      "outputs": [
        {
          "internalType": "uint256",
          "name": "",
          "type": "uint256"
        }
      ],
      "stateMutability": "view",
      "type": "function"
    },
    {
      "inputs": [
        {
          "internalType": "string",
          "name": "",
          "type": "string"
        }
      ],
      "name": "riskScores",
      "outputs": [
        {
          "internalType": "uint256",
          "name": "",
          "type": "uint256"
        }
      ],
      "stateMutability": "view",
      "type": "function"
    },
    {
      "inputs": [
        {
          "internalType": "string",
          "name": "protocol",
          "type": "string"
        },
        {
          "internalType": "uint256",
          "name": "score",
          "type": "uint256"
        }
      ],
      "name": "updateRiskScore",
      "outputs": [],
      "stateMutability": "nonpayable",
      "type": "function"
    }
  ],
  "bytecode": "0x60806040523480156200001157600080fd5b5033600260006101000a81548173ffffffffffffffffffffffffffffffffffffffff021916908373ffffffffffffffffffffffffffffffffffffffff16021790555060586000604051620000659062000266565b908152602001604051809103902081905550605560006040516200008990620002cd565b90815260200160405180910390208190555060486000604051620000ad9062000334565b908152602001604051809103902081905550605c6000604051620000d1906200039b565b90815260200160405180910390208190555060416000604051620000f59062000402565b908152602001604051809103902081905550604e6000604051620001199062000469565b908152602001604051809103902081905550607860016040516200013d9062000266565b908152602001604051809103902081905550609660016040516200016190620002cd565b9081526020016040518091039020819055506101186001604051620001869062000334565b908152602001604051809103902081905550606e6001604051620001aa906200039b565b90815260200160405180910390208190555061015e6001604051620001cf9062000402565b90815260200160405180910390208190555060dc6001604051620001f39062000469565b90815260200160405180910390208190555062000480565b600081905092915050565b7f4161766500000000000000000000000000000000000000000000000000000000600082015250565b60006200024e6004836200020b565b91506200025b8262000216565b600482019050919050565b600062000273826200023f565b9150819050919050565b7f436f6d706f756e64000000000000000000000000000000000000000000000000600082015250565b6000620002b56008836200020b565b9150620002c2826200027d565b600882019050919050565b6000620002da82620002a6565b9150819050919050565b7f43757276652046696e616e636500000000000000000000000000000000000000600082015250565b60006200031c600d836200020b565b91506200032982620002e4565b600d82019050919050565b600062000341826200030d565b9150819050919050565b7f556e697377617000000000000000000000000000000000000000000000000000600082015250565b6000620003836007836200020b565b915062000390826200034b565b600782019050919050565b6000620003a88262000374565b9150819050919050565b7f5375736869537761700000000000000000000000000000000000000000000000600082015250565b6000620003ea6009836200020b565b9150620003f782620003b2565b600982019050919050565b60006200040f82620003db565b9150819050919050565b7f42616c616e636572205632000000000000000000000000000000000000000000600082015250565b600062000451600b836200020b565b91506200045e8262000419565b600b82019050919050565b6000620004768262000442565b9150819050919050565b610a9c80620004906000396000f3fe608060405234801561001057600080fd5b506004361061007d5760003560e01c806363758a651161005b57806363758a65146101125780638da5cb5b1461012e578063ad4fe4be1461014c578063dc8f53b21461017c5761007d565b80631237e90214610082578063190bd05b146100b25780633872afc8146100e2575b600080fd5b61009c60048036038101906100979190610634565b6101ac565b6040516100a9919061069f565b60405180910390f35b6100cc60048036038101906100c791906106ba565b6101f2565b6040516100d9919061069f565b60405180910390f35b6100fc60048036038101906100f791906106ba565b610220565b604051610109919061069f565b60405180910390f35b61012c60048036038101906101279190610703565b610248565b005b610136610429565b60405161014391906107a0565b60405180910390f35b610166600480360381019061016191906106ba565b61044f565b604051610173919061069f565b60405180910390f35b610196600480360381019061019191906106ba565b61047d565b6040516101a3919061069f565b60405180910390f35b6000806001836040516101bf919061082c565b908152602001604051809103902054905061271081856101df9190610872565b6101e991906108e3565b91505092915050565b6001818051602081018201805184825260208301602085012081835280955050505050506000915090505481565b6000600182604051610232919061082c565b9081526020016040518091039020549050919050565b600260009054906101000a900473ffffffffffffffffffffffffffffffffffffffff1673ffffffffffffffffffffffffffffffffffffffff163373ffffffffffffffffffffffffffffffffffffffff16146102d8576040517f08c379a00000000000000000000000000000000000000000000000000000000081526004016102cf90610971565b60405180910390fd5b606481111561031c576040517f08c379a0000000000000000000000000000000000000000000000000000000008152600401610313906109dd565b60405180910390fd5b8060008360405161032d919061082c565b9081526020016040518091039020819055506000605a8210610352576064905061038f565b60508210610363576096905061038e565b604682106103745760fa905061038d565b603c82106103865761015e905061038c565b6101f490505b5b5b5b806001846040516103a0919061082c565b9081526020016040518091039020819055507f68120bdc25f4ac322b4b24587b7ee5a2fc5ef77144816e321ecd4d999de4cdda83836040516103e3929190610a36565b60405180910390a17f4967f02c854396aee17a1c94b29ae49f1fa429b46a2a102c463cc082bf2bce68838260405161041c929190610a36565b60405180910390a1505050565b600260009054906101000a900473ffffffffffffffffffffffffffffffffffffffff1681565b6000818051602081018201805184825260208301602085012081835280955050505050506000915090505481565b6000808260405161048e919061082c565b9081526020016040518091039020549050919050565b6000604051905090565b600080fd5b600080fd5b6000819050919050565b6104cb816104b8565b81146104d657600080fd5b50565b6000813590506104e8816104c2565b92915050565b600080fd5b600080fd5b6000601f19601f8301169050919050565b7f4e487b7100000000000000000000000000000000000000000000000000000000600052604160045260246000fd5b610541826104f8565b810181811067ffffffffffffffff821117156105605761055f610509565b5b80604052505050565b60006105736104a4565b905061057f8282610538565b919050565b600067ffffffffffffffff82111561059f5761059e610509565b5b6105a8826104f8565b9050602081019050919050565b82818337600083830152505050565b60006105d76105d284610584565b610569565b9050828152602081018484840111156105f3576105f26104f3565b5b6105fe8482856105b5565b509392505050565b600082601f83011261061b5761061a6104ee565b5b813561062b8482602086016105c4565b91505092915050565b6000806040838503121561064b5761064a6104ae565b5b6000610659858286016104d9565b925050602083013567ffffffffffffffff81111561067a576106796104b3565b5b61068685828601610606565b9150509250929050565b610699816104b8565b82525050565b60006020820190506106b46000830184610690565b92915050565b6000602082840312156106d0576106cf6104ae565b5b600082013567ffffffffffffffff8111156106ee576106ed6104b3565b5b6106fa84828501610606565b91505092915050565b6000806040838503121561071a576107196104ae565b5b600083013567ffffffffffffffff811115610738576107376104b3565b5b61074485828601610606565b9250506020610755858286016104d9565b9150509250929050565b600073ffffffffffffffffffffffffffffffffffffffff82169050919050565b600061078a8261075f565b9050919050565b61079a8161077f565b82525050565b60006020820190506107b56000830184610791565b92915050565b600081519050919050565b600081905092915050565b60005b838110156107ef5780820151818401526020810190506107d4565b60008484015250505050565b6000610806826107bb565b61081081856107c6565b93506108208185602086016107d1565b80840191505092915050565b600061083882846107fb565b915081905092915050565b7f4e487b7100000000000000000000000000000000000000000000000000000000600052601160045260246000fd5b600061087d826104b8565b9150610888836104b8565b9250828202610896816104b8565b915082820484148315176108ad576108ac610843565b5b5092915050565b7f4e487b7100000000000000000000000000000000000000000000000000000000600052601260045260246000fd5b60006108ee826104b8565b91506108f9836104b8565b925082610909576109086108b4565b5b828204905092915050565b600082825260208201905092915050565b7f4f6e6c79206f776e657200000000000000000000000000000000000000000000600082015250565b600061095b600a83610914565b915061096682610925565b602082019050919050565b6000602082019050818103600083015261098a8161094e565b9050919050565b7f53636f7265206d757374206265203c3d20313030000000000000000000000000600082015250565b60006109c7601483610914565b91506109d282610991565b602082019050919050565b600060208201905081810360008301526109f6816109ba565b9050919050565b6000610a08826107bb565b610a128185610914565b9350610a228185602086016107d1565b610a2b816104f8565b840191505092915050565b60006040820190508181036000830152610a5081856109fd565b9050610a5f6020830184610690565b939250505056fea2646970667358221220adff4f9404096deca1f9cca1597b964b3dd2713d0c548ed2d80428bb4322db5164736f6c63430008140033",
  "linkReferences": {},
  "deployedLinkReferences": {}
}